S01D00005244525F4143415F32303137303831355F56312E312E73726563BF
S113000084C10000A1C100009FC100009DC1000087
S11300109BC1000099C1000097C1000095C1000078
S113002093C1000091C100008FC100008DC1000088
S11300300C94672889C1000087C1000085C10000B5
S113004083C1000081C100007FC100007DC10000A8
S11300507BC100000C94601677C1000075C10000DC
S113006073C1000071C100006FC100006DC10000C8
S11300706BC1000069C1000067C1000065C10000D8
S11300800C94C52761C100005FC100000C9458287E
S11300900C9404290C944B2957C1000055C100004D
S11300A053C1000051C100004FC100004DC1000008
S11300B04BC1000049C1000047C1000045C1000018
S11300C043C1000041C100003FC100003DC1000028
S11300D03BC1000039C1000037C1000035C1000038
S11300E033C1000031C100002FC100000C94FB1E7D
S11300F00C94221F0C94751F27C100000C94491FF7
S113010023C1000021C100001FC100001DC1000067
S11301101BC1000019C1000017C1000015C1000077
S1130120C404EC064504450445044504A7056006DB
S11301304504E1044504F804450445045605B304A4
S113014045044504740688064504450486065C0493
S11301504504DD044504450445044504A705A505F7
S1130160450445044504450445044504B3042207F5
S1130170D010C910C210BB10B410AD10A610671077
S1130180D710981091108A1083107C1075106E107F
S113019060109F10A315911597159D156015BB153B
S11301A0B515AF15A915A315911597159D156015CE
S11301B0BB15B515AF15A915752372236F236C23D1
S11301C066235B234C23452330238A236E616E0010
S11301D0696E660000407A10F35A00A0724E180946
S11301E00010A5D4E80000E87648170000E40B549A
S11301F0020000CA9A3B000000E1F5050000809669
S11302009800000040420F000000A086010000009A
S1130210102700000000E803000000006400000054
S113022000000A00000000000100000000002C761D
S1130230D888DC674F0823DFC1DFAE59E1B1B79638
S1130240E5E3E453C63AE651997696E8E6C2842695
S1130250EB898C9B62ED407C6FFCEFBC9C9F40F271
S1130260BAA56FA5F490055A2AF75C936B6CF967ED
S11302706DC11BFCE0E40D47FEF520E6B500D0EDB2
S1130280902E0300943577050080841E080000201A
S11302904E0A000000C80C333333330F986E1283B8
S11302A01141EF8D2114893BE65516CFFEE6DB188C
S11302B0D1844B381BF77C1D901DA4BBE424203251
S11302C084725E228100C9F124ECA1E53D274E41F0
S11302D04E494E495459494E46CDCCCC3D0AD723BC
S11302E03C17B7D13877CC2B329595E6241FB14F04
S11302F00A000020410000C84200401C4620BCBE49
S11303004CCA1B0E5AAEC59D740011241FBEC0E01A
S1130310D0E4DEBFCDBF15E0A0E0B2E0ECE2FEE643
S113032000E00BBF02C007900D92AA32B107D9F7C3
S11303302CE0AAE2B5E001C01D92AE3CB207E1F7A1
S11303400E94181C0C9414375BCEA0980895A198B1
S1130350089581E080932D05089581E080932F0511
S1130360E5E3F9E080818F7B8083089581E08093C9
S11303702E05089581E080930C02089581E0809316
S1130380BA0908958FEF0E9440200C943526E2EBC1
S1130390FCE06581838194810C94BB20BC0183E0E3
S11303A00C94B2220E946A1C882319F081E0809385
S11303B0450C08952091520C3091530C80914C0CB3
S11303C090914D0C2817390709F0089510922C05C7
S11303D0089508950E94D225811117C02091520CCE
S11303E03091530C80914C0C90914D0C2817390787
S11303F069F090912C059F5F90932C05933028F021
S1130400C9010E940A2181112CC0089540E050E0E6
S113041060E0C9010E94372280912C058F5F809390
S11304202C05833090F31092450C88E00E94BE1E88
S1130430282F30E02E5C3F4F4EE1429FC001439F86
S1130440900D112462EC71E088519C4F0E94BD26EE
S11304502091520C3091530CC9010E940A21882327
S1130460A1F28091520C9091530C0C9460218091D4
S1130470390B1092100B882329F08091470B8F774A
S1130480813009F008952091480B20932B05E7E370
S1130490F9E080E8DF011D928A95E9F7222369F0EB
S11304A0E9E4FBE0A7E3B9E0215030E0265B344FF8
S11304B081918D93E217F307D9F787E399E0B9D7D0
S11304C08093B809109234090895A19A67EA71E0FB
S11304D08AE090E00C94BD2681110895A19A67EA00
S11304E071E08AE090E00C94BD26811106C062ECB4
S11304F071E088EE93E00C94BD2667EC71E08EE128
S113050090E00C94BD268F929F92AF92BF92CF92AF
S1130510DF92EF92FF920F931F93CF93DF93CDB7A8
S1130520DEB761970FB6F894DEBF0FBECDBF87E08C
S1130530898BAE01475F5F4F68E080E090E00E94E6
S1130540162089849A84AB84BC84CD84DE84EF84B1
S1130550F8888FEF88169806A806B80699F0619671
S11305600FB6F894DEBF0FBECDBFDF91CF911F91C0
S11305700F91FF90EF90DF90CF90BF90AF909F903E
S11305808F9008959401A501B601C70100E20E946D
S11305903E2F69017A012F3F3F4F4F4F5F4F610557
S11305A071058105910571F0CD28CE28CF28B9F2C7
S11305B0AE014F5E5F4F62E082E290E00E942B202A
S11305C00000CDCFCE0101966C0188E0F6011192B6
S11305D08A95E9F780E00E94351C86E00E94CE1CD3
S11305E0760110E00FEF08C0F70100831F5FFFEFF3
S11305F0EF1AFF0A1830C1F01430B0F30E94CA1C7D
S11306008F7E863099F7F701908124E0809146012E
S11306108076829586958770990F990F982BF701AC
S11306209083215099F7E2CFA60168E080E090E042
S11306300E942B20AE014F5E5F4F62E082E290E0A9
S11306400E942B2060E08CE690E00E94B03660E0CF
S113065087E790E00E94B03682CF0F931F93CF9329
S1130660DF931F92CDB7DEB783B3876083BB84B3B8
S1130670887F84BB84B3876084BB6B9A739884B38C
S1130680887F84BBA09A83E18093B80965EA71E00E
S113069089E190E00E94BD2681E08093BA0933DFAE
S11306A00E945F146BE476E188E293E20E94BD2627
S11306B0082F10E09091B909911111C09091BA09D5
S11306C0913099F1923009F459C00E94CC228823C8
S11306D089F30E9401239091B909992379F36EEB70
S11306E071E08CE291E00E94BD26AE014F5F5F4F46
S11306F061E08EE190E00E94162089818F3FF9F03D
S11307009091F60A89131FC08FEF0E9440200E9427
S113071035268091BA09823009F446C000000F9052
S1130720DF91CF911F910F9108950E9485126EEB76
S113073071E08CE291E00E94BD26182FBBCF80911E
S1130740F60A811122C046EF5AE061E08EE190E0A2
S11307500E942B2047EF5AE061E08FE190E00E9475
S11307602B208091350982608093350945E359E057
S113077061E082E290E00E942B20C6CF802F0E948D
S11307807D27812F0E947D27AACF46EF5AE061E0A2
S11307908EE190E00E942B2047EF5AE061E08FE168
S11307A090E00E942B20B0CF0E943D0D809135092E
S11307B081FDB4CF0E94B912B1CFEF92FF920F9393
S11307C01F93CF93DF937A01FB0101900020E9F797
S11307D03197EF01C61BD70B0E947B330097F1F0D2
S11307E08C010C0F111DB701C8010E947B330097C7
S11307F0A9F0EC01C01BD10BAE01B8018EE398E067
S11308000E943D33C25CD74F18828EE398E0DF919B
S1130810CF911F910F91FF90EF90089580E090E0A9
S1130820F6CF8F929F92AF92BF92CF92DF92EF92C8
S1130830FF920F931F93CF93DF93CDB7DEB7E1976A
S11308400FB6F894DEBF0FBECDBF1092100B8E0111
S1130850015E1F4F8AE0D8011D928A95E9F78091C5
S1130860BA09813009F498C08091450C811104C003
S11308709091350993FF09C0E091B8094E2F50E0DB
S1130880FA013197E832F10598F0E1960FB6F89441
S1130890DEBF0FBECDBFDF91CF911F910F91FF90AF
S11308A0EF90DF90CF90BF90AF909F908F9008957E
S11308B0E057FF4F0C94242F82E00E944B128823B0
S11308C021F36091170B7091180B8091190B909183
S11308D01A0B0E945A0D0091160A10E0102F0027DF
S11308E08091150A080F111DB801012E000C880B08
S11308F0990B0E94632E6093170B7093180B8093CF
S1130900190B90931A0B80912B0990912C09A091AB
S11309102D09B0912E098A879B87AC87BD871987DB
S113092008878091C1099091C2099A838983809133
S1130930BF099091C0099E838D838091F20A8B83B5
S11309408091F30A8C830E945114811140C381E089
S11309508D8B60912B0970912C0980912D099091B8
S11309602E090E94CD1482E08093B8098ECF91FDA8
S1130970C1C190FF04C08091F60A8111C0C192FDEB
S11309805DC381E08093B8090E94A012882359F3C3
S113099080E18093B80979CF0E94B2126EEB71E0C6
S11309A08CE291E00E94BD268091BA09823009F45C
S11309B054C286E00E94AD0D57CF87E28093B809F8
S11309C064CF80910C02882309F45FCF0E94B21295
S11309D06EEB71E08CE291E00E94BD2668D4109227
S11309E00C026AEB71E088E790E00E9422274DCF69
S11309F0B80180912A090E94B31B892B09F0B3CF57
S1130A004EE352E069E0C8010E9471164AE050E0EA
S1130A1060E070E0C8010E94F03060932B0970938D
S1130A202C0980932D0990932E098091450C8823DD
S1130A3009F45AC21F930F9382E492E09F938F9319
S1130A4003E31AE01F930F930E94F633F801019019
S1130A500020E9F7BF0164537A406093320A6F5F64
S1130A606093100B42E35AE080E090E00E9437224A
S1130A7080E8E7E3F9E0DF011D928A95E9F787E072
S1130A808093B809809135098064809335090F906B
S1130A900F900F900F900F900F9010922F056DEA0A
S1130AA071E08CE390E00E942227EFCE81E00E9467
S1130AB04B12882309F4E9CE0091020B10E0102FA9
S1130AC000278091010B080F111DB801012E000CA5
S1130AD0880B990B0E94632E6093170B7093180B6D
S1130AE08093190B90931A0B80912B0990912C09E8
S1130AF0A0912D09B0912E098A879B87AC87BD8769
S1130B00198708878091C1099091C2099A838983C2
S1130B108091BF099091C0099E838D838091F20AD0
S1130B208B838091F30A8C830E945114811132C209
S1130B3081E08D8B60912B0970912C0980912D0996
S1130B4090912E090E94CD1423CF87DD9ECE9091E3
S1130B503709992309F49CC1809135098F7B8093CF
S1130B60350982E08093B8096EE472E087E399E086
S1130B700E947B33009709F44BC24AE050E060E0E6
S1130B8070E004960E94F03060932B0970932C0956
S1130B9080932D0990932E0963E572E087E399E031
S1130BA00E947B338C017C01B9E0EB0EF11C6EE2F8
S1130BB070E0C7010E944633D82EDE18C7010E9498
S1130BC02532E1E0ED1508F063C232E0D31609F4F2
S1130BD023C286E0E3E6F2E0D70101900D928A9504
S1130BE0E1F7D80119966C91199770E06053710977
S1130BF01A96EC911A97F0E0F0971C962C911C979A
S1130C0030E0205331091D968C91A82FB0E088EE76
S1130C1093E0689F8001699F100D789F100D112447
S1130C2044E64E9FC0014F9F900D1124080F191FD9
S1130C30C901880F991FA901440F551F440F551F5F
S1130C40440F551F840F951F800F911F8A0F9B1F00
S1130C50C0979093320980933109AD0143525E4F9E
S1130C60C901835F9D4FDF01A35FBD4FFB01E35FBC
S1130C70FD4F5F012AE0C22EE12C00E0FA01208141
S1130C80FC0140816C91D5018C91CAD6BFEFE1EE95
S1130C90F4E0B150E040F040E1F700C00000809182
S1130CA0FB0A813009F4E2C1883009F0EECD80916D
S1130CB0F60A893209F0E9CD88E18093B809E5CDD7
S1130CC02FEF37EA81E6215030408040E1F700C041
S1130CD000008091FA0A813009F402C180912E0546
S1130CE0813009F0D2CD3FCE9091350993FF3FCEAC
S1130CF091FF47CE8091F60A882309F445CE81E01E
S1130D0080930C028AE08093B8093ECE61D6BDCDB3
S1130D1049E652E06BE672E087E399E04EDD6C0150
S1130D20009709F44AC0FC0101900020E9F73197CB
S1130D308E2E881A4AE255E061E087E590E00E9431
S1130D401620AE01475D5F4F60912A0588E590E06B
S1130D500E941620882009F485C100E010E0FE01FD
S1130D6031965F017601E10EF11CD7018C910E944E
S1130D708629982EF70181810E948629F501E00FCA
S1130D80F11D20E1929E800D112480831E5F0F5F70
S1130D90181540F340912A0550E0B501CE0189961B
S1130DA00E943033892B09F094C0809135098B7FE0
S1130DB08093350983E18093B80980912D058823B8
S1130DC009F463CD10922D059AD269EA71E08CE39F
S1130DD090E00E94222759CD80910A0290910B0243
S1130DE08035910508F04EC0019690930B028093D4
S1130DF00A02BE016F5F7F4F82E50E949D18892B16
S1130E0009F043CD86E0E1E2F2E0DE01999601903B
S1130E100D928A95E1F7AE014F5C5F4FBE016F5FA3
S1130E207F4F80E00E94671A892B09F02ECD89A993
S1130E30883009F434C110922A098CE08093B809EF
S1130E40A09823CD8091040A80FF1FCD8E7F8093CC
S1130E50040A87E28093B80918CDEFE1FEE43197E4
S1130E60F1F700C000009091350991FDA3CD809168
S1130E70450C81111EC093FD1CC083E06ED6809189
S1130E80450CF4CC909A10920B0210920A02B1CF46
S1130E9090912F05913011F08111F7CC8091350993
S1130EA08F7B8093350981E058D687E28093B80917
S1130EB0ECCC94FDE2CF96FFD9CC8091B809873071
S1130EC019F087E08093B80984E047D68091450CF7
S1130ED0CDCC8AE08093B80981E080930C026DCF79
S1130EE08FE08093B809D1CC0E94511481118CC039
S1130EF08091350984FD88C0E0E0F0E0208130E095
S1130F002053310988EE93E0289FA001299F500DBA
S1130F10389F500D1124218130E02053310964E6BB
S1130F20629FC001639F900D1124480F591F2381B4
S1130F3030E0C901C097BC01660F771F9C01220FE6
S1130F40331F220F331F220F331FCB01820F931F36
S1130F50840F951F2481820F911DC09790933209AD
S1130F60809331098091FB0A813009F096CD0E946B
S1130F70331288E08093B80910922E050E94A712BC
S1130F8066EB71E0882309F49CC08EE190E00E9436
S1130F90222783CD1D8A609131097091320980E046
S1130FA090E00E94612E2091170B3091180B409114
S1130FB0190B50911A0B0E94682D0E94352E7093C4
S1130FC0320960933109CE01019678D4E1CC1D8AAF
S1130FD0609131097091320980E090E00E94612EA5
S1130FE02091170B3091180B4091190B50911A0B4B
S1130FF00E94682D0E94352E709332096093310946
S1131000CE0101965BD4AFCC82E08093B80945CD84
S113101081E080932F0539CC9F938F937F936F93B7
S11310208EE592E09F938F93FF92EF920E94F633A6
S11310300FB6F894DEBF0FBECDBFD3CD10922D05F1
S11310405ED180E8E7E3F9E0DF011D928A95E9F7D4
S113105069EA71E08CE390E00E94222784E18093A6
S1131060B80992CCDE0111965D0194CE0E94331230
S113107088E08093B80910922E050E94A71266EBAF
S113108071E08823C9F08EE190E00E942227FDCB15
S11310909F938F937F936F938DE592E0C3CF80935B
S11310A02A0920E0AE014F5F5F4FBE01675D7F4FAD
S11310B080E60E940F1BC1CE84EF91E00E94BD2602
S11310C0E4CB84EF91E00E94BD26E7CC8091040A32
S11310D081608093040A08950F931F93CF93DF9345
S11310E08B01833009F4A6C040F1853009F462C055
S11310F008F497C0863009F072C044EC59E061E00E
S113110080E091E00E9416208091C4098F3F09F489
S11311109CC090E0E80121969F938F9388E793E029
S11311209F938F93DF93CF930E94F6330F900F908A
S11311300F900F900F900F902CC0813009F452C083
S1131140823009F04CC0EB0121968091F30A1F9282
S11311508F938091F20A1F928F938091C0098F938D
S11311608091BF098F938091C2098F938091C109A7
S11311708F9383EC92E09F938F93DF93CF930E949E
S1131180F633ADB7BEB71C960FB6F894BEBF0FBE0C
S1131190ADBFFE0101900020E9F7EC1BD801EC93F0
S11311A08E2F8095881F8827881FDF91CF911F91EC
S11311B00F910895EB01219685EC99E09F938F930D
S11311C088E593E09F938F93DF93CF930E94F63348
S11311D00F900F900F900F900F900F90DACFE801BF
S11311E02196D7CFEB0121968091F30A1F928F931A
S11311F08091F20A1F928F9380E892E09F938F93DD
S11312008AE892E09F938F93DF93CF930E94F63303
S1131210ADB7BEB71A960FB6F894BEBF0FBEADBF3A
S1131220B8CFEB01219688EF99E09F938F938EE3DB
S113123093E076CFEB01219684E1EAE2F3E0DE016C
S113124001900D928A95E1F7A4CF1092C40980E031
S113125090E060CF1F93CF93DF93CDB7DEB7C05834
S1131260D1090FB6F894DEBF0FBECDBFBE016F5FCC
S11312707F4F80E8FB0111928A95E9F781E02CDF2A
S1131280182F882341F0AE014E5F5F4F698180E0E3
S113129090E00E943722812FC058DF4F0FB6F89498
S11312A0DEBF0FBECDBFDF91CF911F910895CF93C5
S11312B0DF93CDB7DEB7C058D1090FB6F894DEBFBF
S11312C00FBECDBFBE016F5F7F4F80E8FB0111925F
S11312D08A95E9F782E000DFAE014E5F5F4F6981D6
S11312E080E090E00E94372281E0C058DF4F0FB6C3
S11312F0F894DEBF0FBECDBFDF91CF910895CF9399
S1131300DF93CDB7DEB769970FB6F894DEBF0FBE93
S1131310CDBFBE016F5F7F4F89E1FB0111928A95BA
S1131320E9F783E0D9DEAE014E5F5F4F698180E06B
S113133090E00E94372281E069960FB6F894DEBFF0
S11313400FBECDBFDF91CF910895CF93DF93CDB77B
S1131350DEB7A3970FB6F894DEBF0FBECDBFBE01B4
S11313606F5F7F4F83E2FB0111928A95E9F784E076
S1131370B3DEAE014E5F5F4F698180E090E00E9472
S1131380372281E0A3960FB6F894DEBF0FBECDBF1F
S1131390DF91CF910895CF93DF93CDB7DEB7C555D5
S11313A0D1090FB6F894DEBF0FBECDBFBE016F5F8B
S11313B07F4F85E5FB0111928A95E9F785E08CDE84
S11313C0AE014E5F5F4F698180E090E00E9437225A
S11313D081E0CB5ADF4F0FB6F894DEBF0FBECDBF0E
S11313E0DF91CF910895CF93DF93CDB7DEB7A39765
S11313F00FB6F894DEBF0FBECDBFBE016F5F7F4F47
S113140083E2FB0111928A95E9F786E065DEAE017D
S11314104E5F5F4F698180E090E00E94372281E057
S1131420A3960FB6F894DEBF0FBECDBFDF91CF9168
S113143008958F929F92AF92BF92DF92EF92FF92A4
S11314400F931F93CF93DF93CDB7DEB7CD54D1095C
S11314500FB6F894DEBF0FBECDBF2E969FAF8EAFF2
S11314602E978E010D5B1F4F88E0F801982F119283
S11314709A95E9F77E01EBE3EE0EF11CF701119268
S11314808A95E9F7CE0101965C0182E3F501119298
S11314908A95E9F72C961FAE2C97D090B8092E9612
S11314A08EAC9FAC2E9766E873E0C4010E947B3338
S11314B0892B09F4AEC049E652E063E973E0C40144
S11314C07CD9009721F1B5010E949B298BABA50122
S11314D0682F84E290E00E942B208BA9FE01E80F84
S11314E0F11D80818093C30943EC59E061E081E6FA
S11314F090E00E942B20809135098D7F80933509DF
S113150045E359E061E082E290E00E942B2049E645
S113151052E068E973E02E968EAD9FAD2E974DD9BB
S1131520009791F0B5010E949B298BABAE014D5CF5
S11315305F4F61E087E590E00E942B20A5016BA935
S113154088E590E00E942B2049E652E069EA73E0C6
S11315502E968EAD9FAD2E9730D9009789F10E94BB
S113156028329C01892B01F12C964FAD2C970AC08F
S1131570E295E07F9E2B9C934F5F232F3327211509
S1131580310579F0922F9F70D801A40FB11D9C935F
S1131590F901F295E295EF70EF27FF70EF2730978E
S11315A039F72C964FAF2C97A80168E080E090E0C3
S11315B00E942B20A70168E080E090E00E941620A2
S11315C0B701C8010E945133892BA1F08D2DC35B53
S11315D0DF4F0FB6F894DEBF0FBECDBFDF91CF91C2
S11315E01F910F91FF90EF90DF90BF90AF909F906D
S11315F08F900895809135098E7F8093350945E356
S113160059E061E082E290E00E942B2070E2D72E44
S1131610DDCF64EB73E0C4010E947B33892B19F0A6
S11316202AE0D22ED3CF61EC73E0C4010E947B3355
S1131630892B19F094E1D92EC9CF64ED73E0C4016C
S11316400E947B33892B11F005DEC0CF67EE73E077
S1131650C4010E947B33892BA1F088E0E7E2F2E029
S1131660DE01D39601900D928A95E1F7AE014D5CAF
S11316705F4F68E080E090E00E942B2060E2D62E6D
S1131680A5CF63EF73E0C4010E947B33892B09F477
S11316903BC041E55CE061E082EF9FE00E942B20CB
S11316A048E45CE062E084EF9FE00E942B204AE47F
S11316B05CE062E086EF9FE00E942B2081E02C96A4
S11316C08FAF2C97AE01455B5F4F61E080EF9FE0E9
S11316D00E942B202E96EEADFFAD2E971182108224
S11316E0AE01445B5F4F66E08AEF9FE00E942B20CF
S11316F0F8949FE088E10FB6F894A8958093600071
S11317000FBE90936000FFCF63E074E0C4010E94B9
S11317107B33892B81F149E652E068E074E0C4012F
S11317204CD8009709F452CFFC0101900020E9F74E
S113173031978F01081B190B0BAB033308F046CF0D
S1131740BC0185EC99E00E945A3361E0600F6BABF9
S113175045EC59E087E790E00E942B208091350901
S11317608F778093350945E359E061E082E290E0A8
S11317700E942B202BCF6FE074E0C4010E947B33C6
S1131780892B11F008DE22CF64E174E0C4010E94C9
S11317907B33892B81F149E652E064E274E0C401B1
S11317A00CD8009709F412CFFC0101900020E9F74E
S11317B031978F01081B190B0BAB0B3008F006CFC8
S11317C0BC0188EF99E00E945A3361E0600F6BAB73
S11317D048EF59E08CE690E00E942B208091360976
S11317E08E7F8093360945E359E061E082E290E020
S11317F00E942B20EBCE66E374E0C4010E947B338D
S1131800892B11F0A2DDE2CE66E474E0C4010E94EB
S11318107B33892B61F0E7DD66E678E08CE390E0CA
S11318200E9422278093300558E2D52ECFCE6DE456
S113183074E0C4010E947B33892B19F08FE1D82E08
S1131840C5CE69E574E0C4010E947B33892B11F194
S11318501BAA49E652E063E674E0C4010E94DD037A
S1131860009709F4B3CEBE016D5C7F4F0E949B29A3
S11318708BA9863009F0AACEF8E2DF12A7CE8091B8
S113188030050E947D270E94E71581110EC047E2B2
S1131890D42E9CCE6FE674E0C4010E947B33892B66
S11318A009F494CE37E1D32E91CE66E678E08CE34A
S11318B090E00E9422278093300588CEEF92FF9219
S11318C00F931F93CF93DF93CDB7DEB7CA58D109D7
S11318D00FB6F894DEBF0FBECDBF8C017E0181E848
S11318E0E80EF11C8AE0D7011D928A95E9F7FE0102
S11318F0319680E8DF011D928A95E9F7F801618548
S11319007285838594852AE0A7010E949D33D801BE
S113191054968C9154971F928F9313968C9113978E
S11319201F928F9312968C9112971F928F931596F4
S11319308C9115978F9314968C9114978F9311967D
S11319408C9111978F938C918F9317966D917C91B5
S1131950189780E090E00E94612E20E030E048EC8F
S113196052E40E94CD2D9F938F937F936F93FF92A8
S1131970EF9287E794E09F938F938E010E5F1F4F42
S11319801F930F930E94F633F80101900020E9F7AA
S11319906E2F601B69830FB6F894DEBF0FBECDBFF8
S11319A067FD14C0A80180E090E00E94372281E026
S11319B0C657DF4F0FB6F894DEBF0FBECDBFDF9121
S11319C0CF911F910F91FF90EF90089580E0F0CF99
S11319D0CF93DF93CDB7DEB7C058D1090FB6F894D3
S11319E0DEBF0FBECDBFBE016F5F7F4F80E8FB013E
S11319F011928A95E9F788E06FDBAE014E5F5F4F85
S1131A00698180E090E00E94372281E0C058DF4F76
S1131A100FB6F894DEBF0FBECDBFDF91CF9108950E
S1131A20CF92EF920F93CF93DF93CDB7DEB7299781
S1131A300FB6F894DEBF0FBECDBFFE01319699E01C
S1131A40DF011D929A95E9F798E0998390E69A83CD
S1131A508B836C834D832E830F83E886C986CF01E5
S1131A6048D229960FB6F894DEBF0FBECDBFDF91E2
S1131A70CF910F91EF90CF900895CF92EF920F9363
S1131A8060910E0285E0C82EE12C00E020910D0249
S1131A90462F80E5C5DF882349F02FEF37EA91E62A
S1131AA0215030409040E1F700C000000F91EF90CA
S1131AB0CF900895CF92EF920F9385E0C82EE12C3A
S1131AC000E020E043E76CE588E7AADF882349F0DB
S1131AD02FEF37EA91E6215030409040E1F700C003
S1131AE000000F91EF90CF900895CF92EF920F9353
S1131AF0CF9394E0C92EE12C00E02EE540E567E7A2
S1131B0089E38EDFC82F811106C08C2FCF910F91EE
S1131B10EF90CF9008952FEF37EA81E621503040BF
S1131B208040E1F700C0000083E0C82E20E040E5DB
S1131B3060E589E775DF882341F39FEF27EA31E603
S1131B40915020403040E1F700C00000C82F8C2F96
S1131B50CF910F91EF90CF900895CF92EF920F9382
S1131B608130D9F08230E9F0843029F1833069F191
S1131B708530A9F1863021F00F91EF90CF90089530
S1131B8085E0C82EE12C09E728E34CE767E789E301
S1131B9047DF0F91EF90CF9008950F91EF90CF9082
S1131BA0A4CF35E0C32EE12C00E02EE34DE66CE536
S1131BB084E536DFE1CF25E0C22EE12C00E02EE6FD
S1131BC04DE66EE38CE72CDFD7CF95E0C92EE12CF0
S1131BD000E020E040E569E78DE622DFCDCFC12CAF
S1131BE0E12C00E020E040E060E080E019DFC4CFB9
S1131BF01F93CF93DF93CDB7DEB7EC970FB6F8946E
S1131C00DEBF0FBECDBFAE014F5F5F4F8CE3FA0165
S1131C1011928A95E9F78091F20A823209F4FCC0A4
S1131C20893209F497C0813251F0EC960FB6F894DA
S1131C30DEBF0FBECDBFDF91CF911F91089565E147
S1131C4084E290E00E9416201A85612F70E0762FBE
S1131C5066278B85680F711D072E000C880B990B66
S1131C600E94632E20E030E048EC52E40E94CD2D27
S1131C706093170B7093180B8093190B90931A0BA6
S1131C808A818093CE081092CF088C818093D008EB
S1131C901092D1088E818093D2081092D30888853F
S1131CA08093D4081092D5081093D6081092D708C0
S1131CB08C858093D8081092D9088E858093DA0891
S1131CC01092DB0888898093DC081092DD088A89E9
S1131CD08093DE081092DF088C898093E0081092CC
S1131CE0E10882E38093E2081092E3081092E4088A
S1131CF01092E5081092E6081092E7081092E8089E
S1131D001092E9089AE09093EA0884E08093EB0843
S1131D101092EC0827E02093ED089093EE0880934E
S1131D20F0081092EF0826E02093F1089093F2084F
S1131D308093F3081092F40885E08093F50880936B
S1131D40F6081092F70881E08093F8088DE18093FB
S1131D50F9086BCF61E184E290E00E9416208A8149
S1131D6080930A0A10920B0A8C8180930C0A1092B9
S1131D700D0A8E8180930E0A10920F0A8885809333
S1131D80100A1092110A8A858093120A1092130A7B
S1131D9088898093140A8C858093150A1092160AF8
S1131DA08E858093170A86E28093180A95E09093B3
S1131DB0190A80931A0A86E180931B0A8EE18093A4
S1131DC01C0A8DE280931D0A10921E0A80931F0A3A
S1131DD01092200A83E08093210A8093220A809340
S1131DE0230A8093240A80EA8093250A8BE980934E
S1131DF0260A83E78093280A84E08093290A8DE1E8
S1131E0080932A0A10922B0A10922C0A10922D0AFF
S1131E1081E080932E0A09CF60E184E290E00E9481
S1131E2016201A85612F70E0762F66278B85680F40
S1131E30711D072E000C880B990B0E94632E20E065
S1131E4030E048EC52E40E94CD2D6093170B709360
S1131E50180B8093190B90931A0B8A818093A7080F
S1131E601092A8088C818093A9081092AA088E81E8
S1131E708093AB081092AC0888858093AD081092CB
S1131E80AE081093AF081092B0088C858093B10807
S1131E901092B2088E858093B3081092B408888992
S1131EA08093B5081092B6088A898093B708109277
S1131EB0B8088C898093B9081092BA0882E3809399
S1131EC0BB081092BC0882E08093BD0893E0909315
S1131ED0BE088093BF0891E09093C00894E090936B
S1131EE0C1088093C2081092C4088DE18093C5088C
S1131EF09CCEAF92BF92CF92DF92EF92FF920F935C
S1131F001F93CF93DF935C0108E00E947628F501CC
S1131F10108182E00E9493281F3F09F44AC0E50122
S1131F20C12ED12CFFEFCF1ADF0ACA0CDB1C12E042
S1131F307E0189910E949328F70190811927CC157D
S1131F40DD05B1F7812F0E9493281092160B789427
S1131F50B0D608C00E94D528811108C00E94CC22A6
S1131F60811124C09091160B9634A0F3A0D68091D1
S1131F70160B863430F40E94E1288630E1F0893073
S1131F8049F08FED9EE20197F1F700C00000015087
S1131F9009F0BBCF80E0DF91CF911F910F91FF90AB
S1131FA0EF90DF90CF90BF90AF9008950E940123EF
S1131FB0D9CF12E0C7CF81E0EECFCF93DF93CDB777
S1131FC0DEB72B970FB6F894DEBF0FBECDBFCE01A0
S1131FD001962BE0FC0111922A95E9F72091F70A6A
S1131FE0233051F086DF2B960FB6F894DEBF0FBE78
S1131FF0CDBFDF91CF9108952091F20A2232E9F109
S11320002932F1F0213271F72AE0298322E72A8369
S1132010E091F80A4E2F50E0FA013197E930F105CA
S113202008F443C02091F90A213009F4D3C02230C6
S1132030C9F62091E2082D832091E3082E83D2CFA4
S11320402AE0298322E72A832091F80A243008F021
S1132050B5C0223070F5213031F420910C0A2B8365
S113206020910D0A2C832091150A2F832091160AA2
S113207028872091170A2987B5CF2AE0298322E7E8
S11320802A83E091F80A4E2F50E0FA013197E930A3
S1132090F10538F02091BB082D832091BC082E83D4
S11320A0A1CFE854FF4F0C94242FEF53FF4F0C940F
S11320B0242F20910E0A2B8320910F0A2C83D3CF37
S11320C02091DC082B832091DD082C83ABCF209159
S11320D0B5082B832091B6082C83DCCF2091DA0835
S11320E02B832091DB082C839DCF2091D8082B8350
S11320F02091D9082C8396CF2091D6082B83209148
S1132100D7082C838FCF2091D4082B832091D50816
S11321102C8388CF2091D2082B832091D3082C8341
S113212081CF2091D0082B832091D1082C837ACFA2
S11321302091CE082B832091CF082C8373CF20913C
S1132140DE082B832091DF082C836CCF2091B30809
S11321502B832091B4082C839DCF2091B1082B832D
S11321602091B2082C8396CF2091AF082B83209125
S1132170B0082C838FCF2091AD082B832091AE081B
S11321802C8388CF2091AB082B832091AC082C831F
S113219081CF2091A9082B832091AA082C837ACF80
S11321A02091A7082B832091A8082C8373CF20911A
S11321B0B7082B832091B8082C836CCF243089F086
S11321C0253009F050CF2091100A2B832091110A59
S11321D02C8349CF2091E0082D832091E1082E83A0
S11321E001CF20910A0A2B8320910B0A2C833BCF29
S11321F0EF92FF921F93CF93DF93EC010E94E128AB
S1132200182F823039F080E0DF91CF911F91FF9039
S1132210EF9008950E94E12898819817A0F3182759
S1132220882379F08150E82EF12C8FEFE81AF80A10
S1132230EC0EFD1E0E94E12889931827CE15DF05B8
S1132240C9F70E94E128181721F085E10E9493281C
S1132250DACF86E00E94932881E0D6CFCF93DF9334
S1132260CDB7DEB76A970FB6F894DEBF0FBECDBF09
S11322702AE1CE010196FC01322F11923A95E9F739
S11322802983B6DF882319F09981913751F080E0D2
S11322906A960FB6F894DEBF0FBECDBFDF91CF9123
S11322A008959A81905E9093F60A9B819093F80A20
S11322B09C819093F90A9D819093FA0A9E81909350
S11322C0FB0A9F819093FC0A98859093FD0A998557
S11322D09093FE0A9A859093FF0A9B859093000B36
S11322E09C859093010B9D859093020B9E85909302
S11322F0030B9F859093040B98899093050B998900
S11323009093060B9A899093070B9B899093080BE3
S11323109C899093090B9D8990930A0B9E899093B5
S11323200B0B9F8990930C0B988D90930D0B998DAB
S113233090930E0B9A8D90930F0BAACF1F93CF936C
S1132340DF9300D0CDB7DEB71A8219828091F70AE5
S1132350833081F0CE010196CCDD882321F0809179
S1132360F70A833061F080E00F900F90DF91CF91F6
S11323701F91089581E0898380E78A83EBCF6EDF24
S1132380182F882381F39091350991FB882780F9D0
S113239091FDEACF8FED9EE20197F1F700C00000B6
S11323A00CDE812F0F900F90DF91CF911F91089534
S11323B0CF93DF93CDB7DEB76F970FB6F894DEBF38
S11323C00FBECDBF2FE1CE010196FC01322F119239
S11323D03A95E9F729830CDF882379F09A81909361
S11323E0C9089B819093CA089C819093CB089F81D4
S11323F09093FA0899899093FB086F960FB6F89416
S1132400DEBF0FBECDBFDF91CF910895CF93DF9391
S1132410CDB7DEB72A970FB6F894DEBF0FBECDBF97
S11324208AE0EFE2F2E0DE01119601900D928A95C6
S1132430E1F789E0898383E78A831E8281E08F83C1
S113244080E18887198682E08A87CE01019651DD72
S11324508111AEDF2A960FB6F894DEBF0FBECDBF52
S1132460DF91CF910895CF93DF9300D000D0CDB703
S1132470DEB783E0898384E68A838FE08B8381E0FF
S11324808C83CE01019635DD0F900F900F900F9045
S1132490DF91CF910895CF93DF93CDB7DEB7279720
S11324A00FB6F894DEBF0FBECDBFFE01319697E0A4
S11324B0DF011D929A95E9F78130D1F0823059F00D
S11324C0CF0117DD27960FB6F894DEBF0FBECDBF40
S11324D0DF91CF91089586E089838AE68A8390917B
S11324E0150A9B838091160A8C839D838E83E8CF83
S11324F086E089838AE68A839091010B9B8380918D
S1132500020B8C839D838E83DBCF80DF882319F0BD
S113251083E08093F70A8FE39FE10197F1F700C00E
S113252000000CDF882319F082E08093BA098091BF
S1132530F60A8093F20A8091F70A8093F30A0895C9
S113254081E09091FB0A983009F080E00895809131
S1132550FB0A80FF05C081E09091FC0A903209F0EB
S113256080E00895EBDE882319F082E08093BA09B5
S11325700895CF93DF93CDB7DEB7EC970FB6F894F9
S1132580DEBF0FBECDBFFE0131968CE3DF011D928D
S11325908A95E9F79091F20A923209F412C19932BC
S11325A009F49FC0913259F0CF01A3DCEC960FB629
S11325B0F894DEBF0FBECDBFDF91CF91089582E3C3
S11325C089839A838091C9088B838091CA088C83FC
S11325D08091CB088D838091CC088E838091CD0827
S11325E08F838091CE0888878091CF0889878091D6
S11325F0D0088A878091D1088B878091D2088C87F4
S11326008091D3088D878091D4088E878091D508D6
S11326108F878091D608888B8091D708898B809189
S1132620D8088A8B8091D9088B8B8091DA088C8B9F
S11326308091DB088D8B8091DC088E8B8091DD0886
S11326408F8B8091DE08888F8091DF08898F80913D
S1132650E0088A8F8091E1088B8F8091E2088C8F4B
S11326608091E3088D8F8091E5088E8F8091E40836
S11326708F8F8091E60888A38091E70889A38091D1
S1132680E8088AA38091E9088BA38091EA088CA3C7
S11326908091EB088DA38EA38091ED088FA3809188
S11326A0EE0888A78091F00889A78091F1088BA78C
S11326B08091F2088CA78091F4088DA78091F3088B
S11326C08AA78091F5088FA78091F60888AB80913E
S11326D0F70889AB8091F8088AAB8091F9088BAB35
S11326E063CF85E289839A838091050A8B838091E5
S11326F0060A8C838091070A8D838091080A8E8351
S11327008091090A8F8380910A0A888780910B0A35
S113271089878091120A8A878091130A8B87809116
S1132720140A8E878091150A8C878091160A8D87EA
S11327308091170A8F878091180A888B8091190AD3
S1132740898B80911A0A8A8B80911B0A8B8B8091CA
S11327501C0A8C8B80911D0A8D8B80911E0A8E8B96
S113276080911F0A8F8B8091200A888F8091210A83
S1132770898F8091220A8A8F8091230A8B8F80917E
S1132780240A8C8F8091250A8D8F8091260A8E8F42
S11327908091270A8F8F8091280A88A38091290A23
S11327A089A380912A0A8AA380912B0A8BA3809102
S11327B02C0A8CA380912D0A8DA380912E0A8EA3BE
S11327C0F3CE82E389839A838091A2088B838091DC
S11327D0A3088C838091A4088D838091A5088E839F
S11327E08091A6088F838091A70888878091A80884
S11327F089878091A9088A878091AA088B8780910C
S1132800AB088C878091AC088D878091AD088E874A
S11328108091AE088F878091AF08888B8091B00833
S1132820898B8091B1088A8B8091B2088B8B8091BF
S1132830B3088C8B8091B4088D8B8091B5088E8BF6
S11328408091B6088F8B8091B708888F8091B808E3
S1132850898F8091B9088A8F8091BA088B8F809173
S1132860BB088C8F8091BC088D8F8091BE088E8FA1
S11328708091BD088F8F8091BF0888A38091C00884
S113288089A38091C1088AA38091C2088BA38091F7
S1132890C3088CA38091C4088DA38091C5088EA31E
S11328A083CE8091450C811108C08091350983FB4A
S11328B0992790F981E08927089581E0089545E3F7
S11328C059E062E082E290E00E94162042EF5AE072
S11328D062E08EE190E00E9416201092BB091092F3
S11328E0BC091092BD091092BE0981E090E090935A
S11328F0C0098093BF099093C2098093C109809154
S113290035098F7B8093350981FD089571D98091B4
S1132910350984608093350943EC59E061E081E630
S113292090E00E9416208091C30981111CC08BE0A5
S1132930E8EFF9E0DF011D928A95E9F783E3E5EC1E
S1132940F9E0DF011D928A95E9F748EF59E06AE062
S11329508CE690E00E94162045EC59E062E387E79C
S113296090E00C9416208091350988608093350995
S113297044EC59E061E080E091E00E9416208091EF
S1132980C4098F3FA1F61092C40944EC59E061E0F8
S113299080E091E00E942B20CACFCF93DF93CDB784
S11329A0DEB767970FB6F894DEBF0FBECDBF21E048
S11329B02F8B28E12E8B6A877B878C879D8780915C
S11329C0C1099091C2099A8389838091F60A8B8305
S11329D08091F70A8C838091F80A8F832091BF0934
S11329E03091C0093E832D839091F20A923209F40A
S11329F06DC0993209F45BC0913209F44CC01E8653
S1132A001F86188A198A1A8A1B8A1C8A81E08D8B70
S1132A1044EC59E061E080E091E00E94162080914E
S1132A20C4098F3F09F4ADC09091C309891708F018
S1132A3055C09FEF980F9E3F08F0A3C025E1829FE9
S1132A40C0011124AE014F5F5F4F65E1885E9E4F68
S1132A500E942B208091C4098F5F8093C40944ECA9
S1132A6059E061E080E091E00E942B2080913509DB
S1132A7085FF94C09091C4098091C309981709F403
S1132A8098C081E067960FB6F894DEBF0FBECDBF45
S1132A90DF91CF910895482F50E0FA013197E93042
S1132AA0F105B0F1FA013197E930F10568F18330AD
S1132AB0F1F190F1843009F440C0853009F09FCFE2
S1132AC08091110A90E09987888799CF482F50E028
S1132AD0FA013197E930F10550F716C045E359E0A2
S1132AE061E082E290E00E94162080913509877FA0
S1132AF080618093350945E359E061E082E290E02A
S1132B000E942B2080E0BECFE653FF4F0C94242F6D
S1132B10ED52FF4F0C94242F8130A9F0823009F03C
S1132B206ECF80910F0A90E09987888768CF809153
S1132B30130A90E09987888762CF80910D0A90E00C
S1132B40998788875CCF8091CF0890E099878887A0
S1132B5056CF8091B80890E09987888750CF8091AC
S1132B60B60890E0998788874ACF8091B40890E0AE
S1132B709987888744CF8091B20890E099878887A5
S1132B803ECF1092C409AE014A5E5F4F62E081E01D
S1132B9091E00E942B208091C40950CF80628093E1
S1132BA0350945E359E062E082E290E00E942B207F
S1132BB061CF8091350980618093350945E359E0FF
S1132BC062E082E290E00E942B2081E05BCFCF9311
S1132BD0DF93CDB7DEB767970FB6F894DEBF0FBEAD
S1132BE0CDBF44EC59E061E080E091E00E94162002
S1132BF08091C4099FEF980F9E3FD0F081110FC0C0
S1132C00809135098F7D8F7E8093350945E359E0A6
S1132C1061E082E290E00E942B208091C4096796D3
S1132C200FB6F894DEBF0FBECDBFDF91CF910895EC
S1132C30AE014A5E5F4F62E081E091E00E9416209F
S1132C40AE014F5F5F4F65E18E899F890E94162018
S1132C50CE0101960E945E0C811103C08091C409CB
S1132C60CDCF8E899F8945969F8B8E8B8091C40989
S1132C7081508093C409AE014A5E5F4F62E081E0F7
S1132C8091E00E942B2044EC59E061E080E091E067
S1132C900E942B20E3CF81E08093B909089582E05C
S1132CA085BB80936E0016BC1092160B089515BC5C
S1132CB008958EE487BD82E084BD85E085BD0895D6
S1132CC01F920F920FB60F9211248F938091160BBF
S1132CD08F5F8093160B8F910F900FBE0F901F90F4
S1132CE018957F928F929F92AF92BF92CF92DF926C
S1132CF0EF92FF920F931F93CF93DF935C01762E95
S1132D006A01EC0109900020E9F721977E01E81A95
S1132D10F90AFA0101900020E9F731978F01041BA9
S1132D20150B862E912CE814F90480F5C401019644
S1132D300E946E2FEC01A801B601CE010E946133FE
S1132D407A94C00FD11F872D90E0E816F90698F306
S1132D50A701B501CE010E946133CE0DDF1D18829B
S1132D60C819D909A401BE01C5010E946133CE016D
S1132D70DF91CF911F910F91FF90EF90DF90CF9053
S1132D80BF90AF909F908F907F90089580E090E0E7
S1132D90EFCFCF93DF939C013695279536952795F2
S1132DA0ABE7B4E10E942D2FEC01D695C79540E81E
S1132DB061E08AE2F8D466EA8BE2DBD48AE2EBD4FF
S1132DC0807F682F62608AE2D4D46C2F8DE2D1D4E4
S1132DD06D2F8CE2CED480E090E0DF91CF91089506
S1132DE06FE081E0C6D460E485E1C3D448E060E0EC
S1132DF088E0D9D482E1CFD48870682F606882E1FA
S1132E00B8D483E1C8D48870682F606883E1B1D4F2
S1132E106DE689E1AED468E486E2ABD465E588E189
S1132E20A8D466E284E2A5D464EF87E2A2D488E859
S1132E3093E1AFDF43E061E084E1B5D440E461E0D5
S1132E408CE0B1D484E0A7D480FFFCCF61E084E0BF
S1132E5090D488E893E19DDF6AE18BE08AD460E155
S1132E6086E187D464E887E184D460E081E081D49A
S1132E7080ED97E08ECFAF92BF92CF92DF92EF9228
S1132E80FF920F931F93CF93DF93D82F7B018A0177
S1132E9062E484E06ED460E085E06BD460E88AE0AC
S1132EA068D481E078D4682F607FDC3089F181E0D8
S1132EB060D41093320500933105D03180F1B12CE8
S1132EC002E473E0C72EDD24D3944B2D60E082E04E
S1132ED06AD440E060E083E066D4602F84E049D4A3
S1132EE060E085E046D460E88AE043D461E084E0B1
S1132EF040D460E08DE03DD4C601DF91CF911F91B5
S1132F000F91FF90EF90DF90CF90BF90AF90089516
S1132F106C6081E02ED410933205009331058D2F1F
S1132F2090E0FC01EE0FFF1FE65FFA4FC080D180F6
S1132F30FC01E650FB4FB080FC01E651FB4F0081E1
S1132F40FC01E652FB4FA080C114D10409F0BDCFAF
S1132F5082E021D4682F6B2982E00BD483E01BD458
S1132F60682F83E006D4E0913105F0913205838126
S1132F70882379F0C0E0F701EC0FF11D608189E04E
S1132F80F8D3CF5FE0913105F09132059381C917F1
S1132F9090F3DC3009F48BC081E0FDD3807F682F8F
S1132FA06D2B81E0E6D30023E1F084E0F4D3182F05
S1132FB085E0F1D3C0E0D1E008C084E0ECD3182F61
S1132FC085E0E9D3219709F493C0912F9023A9F3C5
S1132FD0812F8170092F882321F0CC24C394D12C14
S1132FE074CF4B2D60E082E0DED340E060E083E00C
S1132FF0DAD3AA2009F471CFC0913105D0913205FA
S11330008AE0C9D38C838CE0C6D3E0913105F0917A
S11330103205877090E09683858386E0BCD3C82F01
S1133020882311F183FD48C081FD5EC0C0FD48C006
S1133030C4FD56C0C2FF60C0E0913105F091320575
S1133040D481D13009F45FC092E0C92ED12C3BC0A9
S1133050C7FD3FC060E086E0C114D10409F06BC035
S113306088D35CE0C52ED12CE0913105F091320576
S11330708481882309F431CFC0E05701AC0EB11C20
S113308089E089D3F5018083CF5FE0913105F09128
S113309032058481C81788F325813681232B09F4EE
S11330A01CCF882309F419CF8150848316CF40E8BC
S11330B061E08DE078D377CFF6E0CF2ED12CB6CF78
S11330C03BE0C32ED12CC7FD04C060E086E051D3A1
S11330D0CBCF60E086E04DD3EDE0CE2ED12CC4CF33
S11330E029E0C22ED12CEFCFA3E0CA2ED12C9ECF43
S11330F0812F817001236FCFC6FFAACF84E0C82E31
S11331008EE7D82EE0CF858196818B7F892B09F0BD
S11331109BCF89E040D3F7018083E0913105F091A2
S11331203205D483C7FDD5CF60E086E022D342E0E8
S1133130C42EDC2CD2CE1DD397CF0F931F93CF93E5
S1133140C82F8B0148E060E088E02DD360E88EE072
S113315010D340E860E082E126D340E860E083E1F8
S113316022D367E08DE005D31092310B1092320B1D
S11331701092330B1092350B1092370B1092360BC2
S11331801092380BC0931D0B81E08093340B80E9BF
S113319091E0FFDD41E35BE06DE17BE08CE06BDE21
S11331A0882351F0863041F0F8011082118299276A
S11331B0CF911F910F9108952091350B223031F05A
S11331C08BE090E0CF911F910F9108952091360BE1
S11331D03091370B232BA1F720911D0B30911E0B3F
S11331E0F801318320839927EDCF7F928F929F92AC
S11331F0AF92BF92CF92DF92EF92FF920F931F9301
S1133200CF93DF9300D0CDB7DEB7F82E762E8A01A8
S113321010921F0B1092200B1092210B1092220B74
S11332201092230B40E860E082E1BDD240E860E008
S113323083E1B9D260E08EE09CD284E0882E912CA8
S1133240F0E2F715E8F441E051E060E08DE04983F5
S11332505A838FD260E88EE08CD249815A81CA01A8
S11332600F900F90DF91CF911F910F91FF90EF90EE
S1133270DF90CF90BF90AF909F908F907F900895F4
S1133280272D2770E22E872D8695869586952223F5
S113329009F4A2C0DD24D394D80EF0921D0B90E261
S11332A0920FE0E18E9F900D112490931E0BF80174
S11332B0AFE1BBE02FEF2D0D30E02F5F3F4F200F2C
S11332C0311F91919D93E217F307D9F7F0E1EF9E37
S11332D0B00111246E298DE04CD21092310B109262
S11332E0320B1092330B1092350B1092370B109255
S11332F0360B1092380B82E08D0D8093340B80E1F5
S113330097E247DD41E35BE06DE17BE08CE0B3DD18
S1133310AC018630910519F0892B09F096CF2091E4
S1133320360B3091370B6091350BB62EBB0CBB0CB2
S1133330BB0CB20EBE18872D90E08B0D911D8997A2
S11333400CF055C0232B19F06F5F6093350BEE2002
S113335009F450C0AD2DB0E0FD013197E00FF11F2D
S1133360908180911D0B892B8083AA24A3946401EE
S1133370CA1ADB0A1C141D040CF046C06A2D70E046
S113338020E030E080E0635E744FFB01E20FF31F46
S11333909081200F311FF901EA0FFB1F90838F5F8B
S11333A0282F30E02C153D0584F34630510589F172
S11333B0F8019181808198278281982783818927C8
S11333C0235E344FF901EA0DF11D9081891709F448
S11333D03CCF41E055E039CFD82EF0921D0B8295B9
S11333E0807F805E80931E0BD11061CF6FCF44E04D
S11333F050E02BCFA12CAD2DB0E06401CA1ADB0A3A
S11334001C141D040CF4BACF20E030E04630510502
S113341079F67B0C15CFFF920F931F93CF93DF9315
S1133420F82EEB018A0140E861E082E1BCD140E87A
S113343061E083E1B8D1F0921D0B80E780931E0B0D
S1133440FE01AFE1BBE09E012C5F3F4F81918D9364
S1133450E217F307D9F79981888189279A81892707
S11334609B8189278093230B1092310B1092320B8E
S11334701092330B1092350B1092370B1092360BBF
S11334801092380B87E08093340B80ED97E081DC59
S113349041E35BE06DE17BE08CE0EDDC009731F42F
S11334A02091350B213041F084E090E0DF91CF9101
S11334B01F910F91FF9008952091360B3091370B97
S11334C0232B91F720911D0BF8012083EFCF9F92BE
S11334D0AF92BF92CF92DF92EF92FF920F931F931E
S11334E0CF93DF93CDB7DEB72E970FB6F894DEBF38
S11334F00FBECDBF082F6B015A01CE0101967C018E
S113350080E090E010E0002309F466C0013278F016
S113351020EE922E900E113009F472C0123009F090
S11335207BC000E227E9003261F4092D36C0113076
S113353009F459C0123009F453C0912C23E9003224
S1133540A1F3009719F12D85113009F45BC01230F5
S1133550C9F54D815E816F817885F6014683578375
S113356060877187F50120832E960FB6F894DEBF2D
S11335700FBECDBFDF91CF911F910F91FF90EF90C0
S1133580DF90CF90BF90AF909F900895A701602FD8
S1133590822F2E872ADE092D2E850097A1F6AE01F3
S11335A0435F5F4FB701822F36DF009719F42D85F3
S11335B022FFCACF1F5FF4E0EF0EF11C133009F0B5
S11335C0A2CF2D8549815A816B817C81F60140838C
S11335D0518362837383C6CF113029F0123069F4AA
S11335E0912C27E9A0CF912C2A813B814C81F601B3
S11335F020833183428325E9A2CF912C23E9A1CFF3
S113360000E2F2CF4D815E816F817885F6014383BC
S1133610548365837683A6CF092D23E9BECFCF9348
S1133620DF931092310B1092320B1092330B1092E5
S1133630340B1092350B1092370B1092360B1092FC
S1133640380B80931D0B20931E0B86E0FB01AFE12A
S1133650BBE001900D928A95E1F7FA018081918196
S1133660A281B3818093250B9093260BA093270B03
S1133670B093280B8CE08093340B80ED97E089DBCA
S113368041E35BE06DE17BE08EE0F5DBEC01892B4F
S113369021F0CE01DF91CF91089588E07CD08F7026
S11336A08830B9F3C1E0D2E0CE01DF91CF91089523
S11336B0CF93DF93EB011092310B1092320B1092E7
S11336C0330B1092350B1092370B1092360B10926D
S11336D0380B90E390931D0B80931E0B82E0809334
S11336E0340B80E197E255DB41E35BE06DE17BE085
S11336F08CE0C1DB009791F08130910539F0209185
S1133700360B3091370B24303105B1F020E1FE0146
S113371011922A95E9F7DF91CF9108952091350B05
S11337202031A9F080E1FE0111928A95E9F788E041
S113373090E0DF91CF91089580911D0B982F9F7099
S113374090931D0B8A7061F085E091E0DFCF20E15A
S1133750EDE1FBE0DE0101900D922A95E1F7DBCF6C
S113376081E092E0D3CF883011F084E0A1CF81E0F2
S11337709FCFCF93DF931F92CDB7DEB7880F719899
S11337808E77698349D06981862F46D0719A0F90CC
S1133790DF91CF910895880F8E77719880683CD01F
S11337A040D0719A08951F93CF93DF9300D0CDB783
S11337B0DEB7182F4A836983EEDF69814A8161117C
S11337C00AC0642F60956823812F0F900F90DF91BA
S11337D0CF911F91CECF682F642B812F0F900F9024
S11337E0DF91CF911F91C5CFCF93DF931F92CDB7B8
S11337F0DEB784B1876084B92398289A82E08DB9B2
S1133800719A299882E58CBD8DB589838EB589839B
S11338100F90DF91CF9108958EBD0DB407FEFDCFBB
S113382008958FEF8EBD0DB407FEFDCF8EB50895BC
S1133830F8940FB6F894A8958091600088618093FD
S11338406000109260000FBE80E090E00E947B2830
S11338500E94B42724DA78940E942D03C5DFC0DACD
S113386078940E941104CDD6FBCFEDEFF3E0DF0195
S11338701197F1F7909139019160909339019091EA
S113388039019D7F90933901ADE0B0E01197F1F7D4
S1133890909139019E7F9093390190914201907EDD
S11338A09360909342013197F1F79CE490934E0119
S11338B090914901907F97609093490181113CD385
S11338C080E40895809146018F71809334051092AD
S11338D0540C089580913305811104C080915C01DA
S11338E080933305823019F080913405089586E180
S11338F008958091B90B089595EF980F903110F0C9
S113390082E408959091390191FD1BC09091480182
S11339109F718917C1F090914801907E282F2F71D3
S1133920922B90934801909141019F71963069F0D8
S1133930993059F0909148019F71891721F083E4DF
S1133940089584E4089580E40895EDE2F1E0319768
S1133950F1F7F0CF6630E0F4882369F080914301F9
S1133960877F8093430180914301887F682B609314
S1133970430180E40895809143018860809343016A
S113398080914301887F682B6093430180E408950C
S113399082E40895809141018F710895CF93C82FD7
S11339A088EF8C0F823048F08C2F8F7E863029F080
S11339B0C93119F082E4CF9108958091390181FDD4
S11339C037C0909141019F712FEE290F2230C8F327
S11339D09230B9F39130A9F39E3199F38091330574
S11339E0882349F1823009F447C0809141018F71E5
S11339F0C81731F1C83061F1C93109F44DC0C6317D
S1133A0009F45AC02C2F2F7190914201907E922B71
S1133A10909342018830B9F083E090E00197F1F788
S1133A20809141018F71C81759F083E4CF910895B3
S1133A3084E4CF91089580915C0180933305D2CFC3
S1133A4080E4CF91089589E691E00197F1F7E8CFFA
S1133A50809139018D7F809339018DE090E0019749
S1133A60F1F780914201807E83608093420183E07C
S1133A7090E00197F1F7D4CF0E94D225882309F46E
S1133A80B4CFC63109F0B1CF809141018F71863036
S1133A90B9F226E0C6E0B8CF893011F19091420125
S1133AA0907E9960909342018631B1F0E9E6F1E0AD
S1133AB03197F1F729E1A8CF8930D9F090914201EB
S1133AC0907E996090934201893131F0E9E6F1E00A
S1133AD03197F1F726E198CF83E090E00197F1F771
S1133AE080914201807E9C2F9F71892B809342019B
S1133AF093CF80914201807E8661809342018CCF76
S1133B00CF93DF9300D000D01F92CDB7DEB7809162
S1133B1041018F718C838C81813109F43DC08C818A
S1133B208630D1F18C818130B9F18C818631A1F15B
S1133B308C81823049F08C81823131F08C818931E1
S1133B4019F08C81893001F51092540C19821B8272
S1133B501A82809142018295869587708D838D812A
S1133B60833009F477C008F07EC0823028F481E104
S1133B708983CE01019619D586E110DF80919400E6
S1133B80909195000E94E5300F900F900F900F9048
S1133B900F90DF91CF91089540917B0150E060E850
S1133BA071E08AE39BE00E943D3380917B01809326
S1133BB0390BE0917B01F0E0E75CF44F8081809366
S1133BC0B90B19821B821A8220913A0B80913B0B0C
S1133BD090E0982F8827820F911D90933B0B809340
S1133BE03A0B813628E89207D9F1B0F083362CE8F5
S1133BF0920799F1833628EC920759F08336984856
S1133C00B9F48091430B823041F18B3B91F18130C7
S1133C1079F487E189830CC0833028E0920799F016
S1133C208115904829F4BED7882311F084E1898353
S1133C30CE010196BAD40F900F900F900F900F9071
S1133C40DF91CF9108958091450C882389F385E114
S1133C508983EECF83E189838CCF88E18983E8CFA0
S1133C6080E18983E5CF853009F086CF82E18983BD
S1133C7080CF89E18983DCCF9091330591110FC006
S1133C8090915C0190933305923059F0911104C0E6
S1133C9090915C0190933305933061F008959230D4
S1133CA0D9F79091050080FB97F9909305009091C6
S1133CB03305ECCF9091040080FB95F990930400B8
S1133CC008950F931F93CF93C82F8B0187FD36C0A0
S1133CD0909141019F712FEE290F2230C8F32FEFED
S1133CE0290F2230A8F39E3199F389E157DE909190
S1133CF041019F719931C9F7F801858196819093AB
S1133D00530C8093520C4C2F50E04E5F5F4FB80120
S1133D1081E891E00E943D33CE5FC09380018091A1
S1133D203901826080933901809139018D7F8093BC
S1133D30390180E4CF911F910F91089582E4CF91CE
S1133D401F910F910895EEE6F1E0908180FB93F9C5
S1133D509083089580936201909363010895809302
S1133D606001909361010895DC01E4E6F1E08D9136
S1133D708193EC3681E0F807D1F708952091410151
S1133D8090913305911119C090915C019093330582
S1133D909330C9F0911113C090915C019093330555
S1133DA0933889F091110DC090915C019093330583
S1133DB0973049F00C94E2300895933021F0933811
S1133DC011F09730B9F72F702630A1F7382F3695B8
S1133DD079F020E080E09091460190769295969556
S1133DE09770880F880F892B2F5F2313F4CF0895C2
S1133DF080E0089508951F920F920FB60F92112438
S1133E000BB60F922F933F934F935F936F937F93D0
S1133E108F939F93AF93BF93EF93FF9353DDFF91E2
S1133E20EF91BF91AF919F918F917F916F915F912E
S1133E304F913F912F910F900BBE0F900FBE0F909B
S1133E401F9018951F920F920FB60F9211240BB664
S1133E500F922F933F934F935F936F937F938F931F
S1133E609F93AF93BF93EF93FF934ADEFF91EF913C
S1133E70BF91AF919F918F917F916F915F914F917E
S1133E803F912F910F900BBE0F900FBE0F901F907C
S1133E9018951F920F920FB60F9211240BB60F9222
S1133EA02F933F934F935F936F937F938F939F933E
S1133EB0AF93BF93EF93FF93809141018F7186314C
S1133EC009F01EDEFF91EF91BF91AF919F918F9109
S1133ED07F916F915F914F913F912F910F900BBE06
S1133EE00F900FBE0F901F9018951F920F920FB650
S1133EF00F9211240BB60F922F933F934F935F931E
S1133F006F937F938F939F93AF93BF93EF93FF939D
S1133F1006D7FF91EF91BF91AF919F918F917F91C0
S1133F206F915F914F913F912F910F900BBE0F9026
S1133F300FBE0F901F901895DF92EF92FF920F9390
S1133F401F93CF93DF9300D0CDB7DEB7D090350564
S1133F50DD2059F08D2D0F900F90DF91CF911F919F
S1133F600F91FF90EF90DF90089581E080933505E5
S1133F70E0906600F89461E0EDDCF090B10000910F
S1133F808100109180001092B10010928100109273
S1133F90800028EE33E073E066E09FEF7093B10099
S1133FA0609381001092B2001092850010928400F8
S1133FB096BB97BBB89BFECF40918400509185007F
S1133FC05A834983109281001092B10049815A8129
S1133FD04D3F5140A0F4409166004150409366002B
S1133FE021503109D9F660E081E0B4DCF092B100EF
S1133FF00093810010938000E0926600ABCF49816A
S11340005A814330524030F0409166004F5F4093F4
S11340106600E6CF60E081E09DDCF092B1000093A1
S1134020810010938000DD24D39494CFCF93DF9349
S11340301F92CDB7DEB7FC01CA013FB73983F894AC
S1134040462F50E0BF010E94A03689818FBF0F9098
S1134050DF91CF910895CF93DF931F92CDB7DEB751
S1134060FC01CA013FB73983F894462F50E0BF01E1
S11340700E94C23689818FBF0F90DF91CF9108953E
S11340801F93CF93DF93CDB7DEB728970FB6F8947D
S1134090DEBF0FBECDBF182F2FEF3FEF3093490C7B
S11340A02093480C30934B0C20934A0C1092450CEF
S11340B030934D0C20934C0C30934F0C20934E0CAA
S11340C01092500C1092540C81E08093550CCDDB6F
S11340D01093510C1F3F11F0812F0EDC81E0CCDDD9
S11340E088E05CDC87DE86E159DC4DE35CE068E077
S11340F080E090E09BDF80E026DE8FEF9FEF2FDEF5
S11341008FEF9FEF27DE80916C018F708062809328
S11341106C0180913D0C898380913E0C8A8380914F
S11341203F0C8B838091400C8C838091410C8D8358
S11341308091420C8E838091430C8F838091440C38
S11341408887CE01019610DED7D028960FB6F89452
S1134150DEBF0FBECDBFDF91CF911F910895809335
S1134160510CCACB80916206C8D69091450C81E06F
S113417089270C946C02CF93DF93EC01862FEFDF39
S1134180EBEBFBE083E698EC92838183ADE3BCE048
S11341901A968C911A9791E0980F1A969C931A97F5
S11341A083831B968D919C911C9795838483D783DD
S11341B0C6838C91808711968C9111978187129672
S11341C08C911297828713968C91139783871496F8
S11341D08C911497848715968C91159785871696DC
S11341E08C911697868717968C91878781E0808BB0
S11341F0D28BC18B82E0838B6CEB7BE083E161DD4E
S113420062EB70E284E690E0B8D580936206DF91B9
S1134210CF910895009779F0E6E3F5E005C0339671
S113422026E0E236F20739F0208131812817390778
S1134230B1F781E0089580E00895A6E3B5E0FD01BB
S113424020E030E006C02F5F3F4F3396243631051F
S113425091F04081518148175907A9F7F901EE0FF0
S1134260FF1F2E0F3F1FF901E85CFA4F80818E7FFC
S11342708D7F8083089520E030E006C02F5F3F4F9C
S1134280139624363105D9F0622F4D915C91119724
S1134290452BA1F7F901EE0FFF1F2E0F3F1FF90168
S11342A0EA5CFA4F91838083F901E85CFA4F8081DC
S11342B08E7F8D7F8083862F90E00C946502089515
S11342C0E6E3F5E020E030E006C02F5F3F4F339691
S11342D02436310581F04081518148175907A9F7E7
S11342E0F901EE0FFF1F2E0F3F1FF901EA5CFA4F91
S11342F0118210820895089508950895FC0195850A
S11343009F7795870895EBEBFBE080E090E892833C
S11343108183ADE3BCE019968C91199791E0980FD5
S113432019969C93199783831B968D919C911C9746
S1134330958384831D968D919C911E979783868384
S11343408FEF90E09187808786E0828753968C91E7
S113435083876CEB7BE08BE0B4CC6CEB7BE08091EF
S1134360BB0BAFCCEF92FF920F931F93CF93DF93CE
S1134370E0914A0CF0914B0CE817F90741F08F3F9C
S11343803FEF930721F03091450C311107C0DF91C5
S1134390CF911F910F91FF90EF900895122FE52E6A
S11343A0F42E062FEC0181E698E89093BD0B8093E0
S11343B0BC0B8091470C91E0980F9093470C80932D
S11343C0BE0B8091480C9091490C9093C00B809344
S11343D0BF0BF093C40BE093C30BD093C60BC093F5
S11343E0C50BF093C80BE093C70BCE01B3D31630C3
S11343F021F0C0914C0CD0914D0CD093C20BC093C2
S1134400C10B1093C90B002371F0AF2DBE2DEAEC44
S1134410FBE04FEF400F50E04553544F8D91819393
S1134420E417F507D9F780914A0C90914B0CC81703
S1134430D90709F4ACCF219609F4A9CF6EE0600F37
S11344406093BB0B1650123078F087E090E06DEA71
S113445071E293D481E08093540CDF91CF911F914A
S11344600F91FF90EF90089580E090E0F0CF21E06D
S113447079CF8091470B8F77833041F150F48130AD
S113448019F18230D9F48091450B9091460B0C942C
S1134490CE018430A1F0863081F48091480B909154
S11344A0490B4091410B5091420B20914C0C30919F
S11344B04D0C4217530781F0089508950895809193
S11344C0480B9091490BFCCE0C9437028091450B1C
S11344D09091460B0C94D20199270FCF0F931F9301
S11344E0CF93DF93CDB7DEB760970FB6F894DEBFF6
S11344F00FBECDBF81E698E89A8389830DE31CE063
S1134500F801828591E0980F92878B838385948547
S11345109D838C8385859685998788879D878C87DD
S113452080916506909166069B878A8780916306D1
S11345308E87D0D98F87DDD9888BF80187859089BC
S11345409F838E83BE016F5F7F4F80E1BADB6096ED
S11345500FB6F894DEBF0FBECDBFDF91CF911F9190
S11345600F91089520914A0C30914B0C2617370770
S113457021F09091450C911101C008957093660645
S11345806093650690E09093640680936306A6DFCB
S113459081E08093540C08959091560C2091570C0F
S11345A081E02913089580E00895CF93DF93EC010F
S11345B04091560C242F30E0E091570CC90101962C
S11345C06EE170E00E94EF2E6E2F70E08617970761
S11345D099F0F901EE0FFF1F2E0F3F1FF901EA5A60
S11345E0F34F88819981AA8182839383A4834F5F47
S11345F04E3128F44093560CDF91CF91089540E05A
S1134600F9CF1F93CF93DF931F92CDB7DEB711E09D
S11346109091560C8091570C981791F18091570CFA
S11346208983298130E089818F5F898389818E31F3
S113463008F0198289818093570CF901EE0FFF1F4E
S1134640E20FF31FEA5AF34FE2818E2F90E0FC0150
S11346507097EA30F105E0F6E452FF4F0C94242FF2
S113466080913B0B8C3809F45CC08091450C882305
S113467079F2BED09091560C8091570C9813CECFFE
S11346800F90DF91CF911F9108958091450C88235D
S113469009F4BECF37D1BCCF2F5F3F4FF901EE0FE6
S11346A0FF1F2E0F3F1FF901EA5AF34F0190F081CB
S11346B0E02D0995ADCF8091450C882309F4A8CF4E
S11346C063E871E281E090E058D3A2CF8091450C79
S11346D081119ECF6AD29CCF0E94E90199CF0E949A
S11346E0EA0196CF0E94DA0193CF8091450C88238A
S11346F009F48ECF8AE39BE001DE2091430B3091D5
S1134700440B80914A0C90914B0C2817390719F1EE
S1134710B0D17ECF8091450C882309F479CF1DD088
S113472077CF80913A0B833609F09FCF1093450CD5
S11347308091470B9091480B90934D0C80934C0CB7
S113474080914A0B90914B0B90934B0C80934A0CA5
S113475006DB08DD5DCF8DDE5BCF8091390B92E8FF
S1134760E9E3FBE0ABEBBBE001900D929A95E1F736
S11347709091450C9923D9F18C508695E82FF0E05F
S1134780EE0FFF1FEC53F44F2081318130934F0C17
S113479020934E0C823058F1815023E638E8309350
S11347A0BD0B2093BC0B9091470C21E0290F209363
S11347B0470C9093BE0B90E0FC01EE0FFF1FEA53F1
S11347C0F44F208131813093C20B2093C10B20918F
S11347D04A0C30914B0C3093C40B2093C30B9BEBCE
S11347E09093C50B8B5F6CEB7BE0880F6ACA0895CE
S11347F08091450C8823D9F12091440B3091450BCD
S113480080914A0C90914B0C2817390789F122E8C2
S1134810E9E3FBE0ABEBBBE001900D922A95E1F7F5
S11348202091470C31E0320F3093470C2093BE0B9C
S113483020914E0C30914F0C3093C20B2093C10B3E
S11348409093C40B8093C30B8091C60B9091C70BBC
S1134850E1DC882341F08091C60B9091C70B9093C3
S1134860C20B8093C10B6CEB7BE086E12ACA0895EE
S113487083E69CE89093BC0B8093BB0B8091470C20
S113488091E0980F9093470C8093BD0B8091480C56
S11348909091490C9093BF0B8093BE0B8091460B73
S11348A08093C00B8091470B8093C10B8091480B80
S11348B08093C20B8091490B8093C30B80914A0B68
S11348C08093C40B80914B0B8093C50B80914C0B50
S11348D08093C60B80914D0B8093C70B3093C90B0B
S11348E02093C80B82E08093CA0B80914E0B909169
S11348F04F0B9093CC0B8093CB0B9FDC6BEB7BE04B
S113490082E1DFC9CF93DF93CDB7DEB765970FB6EA
S1134910F894DEBF0FBECDBF80913B0B883C09F4F9
S113492062C083E698E89093BC0B8093BB0B8091A4
S1134930470C91E0980F9093470C8093BD0B8091A6
S1134940480C9091490C9093BF0B8093BE0B8091BF
S11349504C0C90914D0C9093C10B8093C00B8091A3
S11349604A0C90914B0C9093C30B8093C20B81E043
S11349708093C40B8091440B9091450B9093C60B8C
S11349808093C50B8091460B8093C70B8091470B96
S11349908093C80B8091480B8093C90B8091490B7D
S11349A08093CA0B80914A0B8093CB0B80914B0B65
S11349B08093CC0B80914C0B8093CD0B80914D0B4D
S11349C08093CE0B80914E0B8093CF0B6BEB7BE0EF
S11349D085E177D965960FB6F894DEBF0FBECDBFDB
S11349E0DF91CF91089583E698E89A838983809133
S11349F0470C91E0980F9093470C8B838091480C5F
S1134A009091490C9D838C8380914C0C90914D0C1A
S1134A109F838E8380914A0C90914B0C9987888751
S1134A2081E08A8780914A0B90914B0B9C878B87FE
S1134A308091410B8D878091420B8E878091430B2F
S1134A408F878091440B888B8091450B898B809153
S1134A50460B8A8B8091470B8B8B8091480B8C8BF8
S1134A6080914C0B8D8BBE016F5F7F4F85E129D9FF
S1134A70B1CF82E8E9E3FBE0ABEBBBE001900D9240
S1134A808A95E1F7A09A65EA71E08AE090E075D131
S1134A908091C50B9091C60BBDDB882301F18091F9
S1134AA0470C91E0980F9093470C8093BE0B809134
S1134AB0C50B9091C60B9093C20B8093C10B2091B0
S1134AC04A0C30914B0C3093C40B2093C30B0196CA
S1134AD039F18091BB0B6CEB7BE08250F2C8809182
S1134AE04C0C90914D0C2091C30B3091C40B2817A2
S1134AF03907B9F02091470C31E0320F3093470C5D
S1134B002093BE0B9093C20B8093C10B20914A0C4F
S1134B1030914B0C3093C40B2093C30B0196C9F610
S1134B2008958091470C91E0980F9093470C8093DF
S1134B30BE0B80914E0C90914F0C9093C20B8093BE
S1134B40C10B20914A0C30914B0C3093C40B209331
S1134B50C30BBDCF80E00895CF93DF93E9E3FBE07F
S1134B602091B90BC2EBDCE08181928184E0989FB3
S1134B70812D992711248883848195819A8389833F
S1134B80868197819C838B83838589878091510C4F
S1134B9081508D831E822A870E946A1C8B87DF9135
S1134BA0CF910895809167060895CF939091B90BA2
S1134BB02091410B3091420B80916706882321F0AC
S1134BC08091430B863011F0CF9108954091B90C38
S1134BD05091BA0C3093BA0C2093B90C8091BA0C52
S1134BE087FD16C08091BC0C891780F09813ECCF18
S1134BF09091BB0C8091440B891740F09813E4CF3B
S1134C00C091BD0C0E946A1CC817F0F6CF91A4CFC6
S1134C105093BA0C4093B90CD7CFCF93C1E0809195
S1134C20B70C8F3FE9F08091B30C9091B40C909342
S1134C30490C8093480C2091B50C3091B60C3093FC
S1134C404D0C20934C0C86D88091B70C88DA809157
S1134C50BB0C8F5F8093500C8C2FCF910C947502FA
S1134C60C0E08C2FCF910C9475028091510C8F3F32
S1134C7009F43DC08B31A8F5482F50E020911E0265
S1134C8030E02F5F3F4F4217530759F168DA83E052
S1134C9098E09093BD0B8093BC0B8091460C91E0FF
S1134CA0980F9093460C8093BE0B8FEF9FEF9093D9
S1134CB0C00B8093BF0B9093C20B8093C10B87E012
S1134CC08093C30B6CEB7BE088E00E94611E8091B3
S1134CD0510C8F5F8093510C65E376E284E190E0A0
S1134CE04CC0109267068FEF8093510C96CF91E0E1
S1134CF09093670696E1E2EBFCE0DF011D929A9542
S1134D00E9F78093B70C8BE08093510C80911E02DD
S1134D10803819F08093510CB9CF8BE0B7CF089548
S1134D20809168068F5F09F481E0E2EDF6E021E00E
S1134D3005C0359697E0E633F90749F09081891369
S1134D40F8CF20E0359697E0E633F907B9F7EEE6B9
S1134D50F6E005C0359696E0E23DF90749F090810A
S1134D608913F8CF20E0359696E0E23DF907B9F7CC
S1134D702223C1F2809368060895CF92DF92EF92C6
S1134D80FF920F931F93CF93DF931F92CDB7DEB79C
S1134D90009709F445C02FB72983F894A0EDB6E035
S1134DA000E010E02D913C911197232B89F00F5FC7
S1134DB01F4F159604311105A9F780E00F90DF917C
S1134DC0CF911F910F91FF90EF90DF90CF900895B6
S1134DD07801EE0CFF1CEE0CFF1CF701E00FF11F35
S1134DE0E053F94F009701F191838083C701800F4D
S1134DF0911F9C012053394F6901F9017483638326
S1134E008FDFF601828380916B06882381F089818C
S1134E108FBF0E0D1F1DF801E053F94F8281CECFD5
S1134E20FB01099580E0CACF81E090E0DDCF1092CC
S1134E3095001092940082E08093710081E0809349
S1134E406B06E5CFCF92DF92EF92FF920F931F9301
S1134E50CF93DF931F92CDB7DEB7009709F43EC01E
S1134E60ACE6B6E000E010E02D913C911197232BC5
S1134E7089F00F5F1F4F159604311105A9F780E0E3
S1134E800F90DF91CF911F910F91FF90EF90DF90E2
S1134E90CF9008957801EE0CFF1CEE0CFF1C9701D7
S1134EA0200F311FA9014459594F6A01FA01918316
S1134EB080837483638334DFF60182838FB78983AD
S1134EC0F89480916B06882369F089818FBF0E0D59
S1134ED01F1DF801E459F94F8281D2CFFB010995D6
S1134EE080E0CECF109295001092940082E08093DF
S1134EF0710081E080936B06E8CFE2EDF6E020E0FC
S1134F0030E090819817A1F02F5F3F4F3596243100
S1134F103105B9F7EEE6F6E020E030E0908198172D
S1134F20A9F02F5F3F4F359624313105B9F7089525
S1134F30F901EE0FFF1FEE0FFF1F2E0F3F1FF901A8
S1134F40E053F94F1182108212820895F901EE0F95
S1134F50FF1FEE0FFF1F2E0F3F1FF901E459F94FFA
S1134F601182108212820895E1E9F0E080818A6062
S1134F70808380ED97E090939900809398008091CE
S1134F809400909195000C94E5301F920F920FB607
S1134F900F9211240BB60F92FF920F931F932F932E
S1134FA03F934F935F936F937F938F939F93AF93AD
S1134FB0BF93EF93FF93CF93DF9300D01F92CDB7AE
S1134FC0DEB78091690690916A06019690936A060D
S1134FD08093690680911F0290912002019709F441
S1134FE042C09093200280931F0200ED16E096E1E8
S1134FF0F92E06C00B5F1F4FF7E004331F07C1F003
S1135000F801808191810097A9F3019791838083AE
S1135010892B81F7F982838194819B838A83CE01D2
S11350200196C3DA0B5F1F4FF7E004331F0741F704
S11350300F900F900F90DF91CF91FF91EF91BF915F
S1135040AF919F918F917F916F915F914F913F911C
S11350502F911F910F91FF900F900BBE0F900FBED9
S11350600F901F90189584EF91E090932002809305
S11350701F020CE616E086E1F82E07C00B5F1F4FF7
S1135080F6E0003D1F0709F4B0CFF801808191815B
S11350900097A1F3019791838083892B79F7F98293
S11350A0838194819B838A83CE0101967EDAE6CF45
S11350B01F920F920FB60F9211248F9382E0809368
S11350C035078F910F900FBE0F901F9018951F9268
S11350D00F920FB60F9211248F9381E080933407BF
S11350E08F910F900FBE0F901F901895EAE3F7E091
S11350F0118210820895EAE3F7E011821082ECEB4A
S1135100F7E01182108228E92093C90026E0209359
S1135110CA001092CD0027E62093CC009093390763
S113512080933807089590913607911137C0789489
S11351302091BC072F5F27FD32C03091370702C092
S113514031110CC09091BD079217D1F3E091BC07C7
S1135150F0E0E454F84F82832093BC078091C900A7
S113516085FD1CC08091C80085FFFCCF8091BD07E0
S1135170E82FF0E0E454F84F92812091BC078217A5
S113518091F08F5F87FD0DC08093BD07892F8093B9
S1135190CE008091C90080628093C900089520E008
S11351A0CCCF80E0F1CF8FEFF2CF80913A0790E03F
S11351B020913B07821B910997FF089580589F4FC8
S11351C0089580913A0790E020913B07821B910952
S11351D097FD13C08823A9F390913B07E92FF0E0D2
S11351E0E65CF84F828120913A07921759F09F5F4D
S11351F097FD06C090933B07089580589F4FEACFD0
S113520090E0F8CF8FEF08951F920F920FB60F9290
S113521011240BB60F922F933F934F935F936F9389
S11352207F938F939F93AF93BF93EF93FF9380915B
S1135230CE0091E09093370790913A079F5F97FDD6
S113524028C020913B07291741F0E0913A07F0E08C
S1135250E65CF84F828390933A0710923707E09107
S11352603807F0913907309709F00995FF91EF91CC
S1135270BF91AF919F918F917F916F915F914F916A
S11352803F912F910F900BBE0F900FBE0F901F9068
S1135290189590E0D6CF1F920F920FB60F9211245B
S11352A00BB60F922F938F939F93EF93FF9390914D
S11352B0BC078091BD079817F9F08091BD07E82FCE
S11352C0F0E0E454F84F92812091BC078217E1F09A
S11352D08F5F87FD17C08093BD07892F8093CE0011
S11352E0FF91EF919F918F912F910F900BBE0F9093
S11352F00FBE0F901F9018958091C9008F7D8093E9
S1135300C900EECF80E0E7CF8FEFE8CF982F80ED94
S1135310890F8A3060F08FEB890F863048F08FE96F
S1135320890F863018F489EA890F089580E008957A
S113533089EC890F08959F92AF92BF92CF92DF922A
S1135340EF92FF920F931F93CF93DF936C017B0136
S1135350FC0101900020E9F731975F01A81AB90A0E
S11353609A2CAA20A9F0C0E086010C0F111DF801A7
S11353708081CCDFD82FF8018181C8DFF0E1DF9F85
S1135380800D1124F70181937F01CE5FC91560F36D
S11353908A2D8695DF91CF911F910F91FF90EF9009
S11353A0DF90CF90BF90AF909F9008952F923F923F
S11353B04F925F926F927F928F929F92AF92BF9221
S11353C0CF92DF92EF92FF920F931F93CF93DF93CD
S11353D0CDB7DEB763970FB6F894DEBF0FBECDBF6F
S11353E06C014B012A01FC0117821682838181FF23
S11353F033C3AE014F5F5F4F3A01F6019381F4016D
S113540093FD859193FF81914F01882309F420C373
S1135410853239F493FD859193FF81914F01853253
S113542039F4B60190E00E94BE3352012501E5CF64
S113543010E0F12C20E02032A0F48B3269F030F43B
S1135440803259F0833269F420612CC08D3239F0F6
S1135450803339F4216026C02260246023C0286090
S113546021C027FD27C030ED380F3A3078F426FFED
S113547006C0FAE01F9F300D1124132F13C04AE019
S1135480F49E300D1124F32E20620CC08E3221F4D0
S113549026FDDEC2206406C08C3611F4206802C0EA
S11354A0883641F4F40193FD859193FF81914F0176
S11354B08111C1CF9BEB980F933018F42061805E6B
S11354C006C09BE9980F933008F06DC12F7E26FF2C
S11354D016E02F73322E853619F42064322E08C05C
S11354E0863621F4F22FF0683F2E02C011111150BC
S11354F037FE07C01C3350F4EE24E394E10E27E09A
S11355000BC0183038F027E017E005C027E04CE363
S1135510E42E02C0212FE12C520144E0A40EB11C60
S1135520F20160817181828193810E2DA301ADD737
S11355302C01098100FF02C003FF07C031FC08C031
S113554032FE09C030E2232E07C02DE2222E04C011
S11355509BE2292E01C0212C802F8C7019F0211080
S11355605AC296C237FE0FC0E40C04FF04C08A81FD
S1135570813309F4EA941E1474F5F8E0FE1578F505
S113558088E0E82E2CC036FC2AC0812F90E08415D8
S113559095059CF02CEF42162FEF520674F0432D24
S11355A04068342E0AC0E2E0F0E0EC0FFD1FE10F8A
S11355B0F11D8081803319F411501111F4CF37FE9D
S11355C00EC0EE24E394E10E812F90E048165906B4
S11355D02CF4141904C0EE24E39401C010E037FE47
S11355E006C01414150434F4C201019605C085E004
S11355F090E002C081E090E021100196112331F087
S1135600212F30E02F5F3F4F820F931F2F2D30E06B
S11356108217930714F4F81A01C0F12C832D8970B2
S113562049F4FF2039F0B60180E290E00E94BE33D5
S1135630FA94F7CF222029F0B601822D90E00E943F
S1135640BE3333FC09C0FF2039F0B60180E390E09B
S11356500E94BE33FA94F7CF37FE5AC0942D852D9D
S113566057FE02C090E080E0292E382E20E030E082
S1135670A2014E1951095D874C87A20142195309B1
S11356805F874E87612F70E044275527461B570BD1
S1135690598B488B5FEF2516350649F4B6018EE227
S11356A090E02A8B3B8B0E94BE333B892A894214AB
S11356B053046CF04C855D854215530544F4EE8526
S11356C0FF85E20FF31FE60DF71D818101C080E322
S11356D051E0251A31082F5F3F4F48895989241614
S11356E035064CF0B60190E02A8B3B8B0E94BE330A
S11356F02A893B89CFCF2414350439F49A8196330F
S113570018F4953311F404FF81E3B60190E049C025
S11357108A81813309F00F7EB60190E00E94BE3386
S1135720111105C034FC18C085E690E017C0B6011D
S11357308EE290E00E94BE3382E0EE24E394E80E11
S1135740F301E80FF11D8081B60190E00E94BE33A1
S113575011508E2D91F7E6CF85E490E0B6010E94BA
S1135760BE3357FC05C04114510439F404FF05C08D
S11357705194419451088DE201C08BE2B60190E04E
S1135780FDD780E39AE0491651042CF08F5F5AE06C
S1135790451A5108F7CFB60190E0F0D7B601C2011F
S11357A0C096ECD74CC1833631F0833779F083351A
S11357B009F054C020C05201E2E0AE0EB11CF20167
S11357C08081898301E010E0230113C05201F2E0DB
S11357D0AF0EB11CF2014080518026FF03C0612F3F
S11357E070E002C06FEF7FEFC2012A8B79D78C0182
S11357F02A892F7714C05201F2E0AF0EB11CF201D6
S11358004080518026FF03C0612F70E002C06FEF1B
S11358107FEFC2012A8B19D78C012A892068322E86
S113582023FD18C08F2D90E00817190798F4B601CE
S113583080E290E0A3D7FA94F5CFF20137FC85918A
S113584037FE81912F01B60190E098D7F110FA94B8
S1135850015011090115110581F7F1C0843611F0C9
S1135860893651F5520127FF09C0F4E0AF0EB11C8F
S1135870F20160817181828193810AC0F2E0AF0EEE
S1135880B11CF20160817181072E000C880B990B09
S11358902F76322E97FF09C090958095709561956B
S11358A07F4F8F4F9F4F2068322E2AE030E0A301B4
S11358B0CDD7E82EE6183EC0022F853721F40F7E9F
S11358C02AE030E01DC0097F8F3691F018F4883546
S11358D059F0BEC0803719F0883711F0B9C00061A3
S11358E004FF09C0046007C024FF08C0066006C0A6
S11358F028E030E005C020E130E002C020E132E0E1
S1135900520107FF09C0F4E0AF0EB11CF20160813F
S113591071818281938108C0F2E0AF0EB11CF20163
S11359206081718180E090E0A30190D7E82EE618B1
S11359300F77302E36FE0BC0332D3E7FE11650F428
S113594034FE0AC032FC08C0332D3E7E05C00E2D45
S1135950332D03C00E2D01C0012F34FF0CC0FE01F6
S1135960EE0DF11D8081803311F4397E08C032FFC1
S113597005C00E5F04C0832F867809F00F5F33FDE6
S113598012C030FF06C01E2D0F1518F41F0D101B7A
S11359900F2D0F1560F4B60180E290E03B8BEED63C
S11359A00F5F3B89F6CF0F1510F4F01A01C0F12CEC
S11359B034FF11C0B60180E390E03B8BDFD63B8916
S11359C032FF16C031FD03C088E790E002C088E5CD
S11359D090E0B6010CC0832F867851F031FF02C0ED
S11359E08BE201C080E237FD8DE2B60190E0C6D6BD
S11359F0E11630F4B60180E390E0C0D61150F8CF40
S1135A00EA94F301EE0DF11D8081B60190E0B6D663
S1135A10E110F6CF14C0F4E0FF1548F584E0F81A5D
S1135A2033FE1DC0211024C003FF27C00CEC11E07D
S1135A30F32DF0713F2EF8018491811121C0FF20D4
S1135A4009F4F4CCB60180E290E098D6FA94F7CF4A
S1135A50F6018681978123C08FEF9FEF20C0B601A6
S1135A6080E290E08BD6FA94F110F9CFDBCFF12CE1
S1135A70B601822D90E082D6D7CF00ED11E0D8CFC9
S1135A8031108052B60190E079D60F5F1F4FD3CF0B
S1135A9023E02F1510F483E0C2CFF12CC5CF639619
S1135AA00FB6F894DEBF0FBECDBFDF91CF911F912B
S1135AB00F91FF90EF90DF90CF90BF90AF909F90A9
S1135AC08F907F906F905F904F903F902F900895AC
S1135AD05058BB27AA270ED048C139D130F03ED147
S1135AE020F031F49F3F11F41EF42EC10EF4E09522
S1135AF0E7FB24C1E92F4AD180F3BA176207730781
S1135B008407950718F071F49EF562C10EF4E095D0
S1135B100B2EBA2FA02D0B01B90190010C01CA0163
S1135B20A0011124FF27591B99F0593F50F4503E0E
S1135B3068F11A16F040A22F232F342F4427585F00
S1135B40F3CF469537952795A795F0405395C9F718
S1135B507EF41F16BA0B620B730B840BBAF09150D0
S1135B60A1F0FF0FBB1F661F771F881FC2F70EC06F
S1135B70BA0F621F731F841F48F487957795679542
S1135B80B795F7959E3F08F0B3CF9395880F08F02B
S1135B909927EE0F9795879508950CD0E6C0DED02F
S1135BA040F0D5D030F021F45F3F19F0C7C0511157
S1135BB010C1CAC0EBD098F39923C9F35523B1F3AC
S1135BC0951B550BBB27AA2762177307840738F068
S1135BD09F5F5F4F220F331F441FAA1FA9F333D0C7
S1135BE00E2E3AF0E0E830D091505040E695001C7B
S1135BF0CAF729D0FE2F27D0660F771F881FBB1F37
S1135C00261737074807AB07B0E809F0BB0B802D10
S1135C10BF01FF2793585F4F2AF09E3F510568F05C
S1135C208DC0D7C05F3FECF3983EDCF38695779543
S1135C306795B795F7959F5FC9F7880F911D96955E
S1135C40879597F90895E1E0660F771F881FBB1FBA
S1135C50621773078407BA0720F0621B730B840B67
S1135C60BA0BEE1F88F7E095089598D088F09F57F7
S1135C7090F0B92F9927B751A0F0D1F0660F771F94
S1135C80881F991F1AF0BA95C9F712C0B13081F074
S1135C909FD0B1E008959CC0672F782F8827B85F04
S1135CA039F0B93FCCF3869577956795B395D9F7D5
S1135CB03EF490958095709561957F4F8F4F9F4FDF
S1135CC00895E89409C097FB3EF4909580957095EB
S1135CD061957F4F8F4F9F4F9923A9F0F92F96E934
