:100000000C9485010C94A4010C94A4010C94A401FB
:100010000C94A4010C94A4010C94A4010C94A401CC
:100020000C94A4010C94A4010C94A4010C94A401BC
:100030000C942F290C94A4010C94A4010C94A401F9
:100040000C94A4010C94A4010C94A4010C94A4019C
:100050000C94A4010C9478160C94A4010C94A401A3
:100060000C94A4010C94A4010C94A4010C94A4017C
:100070000C94A4010C94A4010C94A4010C94A4016C
:100080000C948B280C94A4010C94A4010C942029AA
:100090000C94CC290C94132A0C94A4010C94A40164
:1000A0000C94A4010C94A4010C94A4010C94A4013C
:1000B0000C94A4010C94A4010C94A4010C94A4012C
:1000C0000C94A4010C94A4010C94A4010C94A4011C
:1000D0000C94A4010C94A4010C94A4010C94A4010C
:1000E0000C94A4010C94A4010C94A4010C94821F00
:1000F0000C94AA1F0C94FF1F0C94A4010C94D21F03
:100100000C94A4010C94A4010C94A4010C94A401DB
:100110000C94A4010C94A4010C94A4010C94A401CB
:10012000DD04E5043E043E043E043E041B05D00508
:100130003E04E4053E04FC053E043E046506C4049A
:100140003E043E04DA06EC063E043E045207550423
:100150003E04D9043E043E043E043E041B05CC0686
:100160003E043E043E043E043E043E04C404CF0666
:10017000E810E110DA10D310CC10C510BE107F10BB
:10018000EF10B010A910A2109B1094108D108610C3
:100190007810B710BB15A915AF15B5157815D3157F
:1001A000CD15C715C115BB15A915AF15B515781512
:1001B000D315CD15C715C115232420241D241A24B9
:1001C00013240724F823F023DA233A246E616E0007
:1001D000696E660000407A10F35A00A0724E18094A
:1001E0000010A5D4E80000E87648170000E40B549E
:1001F000020000CA9A3B000000E1F505000080966D
:100200009800000040420F000000A086010000009E
:10021000102700000000E803000000006400000058
:1002200000000A00000000000100000000002C7621
:10023000D888DC674F0823DFC1DFAE59E1B1B7963C
:10024000E5E3E453C63AE651997696E8E6C2842699
:10025000EB898C9B62ED407C6FFCEFBC9C9F40F275
:10026000BAA56FA5F490055A2AF75C936B6CF967F1
:100270006DC11BFCE0E40D47FEF520E6B500D0EDB6
:10028000902E0300943577050080841E080000201E
:100290004E0A000000C80C333333330F986E1283BC
:1002A0001141EF8D2114893BE65516CFFEE6DB1890
:1002B000D1844B381BF77C1D901DA4BBE424203255
:1002C00084725E228100C9F124ECA1E53D274E41F4
:1002D0004E494E495459494E46CDCCCC3D0AD723C0
:1002E0003C17B7D13877CC2B329595E6241FB14F08
:1002F0000A000020410000C84200401C4620BCBE4D
:100300004CCA1B0E5AAEC59D740011241FBEC0E01E
:10031000D0E4DEBFCDBF15E0A0E0B2E0E2E6F0E75A
:1003200000E00BBF02C007900D92AA32B107D9F7C7
:100330002CE0AAE2B5E001C01D92AD3CB207E1F7A6
:100340000E94951C0C942F380C940000A0980895DE
:10035000A198089581E080932D05089581E0809310
:100360002F05E4E3F9E080818F7B8083089581E0AD
:1003700080932E05089581E080930C02089581E01A
:100380008093B90908958FEF0E94CE200C94F62631
:10039000E1EBFCE06581838194810C945721BC01E1
:1003A00083E00C945B230E94EC1C882319F081E00D
:1003B0008093440C08952091510C3091520C8091FF
:1003C0004B0C90914C0C2817390709F008951092A6
:1003D0002C05089508950E94902681111AC08091DD
:1003E000510C9091520C20914B0C30914C0C821777
:1003F000930781F020912C052F5F20932C050E94FC
:10040000A921882331F08091510C9091520C0C94C9
:10041000FF21089540E050E060E00E94DA228091E0
:100420002C058F5F80932C051092440C88E00E946D
:10043000451F282F30E02E5C3F4F4EE1429FC00108
:10044000439F900D112463EC71E088519C4F0E94F2
:1004500081278091510C9091520CD1CF8091380B13
:1004600010920F0B882329F08091460B8F778130F3
:1004700009F008952091470B20932B05E6E3F9E05E
:1004800080E8DF011D928A95E9F7222369F0E8E40C
:10049000FBE0A6E3B9E0215030E0275B344F8191C7
:1004A0008D93E217F307D9F786E399E00E94190AC2
:1004B0008093B709109233090895A19A68EA71E010
:1004C0008AE090E00C94812781110895A19A68EA4E
:1004D00071E08AE090E00C948127811106C063EC02
:1004E00071E088EE93E00C94812768EC71E08EE176
:1004F00090E00C9481278F929F92AF92BF92CF92FF
:10050000DF92EF92FF920F931F93CF93DF93CDB7BC
:10051000DEB761970FB6F894DEBF0FBECDBF87E0A0
:10052000898BAE01475F5F4F68E080E090E00E94FA
:10053000A42089849A84AB84BC84CD84DE84EF8437
:10054000F8888FEF88169806A806B80699F0619685
:100550000FB6F894DEBF0FBECDBFDF91CF911F91D4
:100560000F91FF90EF90DF90CF90BF90AF909F9052
:100570008F9008959401A501B601C70100E20E9481
:10058000313069017A012F3F3F4F4F4F5F4F610577
:1005900071058105910571F0CD28CE28CF28B9F2DB
:1005A000AE014F5E5F4F62E082E290E00E94B920B0
:1005B0000000CDCFCE0101966C0188E0F6011192CA
:1005C0008A95E9F780E00E94B61C86E00E94501DE3
:1005D000760110E00FEF08C0F70100831F5FFFEF07
:1005E000EF1AFF0A1830C1F01430B0F30E944C1D0E
:1005F0008F7E863099F7F701908124E08091460143
:100600008076829586958770990F990F982BF701C0
:100610009083215099F7E2CFA60168E080E090E056
:100620000E94B920AE014F5E5F4F62E082E290E02F
:100630000E94B92060E08CE690E00E94C33760E041
:1006400087E790E00E94C33782CF0F931F93CF9329
:10065000DF931F92CDB7DEB783B3876083BB84B3CC
:10066000887F84BB84B3876084BB6B9A739884B3A0
:10067000887F84BBA09A83E18093B70966EA71E022
:1006800089E190E00E94812781E08093B9090E946E
:100690007B020E94761463E676E188E293E20E9490
:1006A0008127082F10E09091B809911111C0909105
:1006B000B909913099F1923009F459C00E9476231A
:1006C000882389F30E94AB239091B809992379F389
:1006D0006FEB71E08CE291E00E948127AE014F5FE9
:1006E0005F4F61E08EE190E00E94A42089818F3FFE
:1006F000F9F09091F50A89131FC08FEF0E94CE2068
:100700000E94F6268091B909823009F446C00000A3
:100710000F90DF91CF911F910F9108950E94A61223
:100720006FEB71E08CE291E00E948127182FBBCF24
:100730008091F50A811122C045EF5AE061E08EE117
:1007400090E00E94B92046EF5AE061E08FE190E02E
:100750000E94B9208091340982608093340944E377
:1007600059E061E082E290E00E94B920C6CF802F7C
:100770000E944328812F0E944328AACF45EF5AE0C8
:1007800061E08EE190E00E94B92046EF5AE061E01E
:100790008FE190E00E94B920B0CF0E94480D809177
:1007A000340981FDB4CF0E94DD12B1CFEF92FF92E8
:1007B0000F931F93CF93DF937A01FB0101900020E9
:1007C000E9F73197EF01C61BD70B0E9479340097E8
:1007D000F1F08C010C0F111DB701C8010E94793492
:1007E0000097A9F0EC01C01BD10BAE01B8018EE35C
:1007F00098E00E943B34C25CD74F18828EE398E0A9
:10080000DF91CF911F910F91FF90EF90089580E0BD
:1008100090E0F6CF8F929F92AF92BF92CF92DF92ED
:10082000EF92FF920F931F93CF93DF93CDB7DEB775
:10083000E5970FB6F894DEBF0FBECDBF10920F0B39
:100840008E01015E1F4F8AE0D8011D928A95E9F75B
:100850008091B909813009F49BC08091440C8111C9
:1008600004C09091340993FF09C0E091B7094E2F5D
:1008700050E0FA013197E832F10598F0E5960FB6AD
:10088000F894DEBF0FBECDBFDF91CF911F910F91C6
:10089000FF90EF90DF90CF90BF90AF909F908F90A0
:1008A0000895E057FF4F0C94173082E00E946B12BE
:1008B000882321F36091160B7091170B8091180B10
:1008C0009091190B0E94660D0091150A10E0102FEF
:1008D00000278091140A080F111DB801012E000C89
:1008E000880B990B0E94552F9B01AC016093160B4E
:1008F0007093170B8093180B9093190B60912A0932
:1009000070912B0980912C0990912D096A877B8722
:100910008C879D8719870887E091C009F091C109EC
:10092000FA83E983E091BE09F091BF09FE83ED836C
:10093000E091F10AEB83E091F20AEC83E091440C40
:10094000E11104C0E0913409E3FD5AC31D8A80918E
:10095000300990913109BC0180E090E02AAB3BABBB
:100960004CAB5DAB0E94532F2AA93BA94CA95DA9B2
:100970000E94452E0E94242F709331096093300904
:10098000CE0101960E94670C82E08093B70976CF72
:100990000E94D5126FEB71E08CE291E00E948127FA
:1009A0008091B909823009F480C286E00E94BC0DB2
:1009B00054CF87E28093B70961CF0E94C312882386
:1009C00019F380E18093B70959CF80910A02909181
:1009D0000B028035910508F090C2019690930B02AE
:1009E00080930A02BE016F5F7F4F82E50E94F71875
:1009F000892B09F043CF86E0E1E2F2E0DE0199962F
:100A000001900D928A95E1F7AE014F5C5F4FBE01F8
:100A10006F5F7F4F80E00E94D41A892B09F02ECFA0
:100A200089A9883009F423C3109229098CE08093A6
:100A3000B709A09823CF90913609992309F44BC2A6
:100A4000809134098F7B8093340982E08093B709C9
:100A50006EE472E086E399E00E947934009709F42D
:100A6000B9C24AE050E060E070E004960E94E831CC
:100A700060932A0970932B0980932C0990932D0978
:100A800063E572E086E399E00E9479348C017C0191
:100A9000B9E0EB0EF11C6EE270E0C7010E94443435
:100AA000D82EDE18C7010E942033E1E0ED1508F0D2
:100AB000D7C2A2E0DA1609F491C286E0E3E6F2E0DA
:100AC000D70101900D928A95E1F7D80119966C91A2
:100AD000199770E0605371091A96EC911A97F0E03B
:100AE000F0971C964C911C9750E0405351091D966D
:100AF0008C91A82FB0E088EE93E0689F8001699FF9
:100B0000100D789F100D112424E62E9FC0012F9FF9
:100B1000900D1124080F191FCA01880F991F9A01FF
:100B2000220F331F220F331F220F331F820F931FF9
:100B3000800F911F8A0F9B1FC0979093310980935C
:100B40003009A352BE4F435F5D4FE35FFD4FCB01C2
:100B5000835F9D4F2AE0C22EE12C00E02C91DA0148
:100B60004C916081FC0180810E941A0DFFEF21EE03
:100B700084E0F15020408040E1F700C00000809107
:100B8000FA0A813009F45AC2883009F077CE809190
:100B9000F50A893209F072CE88E18093B7096ECEEA
:100BA0009FEFA7EAB1E69150A040B040E1F700C046
:100BB00000008091F90A813009F4CFC180912E059F
:100BC000813009F05BCEE0CE80910C02882309F4DD
:100BD00055CE0E94D5126FEB71E08CE291E00E943D
:100BE00081270E94520910920C026BEB71E088E79A
:100BF00090E00E94E72742CEB801809129090E9427
:100C0000271C892B09F0C0CE4EE352E069E0C801F1
:100C10000E9489164AE050E060E070E0C8010E943E
:100C2000E83160932A0970932B0980932C099093E3
:100C30002D098091440C811199C18091340983FF61
:100C400088C184FD86C1E0E0F0E0808190E0C0973B
:100C500028EE33E0829FA001839F500D929F500D9C
:100C60001124818190E0C09764E6689F9001699F9C
:100C7000300D1124420F531F238130E0C901C0976A
:100C8000BC01660F771F9C01220F331F220F331FF9
:100C9000220F331FCB01820F931F840F951F2481D6
:100CA000820F911DC09790933109809330098091F4
:100CB000FA0A813009F4EDC110922F056EEA71E055
:100CC0008CE390E00E94E727D9CD81E00E946B126F
:100CD000882309F4D3CD0091010B10E0102F0027D9
:100CE0008091000B080F111DB801012E000C880B1C
:100CF000990B0E94552F9B01AC016093160B7093CA
:100D0000170B8093180B9093190B60912A0970911F
:100D10002B0980912C0990912D096A877B878C87FC
:100D20009D8719870887E091C009F091C109FA836E
:100D3000E983E091BE09F091BF09FE83ED83E09164
:100D4000F10AEB83E091F20AEC83E091440CE111AB
:100D500004C0E0913409E3FD04C11D8A809130098B
:100D600090913109BC0180E090E02AAB3BAB4CABE9
:100D70005DAB0E94532F2AA93BA94CA95DA90E94F3
:100D8000452E0E94242F7093310960933009CE01C3
:100D900001960E94670C15CE0E9425036FCD8091AD
:100DA000030A80FF6BCD8E7F8093030A87E28093D6
:100DB000B70964CD9091340993FFA5C091FFADC0F0
:100DC0008091F50A882309F459CD81E080930C02C3
:100DD0008AE08093B70952CD49E652E06BE672E0B3
:100DE00086E399E00E94D6036C01009709F44AC09B
:100DF000FC0101900020E9F731978E2E881A4AE213
:100E000055E061E087E590E00E94A420AE01475DD7
:100E10005F4F60912A0588E590E00E94A420882019
:100E200009F4F3C000E010E0CE0101965C01760108
:100E3000E10EF11CD7018C910E944E2A982EF701E9
:100E400081810E944E2AF501E00FF11D20E1929E62
:100E5000800D112480831E5F0F5F181540F34091B1
:100E60002A0550E0B501CE0189960E942E34892BC7
:100E700009F068C0809134098B7F8093340983E145
:100E80008093B70980912D05882309F4F7CC10923F
:100E90002D050E947B096AEA71E08CE390E00E94D4
:100EA000E727ECCC0E94F10CE9CCEFE1FEE43197AE
:100EB000F1F700C000009091340991FD77CD809149
:100EC000440C81112EC093FD2CC083E00E94BC0D08
:100ED0008091440CC4CC90912F05913011F0811178
:100EE000CDCC809134098F7B8093340981E00E94BE
:100EF000BC0D87E28093B709C1CC909A10920B0287
:100F000010920A026FCD91FD5BCF90FF04C08091DB
:100F1000F50A81115ACF92FD7CC081E08093B70918
:100F2000ADCC94FDD2CF96FF9ACC8091B709873093
:100F300019F087E08093B70984E00E94BC0D80918E
:100F4000440C8DCC8AE08093B70981E080930C0239
:100F500099CF82E08093B709AFCE8FE08093B70935
:100F60008DCC21E02D8B0E94E5142BCD1F930F9388
:100F700082E492E09F938F9302E31AE01F930F9312
:100F80000E94F534F80101900020E9F7BF01635396
:100F90007A406093310A6F5F60930F0B41E35AE030
:100FA00080E090E00E94DA2280E8E6E3F9E0DF01E9
:100FB0001D928A95E9F787E08093B70980913409FB
:100FC0008064809334090F900F900F900F900F90D2
:100FD0000F9072CE81E080932F0550CC9F938F931A
:100FE0007F936F938EE592E09F938F93FF92EF92A2
:100FF0000E94F5340FB6F894DEBF0FBECDBF65CDAD
:1010000021E02D8B0E94E514BFCCFE0131965F01DB
:1010100026CF10922D050E947B0980E8E6E3F9E0D7
:10102000DF011D928A95E9F76AEA71E08CE390E0AE
:101030000E94E72784E18093B70920CC0E945212D6
:1010400088E08093B70910922E050E94CA1267EBC0
:1010500071E08823C9F08EE190E00E94E7270ECC72
:101060009F938F937F936F938DE592E0BDCF809395
:10107000290920E0AE014F5F5F4FBE01675D7F4FE2
:1010800080E60E947E1BD2CC84EF91E00E948127F3
:10109000F5CB0E94521288E08093B70910922E057A
:1010A0000E94CA1267EB71E0882329F08EE190E07C
:1010B0000E94E72701CE84EF91E00E948127FCCDBA
:1010C0008091030A81608093030A08950F931F9310
:1010D000CF93DF938B01833009F4A6C040F18530B4
:1010E00009F462C008F497C0863009F072C043EC7E
:1010F00059E061E080E091E00E94A4208091C30962
:101100008F3F09F49CC090E0E80121969F938F9354
:1011100088E793E09F938F93DF93CF930E94F534FA
:101120000F900F900F900F900F900F902CC0813068
:1011300009F452C0823009F04CC0EB012196809135
:10114000F20A1F928F938091F10A1F928F938091E0
:10115000BF098F938091BE098F938091C1098F93AE
:101160008091C0098F9383EC92E09F938F93DF93DC
:10117000CF930E94F534ADB7BEB71C960FB6F89466
:10118000BEBF0FBEADBFFE0101900020E9F7EC1B12
:10119000D801EC938E2F8095881F8827881FDF91B8
:1011A000CF911F910F910895EB01219684EC99E066
:1011B0009F938F9388E593E09F938F93DF93CF93D3
:1011C0000E94F5340F900F900F900F900F900F909A
:1011D000DACFE8012196D7CFEB0121968091F20A70
:1011E0001F928F938091F10A1F928F9380E892E073
:1011F0009F938F938AE892E09F938F93DF93CF938F
:101200000E94F534ADB7BEB71A960FB6F894BEBFBC
:101210000FBEADBFB8CFEB01219687EF99E09F934A
:101220008F938EE393E076CFEB01219684E1EAE29F
:10123000F3E0DE0101900D928A95E1F7A4CF1092C0
:10124000C30980E090E060CF1F93CF93DF93CDB7C9
:10125000DEB7C058D1090FB6F894DEBF0FBECDBFC0
:10126000BE016F5F7F4F80E8FB0111928A95E9F71D
:1012700081E00E946608182F882341F0AE014E5F7E
:101280005F4F698180E090E00E94DA22812FC05890
:10129000DF4F0FB6F894DEBF0FBECDBFDF91CF9109
:1012A0001F910895CF93DF93CDB7DEB7C058D10912
:1012B0000FB6F894DEBF0FBECDBFBE016F5F7F4F8C
:1012C00080E8FB0111928A95E9F782E00E946608A6
:1012D000AE014E5F5F4F698180E090E00E94DA22AC
:1012E00081E0C058DF4F0FB6F894DEBF0FBECDBF10
:1012F000DF91CF910895CF93DF93CDB7DEB7699794
:101300000FB6F894DEBF0FBECDBFBE016F5F7F4F3B
:1013100089E1FB0111928A95E9F783E00E94660852
:10132000AE014E5F5F4F698180E090E00E94DA225B
:1013300081E069960FB6F894DEBF0FBECDBFDF9196
:10134000CF910895CF93DF93CDB7DEB7A3970FB6B4
:10135000F894DEBF0FBECDBFBE016F5F7F4F83E24B
:10136000FB0111928A95E9F784E00E946608AE01BC
:101370004E5F5F4F698180E090E00E94DA2281E059
:10138000A3960FB6F894DEBF0FBECDBFDF91CF910D
:101390000895CF93DF93CDB7DEB7C555D1090FB60A
:1013A000F894DEBF0FBECDBFBE016F5F7F4F85E5F6
:1013B000FB0111928A95E9F785E00E946608AE016B
:1013C0004E5F5F4F698180E090E00E94DA2281E009
:1013D000CB5ADF4F0FB6F894DEBF0FBECDBFDF9103
:1013E000CF910895CF93DF93CDB7DEB7A3970FB614
:1013F000F894DEBF0FBECDBFBE016F5F7F4F83E2AB
:10140000FB0111928A95E9F786E00E946608AE0119
:101410004E5F5F4F698180E090E00E94DA2281E0B8
:10142000A3960FB6F894DEBF0FBECDBFDF91CF916C
:1014300008958F929F92AF92BF92DF92EF92FF92A8
:101440000F931F93CF93DF93CDB7DEB7CD54D10960
:101450000FB6F894DEBF0FBECDBF2E969FAF8EAFF6
:101460002E978E010D5B1F4F88E0F801982F119287
:101470009A95E9F77E01EBE3EE0EF11CF70111926C
:101480008A95E9F7CE0101965C0182E3F50111929C
:101490008A95E9F72C961FAE2C97D090B7092E9617
:1014A0008EAC9FAC2E9766E873E0C4010E9479343D
:1014B000892B09F4B1C049E652E063E973E0C40145
:1014C0000E94D603009721F1B5010E94632A8BABDD
:1014D000A501682F84E290E00E94B9208BA9FE014B
:1014E000E80FF11D80818093C20942EC59E061E070
:1014F00081E690E00E94B920809134098D7F80932D
:10150000340944E359E061E082E290E00E94B920AE
:1015100049E652E068E973E02E968EAD9FAD2E97B6
:101520000E94D603009791F0B5010E94632A8BAB0D
:10153000AE014D5C5F4F61E087E590E00E94B9200D
:10154000A5016BA988E590E00E94B92049E652E028
:1015500069EA73E02E968EAD9FAD2E970E94D6035A
:10156000009789F10E9424339C01892B01F12C966C
:101570004FAD2C970AC0E295E07F9E2B9C934F5F66
:10158000232F33272115310579F0922F9F70D80131
:10159000A40FB11D9C93F901F295E295EF70EF272E
:1015A000FF70EF27309739F72C964FAF2C97A80193
:1015B00068E080E090E00E94B920A70168E080E048
:1015C00090E00E94A420B701C8010E944F34892BEB
:1015D000A1F08D2DC35BDF4F0FB6F894DEBF0FBEB9
:1015E000CDBFDF91CF911F910F91FF90EF90DF90D2
:1015F000BF90AF909F908F900895809134098E7F17
:101600008093340944E359E061E082E290E00E9473
:10161000B92070E2D72EDDCF64EB73E0C4010E94E5
:101620007934892B19F02AE0D22ED3CF61EC73E004
:10163000C4010E947934892B19F094E1D92EC9CFC5
:1016400064ED73E0C4010E947934892B19F00E9483
:101650002409BFCF67EE73E0C4010E947934892B5F
:10166000A1F088E0E7E2F2E0DE01D39601900D926E
:101670008A95E1F7AE014D5C5F4F68E080E090E055
:101680000E94B92060E2D62EA4CF63EF73E0C401BC
:101690000E947934892B09F43BC040E55CE061E0AD
:1016A00082EF9FE00E94B92047E45CE062E084EFB3
:1016B0009FE00E94B92049E45CE062E086EF9FE091
:1016C0000E94B92081E02C968FAF2C97AE01455B2C
:1016D0005F4F61E080EF9FE00E94B9202E96EEAD53
:1016E000FFAD2E9711821082AE01445B5F4F66E022
:1016F0008AEF9FE00E94B920F8949FE088E10FB63E
:10170000F894A895809360000FBE90936000FFCF7F
:1017100063E074E0C4010E947934892B89F149E6C1
:1017200052E068E074E0C4010E94D603009709F417
:1017300050CFFC0101900020E9F731978F01081B81
:10174000190B0BAB033308F044CFBC0184EC99E0D8
:101750000E94583461E0600F6BAB44EC59E087E7BE
:1017600090E00E94B920809134098F7780933409EA
:1017700044E359E061E082E290E00E94B92029CF81
:101780006FE074E0C4010E947934892B19F00E9443
:10179000C9091FCF64E174E0C4010E947934892B28
:1017A00089F149E652E064E274E0C4010E94D60384
:1017B000009709F40ECFFC0101900020E9F7319762
:1017C0008F01081B190B0BAB0B3008F002CFBC01CB
:1017D00087EF99E00E94583461E0600F6BAB47EFF0
:1017E00059E08CE690E00E94B920809135098E7F07
:1017F0008093350944E359E061E082E290E00E9481
:10180000B920E7CE66E374E0C4010E947934892BE5
:1018100019F00E94A209DDCE66E474E0C4010E94C2
:101820007934892B69F00E94F20960E678E08CE354
:1018300090E00E94E7278093300558E2D52EC9CE6C
:101840006DE474E0C4010E947934892B19F08FE1B2
:10185000D82EBFCE69E574E0C4010E947934892B8B
:1018600011F11BAA49E652E063E674E0C4010E944C
:10187000D603009709F4ADCEBE016D5C7F4F0E9488
:10188000632A8BA9863009F0A4CEF8E2DF12A1CE3C
:10189000809130050E9443280E94FF1581110EC0DF
:1018A00047E2D42E96CE6FE674E0C4010E947934EC
:1018B000892B09F48ECE37E1D32E8BCE60E678E00B
:1018C0008CE390E00E94E7278093300582CEEF9270
:1018D000FF920F931F93CF93DF93CDB7DEB7CA5814
:1018E000D1090FB6F894DEBF0FBECDBF8C017E01CB
:1018F00081E8E80EF11C8AE0D7011D928A95E9F78C
:10190000FE01319680E8DF011D928A95E9F7F80122
:1019100061857285838594852AE0A7010E949B34A6
:10192000D80154968C9154971F928F9313968C9153
:1019300013971F928F9312968C9112971F928F93E9
:1019400015968C9115978F9314968C9114978F936D
:1019500011968C9111978F938C918F9317966D910F
:101960007C91189780E090E00E94532F20E030E0B7
:1019700048EC52E40E94B22E9F938F937F936F9313
:10198000FF92EF9287E794E09F938F938E010E5F13
:101990001F4F1F930F930E94F534F8010190002010
:1019A000E9F76E2F601B69830FB6F894DEBF0FBE98
:1019B000CDBF67FD14C0A80180E090E00E94DA224C
:1019C00081E0C657DF4F0FB6F894DEBF0FBECDBF24
:1019D000DF91CF911F910F91FF90EF90089580E0DC
:1019E000F0CFCF93DF93CDB7DEB7C058D1090FB694
:1019F000F894DEBF0FBECDBFBE016F5F7F4F80E8A2
:101A0000FB0111928A95E9F788E00E946608AE0111
:101A10004E5F5F4F698180E090E00E94DA2281E0B2
:101A2000C058DF4F0FB6F894DEBF0FBECDBFDF91B9
:101A3000CF910895CF92EF920F93CF93DF93CDB7CD
:101A4000DEB729970FB6F894DEBF0FBECDBFFE01FB
:101A5000319699E0DF011D929A95E9F798E0998314
:101A600090E69A838B836C834D832E830F83E88665
:101A7000C986CF010E948E0F29960FB6F894DEBF5B
:101A80000FBECDBFDF91CF910F91EF90CF90089512
:101A9000CF92EF920F9360910E0285E0C82EE12C59
:101AA00000E020910D02462F80E50E941A0D882348
:101AB00049F02FEF37EA91E6215030409040E1F7AE
:101AC00000C000000F91EF90CF900895CF92EF9259
:101AD0000F9385E0C82EE12C00E020E043E76CE5A1
:101AE00088E70E941A0D882349F02FEF37EA91E624
:101AF000215030409040E1F700C000000F91EF907E
:101B0000CF900895CF92EF920F93CF9394E0C92E88
:101B1000E12C00E02EE540E567E789E30E941A0D1D
:101B2000C82F811106C08C2FCF910F91EF90CF90CD
:101B300008952FEF37EA81E6215030408040E1F7E9
:101B400000C0000083E0C82E20E040E560E589E7A2
:101B50000E941A0D882339F39FEF27EA31E691504E
:101B600020403040E1F700C00000C82F8C2FCF91FB
:101B70000F91EF90CF900895CF92EF920F93813015
:101B8000E1F08230F9F0843041F1833089F1853021
:101B9000D1F1863021F00F91EF90CF90089585E03C
:101BA000C82EE12C09E728E34CE767E789E30E94A8
:101BB0001A0D0F91EF90CF9008950F91EF90CF9065
:101BC0000C94820D35E0C32EE12C00E02EE34DE6AF
:101BD0006CE584E50E941A0DDECF25E0C22EE12CD3
:101BE00000E02EE64DE66EE38CE70E941A0DD3CF9F
:101BF00095E0C92EE12C00E020E040E569E78DE6A4
:101C00000E941A0DC8CFC12CE12C00E020E040E07A
:101C100060E080E00E941A0DBECF1F93CF93DF9348
:101C2000CDB7DEB7EC970FB6F894DEBF0FBECDBFD1
:101C3000AE014F5F5F4F8CE3FA0111928A95E9F78D
:101C40008091F10A823209F4FCC0893209F497C00C
:101C5000813251F0EC960FB6F894DEBF0FBECDBFC7
:101C6000DF91CF911F91089565E184E290E00E9499
:101C7000A4201A85612F70E0762F66278B85680F68
:101C8000711D072E000C880B990B0E94552F20E028
:101C900030E048EC52E40E94B22E6093160B709331
:101CA000170B8093180B9093190B8A818093CD08A2
:101CB0001092CE088C818093CF081092D0088E812C
:101CC0008093D1081092D20888858093D30810920F
:101CD000D4081093D5081092D6088C858093D70825
:101CE0001092D8088E858093D9081092DA088889D6
:101CF0008093DB081092DC088A898093DD081092BB
:101D0000DE088C898093DF081092E00882E38093DC
:101D1000E1081092E2081092E3081092E408109291
:101D2000E5081092E6081092E7081092E8089AE099
:101D30009093E90884E08093EA081092EB0827E08A
:101D40002093EC089093ED088093EF081092EE0832
:101D500026E02093F0089093F1088093F208109207
:101D6000F30885E08093F4088093F5081092F60854
:101D700081E08093F7088DE18093F8086BCF61E1F3
:101D800084E290E00E94A4208A818093090A109244
:101D90000A0A8C8180930B0A10920C0A8E81809320
:101DA0000D0A10920E0A888580930F0A1092100A6D
:101DB0008A858093110A1092120A88898093130AE7
:101DC0008C858093140A1092150A8E858093160ACA
:101DD00086E28093170A95E09093180A8093190A77
:101DE00086E180931A0A8EE180931B0A8DE280932C
:101DF0001C0A10921D0A80931E0A10921F0A83E08B
:101E00008093200A8093210A8093220A8093230AD8
:101E100080EA8093240A8BE98093250A83E78093E4
:101E2000270A84E08093280A8DE18093290A109282
:101E30002A0A10922B0A10922C0A81E080932D0A14
:101E400009CF60E184E290E00E94A4201A85612F0E
:101E500070E0762F66278B85680F711D072E000CAA
:101E6000880B990B0E94552F20E030E048EC52E49B
:101E70000E94B22E6093160B7093170B8093180B71
:101E80009093190B8A818093A7081092A8088C81DF
:101E90008093A9081092AA088E818093AB081092B3
:101EA000AC0888858093AD081092AE081093AF08F7
:101EB0001092B0088C858093B1081092B2088E857C
:101EC0008093B3081092B40888898093B508109263
:101ED000B6088A898093B7081092B8088C898093D5
:101EE000B9081092BA0882E38093BB081092BC082C
:101EF00082E08093BD0893E09093BE088093BF0872
:101F000091E09093C00894E09093C1088093C20838
:101F10001092C4088DE18093C5089CCEAF92BF9209
:101F2000CF92DF92EF92FF920F931F93CF93DF93A5
:101F30005C0108E00E943E29F501108182E00E94C8
:101F40005B291F3F09F44CC0E501C12ED12CFFEFE6
:101F5000CF1ADF0ACA0CDB1C12E07E0189910E94B5
:101F60005B29F70190811927CC15DD05B1F7812F89
:101F70000E945B291092150B78940E94711608C07C
:101F80000E949D29811108C00E947623811125C0DD
:101F90009091150B9634A0F30E946F168091150B4B
:101FA000863430F40E94A9298630E1F0893049F066
:101FB0008FED9EE20197F1F700C00000015009F09B
:101FC000B9CF80E0DF91CF911F910F91FF90EF90FB
:101FD000DF90CF90BF90AF9008950E94AB23D8CFF1
:101FE00012E0C5CF81E0EECFCF93DF93CDB7DEB760
:101FF0002B970FB6F894DEBF0FBECDBFCE01019672
:102000002BE0FC0111922A95E9F72091F60A233082
:1020100059F00E948E0F2B960FB6F894DEBF0FBEBC
:10202000CDBFDF91CF9108952091F10A2232E9F1DD
:102030002932F1F0213269F72AE0298322E72A8345
:10204000E091F70A4E2F50E0FA013197E930F1059F
:1020500008F443C02091F80A213009F4D3C022309B
:10206000C1F62091E1082D832091E2082E83D1CF83
:102070002AE0298322E72A832091F70A243008F0F6
:10208000B5C0223070F5213031F420910B0A2B833A
:1020900020910C0A2C832091140A2F832091150A79
:1020A00028872091160A2987B4CF2AE0298322E7BE
:1020B0002A83E091F70A4E2F50E0FA013197E93078
:1020C000F10538F02091BB082D832091BC082E83A8
:1020D000A0CFE854FF4F0C941730EF53FF4F0C94F0
:1020E000173020910D0A2B8320910E0A2C83D3CF19
:1020F0002091DB082B832091DC082C83ABCF20912F
:10210000B5082B832091B6082C83DCCF2091D90809
:102110002B832091DA082C839DCF2091D7082B8325
:102120002091D8082C8396CF2091D5082B8320911D
:10213000D6082C838FCF2091D3082B832091D408ED
:102140002C8388CF2091D1082B832091D2082C8317
:1021500081CF2091CF082B832091D0082C837ACF78
:102160002091CD082B832091CE082C8373CF209112
:10217000DD082B832091DE082C836CCF2091B308DF
:102180002B832091B4082C839DCF2091B1082B8301
:102190002091B2082C8396CF2091AF082B832091F9
:1021A000B0082C838FCF2091AD082B832091AE08EF
:1021B0002C8388CF2091AB082B832091AC082C83F3
:1021C00081CF2091A9082B832091AA082C837ACF54
:1021D0002091A7082B832091A8082C8373CF2091EE
:1021E000B7082B832091B8082C836CCF243089F05A
:1021F000253009F050CF20910F0A2B832091100A2F
:102200002C8349CF2091DF082D832091E0082E8375
:1022100000CF2091090A2B8320910A0A2C833BCFFF
:10222000EF92FF921F93CF93DF93EC010E94A929B5
:10223000182F823039F080E0DF91CF911F91FF900D
:10224000EF9008950E94A92998819817A0F3182764
:10225000882379F08150E82EF12C8FEFE81AF80AE4
:10226000EC0EFD1E0E94A92989931827CE15DF05C3
:10227000C9F70E94A929181721F085E10E945B295E
:10228000DACF86E00E945B2981E0D6CFCF93DF933F
:10229000CDB7DEB76A970FB6F894DEBF0FBECDBFDD
:1022A0002AE1CE010196FC01322F11923A95E9F70D
:1022B00029830E941011882319F09981913751F0D8
:1022C00080E06A960FB6F894DEBF0FBECDBFDF91F7
:1022D000CF9108959A81905E9093F50A9B81909397
:1022E000F70A9C819093F80A9D819093F90A9E8148
:1022F0009093FA0A9F819093FB0A98859093FC0A29
:1023000099859093FD0A9A859093FE0A9B859093F8
:10231000FF0A9C859093000B9D859093010B9E85F1
:102320009093020B9F859093030B98899093040BD5
:1023300099899093050B9A899093060B9B899093AA
:10234000070B9C899093080B9D899093090B9E899C
:1023500090930A0B9F8990930B0B988D90930C0B85
:10236000998D90930D0B9A8D90930E0BAACF1F937E
:10237000CF93DF9300D0CDB7DEB71A821982809158
:10238000F60A833089F0CE0101960E948E0F8823D1
:1023900021F08091F60A833061F080E00F900F9079
:1023A000DF91CF911F91089581E0898380E78A832F
:1023B000EACF0E944611182F882379F390913409AF
:1023C00091FB882780F991FDE9CF8FED9EE201977F
:1023D000F1F700C000000E94F40F812F0F900F90C2
:1023E000DF91CF911F910895CF93DF93CDB7DEB7E3
:1023F0006F970FB6F894DEBF0FBECDBF2FE1CE01B1
:102400000196FC01322F11923A95E9F729830E9437
:102410001011882379F09A819093C8089B8190933A
:10242000C9089C819093CA089F819093F908998963
:102430009093FA086F960FB6F894DEBF0FBECDBF2B
:10244000DF91CF910895CF93DF93CDB7DEB72A9771
:102450000FB6F894DEBF0FBECDBF8AE0EFE2F2E028
:10246000DE01119601900D928A95E1F789E089834A
:1024700083E78A831E8281E08F8380E188871986C3
:1024800082E08A87CE0101960E948E0F81110E9400
:10249000F4112A960FB6F894DEBF0FBECDBFDF91C0
:1024A000CF910895CF93DF9300D000D0CDB7DEB7A2
:1024B00083E0898384E68A838FE08B8381E08C8349
:1024C000CE0101960E948E0F0F900F900F900F90EB
:1024D000DF91CF910895CF93DF93CDB7DEB72797E4
:1024E0000FB6F894DEBF0FBECDBFFE01319697E068
:1024F000DF011D929A95E9F78130D9F0823061F0C1
:10250000CF010E948E0F27960FB6F894DEBF0FBE44
:10251000CDBFDF91CF91089586E089838AE68A83D3
:102520009091140A9B838091150A8C839D838E83DE
:10253000E7CF86E089838AE68A839091000B9B83AC
:102540008091010B8C839D838E83DACF0E942312AE
:10255000882319F083E08093F60A8FE39FE10197C7
:10256000F1F700C000000E94B711882319F082E043
:102570008093B9098091F50A8093F10A8091F60A57
:102580008093F20A089581E09091FA0A983009F058
:1025900080E008958091FA0A80FF05C081E0909163
:1025A000FB0A903209F080E008950E94B711882359
:1025B00019F082E08093B9090895CF93DF93CDB7E6
:1025C000DEB7EC970FB6F894DEBF0FBECDBFFE01AD
:1025D00031968CE3DF011D928A95E9F79091F10A1B
:1025E000923209F413C1993209F4A0C0913261F01A
:1025F000CF010E948E0FEC960FB6F894DEBF0FBE8F
:10260000CDBFDF91CF91089582E389839A83809132
:10261000C8088B838091C9088C838091CA088D83F8
:102620008091CB088E838091CC088F838091CD08D8
:1026300088878091CE0889878091CF088A8780918A
:10264000D0088B878091D1088C878091D2088D87A4
:102650008091D3088E878091D4088F878091D50888
:10266000888B8091D608898B8091D7088A8B80913E
:10267000D8088B8B8091D9088C8B8091DA088D8B50
:102680008091DB088E8B8091DC088F8B8091DD0838
:10269000888F8091DE08898F8091DF088A8F8091F2
:1026A000E0088B8F8091E1088C8F8091E2088D8FFC
:1026B0008091E4088E8F8091E3088F8F8091E508E8
:1026C00088A38091E60889A38091E7088AA3809176
:1026D000E8088BA38091E9088CA38091EA088DA378
:1026E0008EA38091EC088FA38091ED0888A780913C
:1026F000EF0889A78091F0088BA78091F1088CA73B
:102700008091F3088DA78091F2088AA78091F40840
:102710008FA78091F50888AB8091F60889AB8091EE
:10272000F7088AAB8091F8088BAB62CF85E289838A
:102730009A838091040A8B838091050A8C8380910F
:10274000060A8D838091070A8E838091080A8F8301
:102750008091090A888780910A0A89878091110AE5
:102760008A878091120A8B878091130A8E878091C5
:10277000140A8C878091150A8D878091160A8F879D
:102780008091170A888B8091180A898B8091190A89
:102790008A8B80911A0A8B8B80911B0A8C8B80917B
:1027A0001C0A8D8B80911D0A8E8B80911E0A8F8B47
:1027B00080911F0A888F8091200A898F8091210A39
:1027C0008A8F8091220A8B8F8091230A8C8F80912F
:1027D000240A8D8F8091250A8E8F8091260A8F8FF3
:1027E0008091270A88A38091280A89A38091290AC9
:1027F0008AA380912A0A8BA380912B0A8CA38091B3
:102800002C0A8DA380912D0A8EA3F2CE82E38983B8
:102810009A838091A2088B838091A3088C838091F6
:10282000A4088D838091A5088E838091A6088F834C
:102830008091A70888878091A80889878091A90836
:102840008A878091AA088B878091AB088C878091BA
:10285000AC088D878091AD088E878091AE088F87F8
:102860008091AF08888B8091B008898B8091B108E6
:102870008A8B8091B2088B8B8091B3088C8B80916E
:10288000B4088D8B8091B5088E8B8091B6088F8BA4
:102890008091B708888F8091B808898F8091B90896
:1028A0008A8F8091BA088B8F8091BB088C8F809122
:1028B000BC088D8F8091BE088E8F8091BD088F8F50
:1028C0008091BF0888A38091C00889A38091C10826
:1028D0008AA38091C2088BA38091C3088CA38091A6
:1028E000C4088DA38091C5088EA382CE44E359E02D
:1028F00062E082E290E00E94A42041EF5AE062E0B0
:102900008EE190E00E94A4201092BA091092BB09B7
:102910001092BC091092BD0981E090E09093BF092C
:102920008093BE099093C1098093C00980913409B6
:102930008F7B8093340981FD08950E940D0E809154
:10294000340984608093340942EC59E061E081E607
:1029500090E00E94A4208091C20981111CC08BE0EC
:10296000E7EFF9E0DF011D928A95E9F783E3E4ECF4
:10297000F9E0DF011D928A95E9F747EF59E06AE037
:102980008CE690E00E94A42044EC59E062E387E7E3
:1029900090E00C94A42080913409886080933409DD
:1029A00043EC59E061E080E091E00E94A420809136
:1029B000C3098F3FA1F61092C30943EC59E061E0CF
:1029C00080E091E00E94B920CACFCF93DF93CDB7CA
:1029D000DEB767970FB6F894DEBF0FBECDBF21E01C
:1029E0002F8B28E12E8B6A877B878C879D87809130
:1029F000C0099091C1099A8389838091F50A8B83DC
:102A00008091F60A8C838091F70A8F832091BE090A
:102A10003091BF093E832D839091F10A923209F4DF
:102A20006DC0993209F45BC0913209F44CC01E8626
:102A30001F86188A198A1A8A1B8A1C8A81E08D8B44
:102A400043EC59E061E080E091E00E94A420809195
:102A5000C3098F3F09F4ADC09091C209891708F0EE
:102A600055C09FEF980F9E3F08F0A3C025E1829FBD
:102A7000C0011124AE014F5F5F4F65E1885E9E4F3C
:102A80000E94B9208091C3098F5F8093C30943ECF2
:102A900059E061E080E091E00E94B9208091340922
:102AA00085FF94C09091C3098091C209981709F4D9
:102AB00098C081E067960FB6F894DEBF0FBECDBF19
:102AC000DF91CF910895482F50E0FA013197E93016
:102AD000F105B0F1FA013197E930F10568F1833081
:102AE000F1F190F1843009F440C0853009F09FCFB6
:102AF0008091100A90E09987888799CF482F50E0FD
:102B0000FA013197E930F10550F716C044E359E076
:102B100061E082E290E00E94A42080913409877FE6
:102B200080618093340944E359E061E082E290E0FF
:102B30000E94B92080E0BECFE653FF4F0C941730BF
:102B4000ED52FF4F0C9417308130A9F0823009F01C
:102B50006ECF80910E0A90E09987888768CF809128
:102B6000120A90E09987888762CF80910C0A90E0E2
:102B7000998788875CCF8091CE0890E09987888775
:102B800056CF8091B80890E09987888750CF809180
:102B9000B60890E0998788874ACF8091B40890E082
:102BA0009987888744CF8091B20890E09987888779
:102BB0003ECF1092C309AE014A5E5F4F62E081E0F2
:102BC00091E00E94B9208091C30950CF8062809328
:102BD000340944E359E062E082E290E00E94B920C7
:102BE00061CF8091340980618093340944E359E0D6
:102BF00062E082E290E00E94B92081E05BCFCF9357
:102C0000DF93CDB7DEB767970FB6F894DEBF0FBE80
:102C1000CDBF43EC59E061E080E091E00E94A42048
:102C20008091C3099FEF980F9E3FD0F081110FC094
:102C3000809134098F7D8F7E8093340944E359E07D
:102C400061E082E290E00E94B9208091C30967961A
:102C50000FB6F894DEBF0FBECDBFDF91CF910895C0
:102C6000AE014A5E5F4F62E081E091E00E94A420E5
:102C7000AE014F5F5F4F65E18E899F890E94A4205E
:102C8000CE0101960E94670C811103C08091C30997
:102C9000CDCF8E899F8945969F8B8E8B8091C3095E
:102CA00081508093C309AE014A5E5F4F62E081E0CC
:102CB00091E00E94B92043EC59E061E080E091E0AE
:102CC0000E94B920E3CF81E08093B809089582E0A3
:102CD00085BB80936E0016BC1092150B089515BC31
:102CE00008958EE487BD82E084BD85E085BD0895AA
:102CF0001F920F920FB60F9211248F938091150B94
:102D00008F5F8093150B8F910F900FBE0F901F90C8
:102D100018957F928F929F92AF92BF92CF92DF923F
:102D2000EF92FF920F931F93CF93DF935C01762E68
:102D30006A01EC0109900020E9F721977E01E81A69
:102D4000F90AFA0101900020E9F731978F01041B7D
:102D5000150B862E912CE814F90480F5C401019618
:102D60000E946130EC01A801B601CE010E945F34DF
:102D70007A94C00FD11F872D90E0E816F90698F3DA
:102D8000A701B501CE010E945F34CE0DDF1D188270
:102D9000C819D909A401BE01C5010E945F34CE0142
:102DA000DF91CF911F910F91FF90EF90DF90CF9027
:102DB000BF90AF909F908F907F90089580E090E0BB
:102DC000EFCFCF93DF939C013695279536952795C6
:102DD000ABE7B4E10E942030EC01D695C79540E8FE
:102DE00061E08AE20E944D1C66EA8BE20E942F1C81
:102DF0008AE20E94431C807F682F62608AE20E9400
:102E00002F1C6C2F8DE20E942F1C6D2F8CE20E94D4
:102E10002F1C80E090E0DF91CF9108956FE081E07A
:102E20000E942F1C60E485E10E942F1C48E060E0B6
:102E300088E00E944D1C82E10E94431C8870682F2C
:102E4000606882E10E942F1C83E10E94431C88700D
:102E5000682F606883E10E942F1C6DE689E10E9463
:102E60002F1C68E486E20E942F1C65E588E10E9421
:102E70002F1C66E284E20E942F1C64EF87E20E940E
:102E80002F1C88E893E10E94E11643E061E084E1B1
:102E90000E944D1C40E461E08CE00E944D1C84E0E7
:102EA0000E94431C80FFFBCF61E084E00E942F1C46
:102EB00088E893E10E94E1166AE18BE00E942F1CF2
:102EC00060E186E10E942F1C64E887E10E942F1CCC
:102ED00060E081E00E942F1C80ED97E00C94E116E9
:102EE000AF92BF92CF92DF92EF92FF920F931F9318
:102EF000CF93DF93D82F7B018A0162E484E00E94A4
:102F00002F1C60E085E00E942F1C60E88AE00E9490
:102F10002F1C81E00E94431C682F607FDC30C9F1C8
:102F200081E00E942F1C1093320500933105D031AF
:102F3000C0F1B12C02E473E0C72EDD24D3944B2DF5
:102F400060E082E00E944D1C40E060E083E00E946F
:102F50004D1C602F84E00E942F1C60E085E00E94E1
:102F60002F1C60E88AE00E942F1C61E084E00E9430
:102F70002F1C60E08DE00E942F1CC601DF91CF91D5
:102F80001F910F91FF90EF90DF90CF90BF90AF9087
:102F900008956C6081E00E942F1C1093320500930D
:102FA00031058D2F90E0FC01EE0FFF1FE65FFA4F19
:102FB000C080D180FC01E650FB4FB080FC01E6519F
:102FC000FB4F0081FC01E652FB4FA080C114D104ED
:102FD00009F0B5CF82E00E94431C682F6B2982E084
:102FE0000E942F1C83E00E94431C682F83E00E94F4
:102FF0002F1CE0913105F09132058381882381F007
:10300000C0E0F701EC0FF11D608189E00E942F1CE8
:10301000CF5FE0913105F09132059381C91788F3B4
:10302000DC3009F498C081E00E94431C807F682F47
:103030006D2B81E00E942F1C002301F184E00E948F
:10304000431C182F85E00E94431CC0E0D1E00AC059
:1030500084E00E94431C182F85E00E94431C2197A6
:1030600009F49DC0912F902399F3812F8170092F2E
:10307000882321F0CC24C394D12C61CF4B2D60E068
:1030800082E00E944D1C40E060E083E00E944D1C05
:10309000AA2009F45ECFC0913105D09132058AE0B3
:1030A0000E94431C8C838CE00E94431CE0913105FC
:1030B000F0913205877090E09683858386E00E94C8
:1030C000431CC82F882319F183FD4BC081FD63C0C9
:1030D000C0FD4BC0C4FD5BC0C2FF65C0E0913105BF
:1030E000F0913205D481D13009F464C092E0C92E48
:1030F000D12C3EC0C7FD43C060E086E0C114D104BE
:1031000009F072C00E942F1C5CE0C52ED12CE0910A
:103110003105F09132058481882309F41ACFC0E08B
:103120005701AC0EB11C89E00E94431CF50180835D
:10313000CF5FE0913105F09132058481C81780F3AB
:1031400025813681232B09F404CF882309F401CF8C
:1031500081508483FECE40E861E08DE00E944D1CEA
:103160006BCFF6E0CF2ED12CB3CF3BE0C32ED12CCA
:10317000C7FD05C060E086E00E942F1CC8CF60E05C
:1031800086E00E942F1CEDE0CE2ED12CC0CF29E08E
:10319000C22ED12CEDCFA3E0CA2ED12C99CF812FF6
:1031A0008170012365CFC6FFA5CF84E0C82E8EE7CE
:1031B000D82EDECF858196818B7F892B09F096CF23
:1031C00089E00E94431CF7018083E0913105F09172
:1031D0003205D483C7FDD3CF60E086E00E942F1C68
:1031E00042E0C42EDC2CB5CE0E942F1C90CF0F9352
:1031F0001F93CF93C82F8B0148E060E088E00E94C6
:103200004D1C60E88EE00E942F1C40E860E082E1E7
:103210000E944D1C40E860E083E10E944D1C67E085
:103220008DE00E942F1C1092300B1092310B1092E7
:10323000320B1092340B1092360B1092350B109209
:10324000370BC0931C0B81E08093330B80E991E036
:103250000E94E11640E35BE06CE17BE08CE00E94C1
:103260007017882351F0863041F0F80110821182E6
:103270009927CF911F910F9108952091340B2230FF
:1032800031F08BE090E0CF911F910F910895209144
:10329000350B3091360B232BA1F720911C0B30916D
:1032A0001D0BF801318320839927EDCF7F928F92F8
:1032B0009F92AF92BF92CF92DF92EF92FF920F93C5
:1032C0001F93CF93DF9300D0CDB7DEB7F82E762EC5
:1032D0008A0110921E0B10921F0B1092200B10925D
:1032E000210B1092220B40E860E082E10E944D1C0D
:1032F00040E860E083E10E944D1C60E08EE00E94A7
:103300002F1C84E0882E912CF0E2F715F8F441E0B0
:1033100051E060E08DE049835A830E942F1C60E8F1
:103320008EE00E942F1C49815A81CA010F900F9094
:10333000DF91CF911F910F91FF90EF90DF90CF9091
:10334000BF90AF909F908F907F900895272D27700A
:10335000E22E872D869586958695222309F4A5C0B1
:10336000DD24D394D80EF0921C0B90E2920FE0E192
:103370008E9F900D112490931D0BF801AEE1BBE0E0
:103380002FEF2D0D30E02F5F3F4F200F311F919118
:103390009D93E217F307D9F7F0E1EF9EB0011124F6
:1033A0006E298DE00E942F1C1092300B1092310B71
:1033B0001092320B1092340B1092360B1092350B88
:1033C0001092370B82E08D0D8093330B80E197E2F2
:1033D0000E94E11640E35BE06CE17BE08CE00E9440
:1033E0007017AC018630910519F0892B09F091CF47
:1033F0002091350B3091360B6091340BB62EBB0CFF
:10340000BB0CBB0CB20EBE18872D90E08B0D911D2E
:1034100089970CF055C0232B19F06F5F6093340B24
:10342000EE2009F450C0AD2DB0E0FD013197E00F62
:10343000F11F908180911C0B892B8083AA24A39477
:103440006401CA1ADB0A1C141D040CF046C06A2D64
:1034500070E020E030E080E0645E744FFB01E20F3A
:10346000F31F9081200F311FF901EA0FFB1F90839A
:103470008F5F282F30E02C153D0584F34630510531
:1034800089F1F80191818081982782819827838131
:103490008927245E344FF901EA0DF11D90818917C7
:1034A00009F437CF41E055E034CFD82EF0921C0B11
:1034B0008295807F805E80931D0BD1105ECF6CCF94
:1034C00044E050E026CFA12CAD2DB0E06401CA1A33
:1034D000DB0A1C141D040CF4BACF20E030E04630A7
:1034E000510579F67B0C10CFFF920F931F93CF936A
:1034F000DF93F82EEB018A0140E861E082E10E944F
:103500004D1C40E861E083E10E944D1CF0921C0BD1
:1035100080E780931D0BFE01AEE1BBE09E012C5FB6
:103520003F4F81918D93E217F307D9F799818881F5
:1035300089279A8189279B8189278093220B109262
:10354000300B1092310B1092320B1092340B109200
:10355000360B1092350B1092370B87E08093330BAC
:1035600080ED97E00E94E11640E35BE06CE17BE0D8
:103570008CE00E947017009731F42091340B2130B9
:1035800041F084E090E0DF91CF911F910F91FF9087
:1035900008952091350B3091360B232B91F7209114
:1035A0001C0BF8012083EFCF9F92AF92BF92CF9276
:1035B000DF92EF92FF920F931F93CF93DF93CDB7DC
:1035C000DEB72E970FB6F894DEBF0FBECDBF082F23
:1035D0006B015A01CE0101967C0180E090E010E081
:1035E000002309F468C0013278F020EE922E900E8C
:1035F000113009F474C0123009F07DC000E227E9EF
:10360000003261F4092D37C0113009F45BC012306B
:1036100009F455C0912C23E90032A1F3009719F168
:103620002D85113009F45DC01230D9F54D815E81D0
:103630006F817885F6014683578360877187F5012E
:1036400020832E960FB6F894DEBF0FBECDBFDF915C
:10365000CF911F910F91FF90EF90DF90CF90BF908F
:10366000AF909F900895A701602F822F2E870E9410
:103670005619092D2E85009799F6AE01435F5F4FCD
:10368000B701822F0E94741A009719F42D8522FF2A
:10369000C8CF1F5FF4E0EF0EF11C133009F0A0CF8C
:1036A0002D8549815A816B817C81F601408351834C
:1036B00062837383C4CF113029F0123069F4912CE6
:1036C00027E99ECF912C2A813B814C81F6012083F2
:1036D0003183428325E9A0CF912C23E99FCF00E2DB
:1036E000F2CF4D815E816F817885F60143835483EB
:1036F00065837683A4CF092D23E9BDCFCF93DF93D4
:103700001092300B1092310B1092320B1092330B3F
:103710001092340B1092360B1092350B1092370B1F
:1037200080931C0B20931D0B86E0FB01AEE1BBE0F8
:1037300001900D928A95E1F7FA0180819181A28131
:10374000B3818093240B9093250BA093260BB09309
:10375000270B8CE08093330B80ED97E00E94E116FD
:1037600040E35BE06CE17BE08EE00E947017EC01CF
:10377000892B21F0CE01DF91CF91089588E00E943E
:10378000431C8F708830B1F3C1E0D2E0CE01DF91ED
:10379000CF910895CF93DF93EB011092300B1092ED
:1037A000310B1092320B1092340B1092360B109298
:1037B000350B1092370B90E390931C0B80931D0BED
:1037C00082E08093330B80E197E20E94E11640E3B0
:1037D0005BE06CE17BE08CE00E947017009791F059
:1037E0008130910539F02091350B3091360B243022
:1037F0003105B1F020E1FE0111922A95E9F7DF9140
:10380000CF9108952091340B2031A9F080E1FE0181
:1038100011928A95E9F788E090E0DF91CF910895C1
:1038200080911C0B982F9F7090931C0B8A7061F0F5
:1038300085E091E0DFCF20E1ECE1FBE0DE010190EB
:103840000D922A95E1F7DBCF81E092E0D3CF88306B
:1038500019F084E00C94CA1B81E00C94CA1BCF932E
:10386000DF931F92CDB7DEB7880F71988E7769838B
:103870000E94891C6981862F0E94891C719A0F9071
:10388000DF91CF910895880F8E77719880680E949C
:10389000891C0E948E1C719A08951F93CF93DF9309
:1038A00000D0CDB7DEB7182F4A8369830E94431C2E
:1038B00069814A8161110BC0642F60956823812F53
:1038C0000F900F90DF91CF911F910C942F1C682FB8
:1038D000642B812F0F900F90DF91CF911F910C944B
:1038E0002F1CCF93DF931F92CDB7DEB784B18760D3
:1038F00084B92398289A82E08DB9719A299882E533
:103900008CBD8DB589838EB589830F90DF91CF9162
:1039100008958EBD0DB407FEFDCF08958FEF8EBDC7
:103920000DB407FEFDCF8EB50895F8940FB6F89448
:10393000A89580916000886180936000109260007B
:103940000FBE80E090E00E9443290E947A280E94E6
:10395000671678940E9425030E94711C0E940E171E
:1039600078940E940A040E94AB23FACFEDEFF3E0B3
:10397000DF011197F1F7909139019160909339012E
:10398000909139019D7F90933901ADE0B0E011979E
:10399000F1F7909139019E7F909339019091420106
:1039A000907E9360909342013197F1F79CE490935D
:1039B0004E0190914901907F976090934901811148
:1039C0000E94272080E40895809146018F718093A2
:1039D00034051092530C089580913305811104C071
:1039E00080915C0180933305823019F08091340519
:1039F000089586E108958091B80B089595EF980F8A
:103A0000903110F082E408959091390191FD1BC02E
:103A1000909148019F718917C1F090914801907E63
:103A2000282F2F71922B90934801909141019F7103
:103A3000963069F0993059F0909148019F7189173B
:103A400021F083E4089584E4089580E40895EDE28C
:103A5000F1E03197F1F7F0CF6630E0F4882369F0B8
:103A600080914301877F8093430180914301887F48
:103A7000682B6093430180E408958091430188603E
:103A80008093430180914301887F682B60934301B9
:103A900080E4089582E40895809141018F71089532
:103AA000CF93C82F88EF8C0F823048F08C2F8F7EF9
:103AB000863029F0C93119F082E4CF9108958091C0
:103AC000390181FD37C0909141019F712FEE290F7F
:103AD0002230C8F39230B9F39130A9F39E3199F3B3
:103AE00080913305882349F1823009F447C08091E1
:103AF00041018F71C81731F1C83061F1C93109F442
:103B00004DC0C63109F45AC02C2F2F71909142013B
:103B1000907E922B909342018830B9F083E090E040
:103B20000197F1F7809141018F71C81759F083E433
:103B3000CF91089584E4CF91089580915C018093A2
:103B40003305D2CF80E4CF91089589E691E00197C3
:103B5000F1F7E8CF809139018D7F809339018DE0B5
:103B600090E00197F1F780914201807E836080931D
:103B7000420183E090E00197F1F7D4CF0E949026B4
:103B8000882309F4B4CFC63109F0B1CF8091410147
:103B90008F718630B9F226E0C6E0B8CF893011F1D6
:103BA00090914201907E9960909342018631B1F0EC
:103BB000E9E6F1E03197F1F729E1A8CF8930D9F0B2
:103BC00090914201907E996090934201893131F049
:103BD000E9E6F1E03197F1F726E198CF83E090E054
:103BE0000197F1F780914201807E9C2F9F71892B74
:103BF0008093420193CF80914201807E86618093C1
:103C000042018CCFCF93DF9300D000D01F92CDB76D
:103C1000DEB7809141018F718C838C81813109F4F1
:103C20003FC08C818630E1F18C818130C9F18C817B
:103C30008631B1F18C81823049F08C81823131F052
:103C40008C81893119F08C81893011F51092530CD7
:103C500019821B821A828091420182958695877013
:103C60008D838D81833009F47BC008F082C082305F
:103C700030F481E18983CE0101960E947F2386E1A1
:103C80000E94501D80919400909195000E94DD311A
:103C90000F900F900F900F900F90DF91CF9108959C
:103CA00040917B0150E060E871E089E39BE00E9475
:103CB0003B3480917B018093380BE0917B01F0E0F5
:103CC000E85CF44F80818093B80B19821B821A82C2
:103CD0002091390B80913A0B90E0982F8827820F22
:103CE000911D90933A0B8093390B813628E8920707
:103CF000E9F1B0F083362CE89207A9F1833628EC7D
:103D0000920759F083369848C1F48091420B823073
:103D100051F18B3BA1F1813081F487E189830DC0A2
:103D2000833028E09207A9F08115904831F40E9471
:103D30009026882311F084E18983CE0101960E94A8
:103D40007F230F900F900F900F900F90DF91CF91E6
:103D500008958091440C882381F385E18983EDCF18
:103D600083E1898388CF88E18983E7CF80E18983F4
:103D7000E4CF853009F083CF82E189837CCF89E16C
:103D80008983DBCF9091330591110FC090915C0135
:103D900090933305923059F0911104C090915C01D9
:103DA00090933305933061F008959230D9F7909154
:103DB000050080FB97F99093050090913305ECCFB7
:103DC0009091040080FB95F99093040008950F935F
:103DD0001F93CF93C82F8B0187FD37C0909141016E
:103DE0009F712FEE290F2230C8F32FEF290F2230B9
:103DF000A8F39E3199F389E10E94501D90914101F1
:103E00009F719931C1F7F801858196819093520C89
:103E10008093510C4C2F50E04E5F5F4FB80181E80A
:103E200091E00E943B34CE5FC093800180913901C4
:103E3000826080933901809139018D7F80933901AF
:103E400080E4CF911F910F91089582E4CF911F914B
:103E50000F910895EEE6F1E0908180FB93F9908355
:103E600008958093620190936301089580936001A7
:103E7000909361010895DC01E4E6F1E08D91819376
:103E8000EC3681E0F807D1F7089520914101909137
:103E90003305911119C090915C01909333059330D3
:103EA000C9F0911113C090915C0190933305933840
:103EB00089F091110DC090915C019093330597307A
:103EC00049F00E94D9310895933021F0933811F0D0
:103ED0009730B9F72F702630A1F7382F369579F043
:103EE00020E080E0909146019076929596959770AB
:103EF000880F880F892B2F5F2313F4CF089580E05C
:103F0000089508951F920F920FB60F9211240BB6C9
:103F10000F922F933F934F935F936F937F938F9362
:103F20009F93AF93BF93EF93FF930E94E41CFF9185
:103F3000EF91BF91AF919F918F917F916F915F9121
:103F40004F913F912F910F900BBE0F900FBE0F908E
:103F50001F9018951F920F920FB60F9211240BB657
:103F60000F922F933F934F935F936F937F938F9312
:103F70009F93AF93BF93EF93FF930E94021EFF9115
:103F8000EF91BF91AF919F918F917F916F915F91D1
:103F90004F913F912F910F900BBE0F900FBE0F903E
:103FA0001F9018951F920F920FB60F9211240BB607
:103FB0000F922F933F934F935F936F937F938F93C2
:103FC0009F93AF93BF93EF93FF93809141018F71C4
:103FD000863111F00E94021EFF91EF91BF91AF91C7
:103FE0009F918F917F916F915F914F913F912F9111
:103FF0000F900BBE0F900FBE0F901F9018951F9241
:104000000F920FB60F9211240BB60F922F933F937E
:104010004F935F936F937F938F939F93AF93BF93D0
:10402000EF93FF930E945327FF91EF91BF91AF91C0
:104030009F918F917F916F915F914F913F912F91C0
:104040000F900BBE0F900FBE0F901F901895DF9230
:10405000EF92FF920F931F93CF93DF9300D0CDB7D2
:10406000DEB7D0903505DD2059F08D2D0F900F90E3
:10407000DF91CF911F910F91FF90EF90DF90089506
:1040800081E080933505E0906600F89461E00E943D
:104090002C1DF090B10000918100109180001092D1
:1040A000B100109281001092800028EE33E073E09E
:1040B00066E09FEF7093B100609381001092B200B0
:1040C000109285001092840096BB97BBB89BFECFE0
:1040D00040918400509185005A8349831092810059
:1040E0001092B10049815A814D3F5140A8F440914E
:1040F000660041504093660021503109D9F660E0D6
:1041000081E00E942C1DF092B10000938100109379
:104110008000E0926600A9CF49815A814330524025
:1041200030F0409166004F5F40936600E5CF60E05D
:1041300081E00E942C1DF092B10000938100109349
:104140008000DD24D39491CFCF93DF931F92CDB71E
:10415000DEB7FC01CA013FB73983F894462F50E01F
:10416000BF010E94B33789818FBF0F90DF91CF913C
:104170000895CF93DF931F92CDB7DEB7FC01CA013C
:104180003FB73983F894462F50E0BF010E94D537DE
:1041900089818FBF0F90DF91CF9108951F93CF93A7
:1041A000DF93CDB7DEB728970FB6F894DEBF0FBE0A
:1041B000CDBF182F2FEF3FEF3093480C2093470CC3
:1041C00030934A0C2093490C1092440C30934C0CC1
:1041D00020934B0C30934E0C20934D0C10924F0CAF
:1041E0001092530C81E08093540C0E94B61C1093E3
:1041F000500C1F3F19F0812F0E94FE1C81E00E948D
:10420000C21E88E00E94501D0E94811F86E10E940C
:10421000501D4CE35CE068E080E090E00E94A42048
:1042200080E00E942A1F8FEF9FEF0E94361F8FEFC2
:104230009FEF0E94311F80916C018F70806280938C
:104240006C0180913C0C898380913D0C8A83809124
:104250003E0C8B8380913F0C8C838091400C8D832E
:104260008091410C8E838091420C8F838091430C0E
:104270008887CE0101960E943B1F0E941B22289630
:104280000FB6F894DEBF0FBECDBFDF91CF911F9167
:1042900008958093500C0C94FE1C809162060E943D
:1042A00043289091440C81E089270C946402CF93B9
:1042B000DF93EC01862F0E944921EAEBFBE083E6C5
:1042C00098EC92838183ACE3BCE01A968C911A97A8
:1042D00091E0980F1A969C931A9783831B968D9161
:1042E0009C911C9795838483D783C6838C91808708
:1042F00011968C911197818712968C9112978287D3
:1043000013968C911397838714968C9114978487B6
:1043100015968C911597858716968C91169786879A
:1043200017968C91878781E0808BD28BC18B82E03E
:10433000838B6BEB7BE083E10E94E71E6DE471E20F
:1043400084E690E00E94812780936206DF91CF91FE
:104350000895009779F0E6E3F5E005C0339626E08E
:10436000E236F20739F02081318128173907B1F799
:1043700081E0089580E00895A6E3B5E0FD0120E026
:1043800030E006C02F5F3F4F33962436310591F061
:104390004081518148175907A9F7F901EE0FFF1F16
:1043A0002E0F3F1FF901E85CFA4F80818E7F8D7FD1
:1043B0008083089520E030E006C02F5F3F4F1396C2
:1043C00024363105D9F0622F4D915C911197452B20
:1043D000A1F7F901EE0FFF1F2E0F3F1FF901EA5C55
:1043E000FA4F91838083F901E85CFA4F80818E7FD8
:1043F0008D7F8083862F90E00C945D020895E6E324
:10440000F5E020E030E006C02F5F3F4F33962436C2
:10441000310581F04081518148175907A9F7F90109
:10442000EE0FFF1F2E0F3F1FF901EA5CFA4F1182BA
:1044300010820895089508950895FC0195859F7749
:1044400095870895EAEBFBE080E090E89283818312
:10445000ACE3BCE019968C91199791E0980F1996EE
:104460009C93199783831B968D919C911C979583A0
:1044700084831D968D919C911E97978386838FEFE1
:1044800090E09187808786E0828753968C9183871E
:104490006BEB7BE08BE00C94E71E6BEB7BE0809199
:1044A000BA0B0C94E71EEF92FF920F931F93CF93DA
:1044B000DF93E091490CF0914A0CE817F90741F0BD
:1044C0008F3F3FEF930721F03091440C311107C02B
:1044D000DF91CF911F910F91FF90EF900895122FD0
:1044E000E52EF42E062FEC0181E698E89093BC0BA4
:1044F0008093BB0B8091460C91E0980F9093460CF3
:104500008093BD0B8091470C9091480C9093BF0B0A
:104510008093BE0BF093C30BE093C20BD093C50BFB
:10452000C093C40BF093C70BE093C60BCE010E945F
:104530006826163021F0C0914B0CD0914C0CD093D2
:10454000C10BC093C00B1093C80B002371F0AF2DAB
:10455000BE2DE9ECFBE04FEF400F50E04653544FC7
:104560008D918193E417F507D9F78091490C9091CB
:104570004A0CC817D90709F4ABCF219609F4A8CF84
:104580006EE0600F6093BA0B1650123080F087E037
:1045900090E06DE472E20E94812781E08093530CE9
:1045A000DF91CF911F910F91FF90EF90089580E0E0
:1045B00090E0EFCF21E00C9453228091460B8F774F
:1045C000833049F150F4813021F18230D9F4809167
:1045D000440B9091450B0C94CF018430A1F08630B0
:1045E00081F48091470B9091480B4091400B509182
:1045F000410B20914B0C30914C0C4217530789F022
:104600000895089508958091470B9091480B0C945C
:10461000FF210C942E028091440B9091450B0C9439
:10462000D30199270C941C220F931F93CF93DF93F0
:10463000CDB7DEB760970FB6F894DEBF0FBECDBF23
:1046400081E698E89A8389830CE31CE0F80182856F
:1046500091E0980F92878B83838594859D838C83CB
:1046600085859685998788879D878C878091650643
:10467000909166069B878A87809163068E870E9449
:10468000EC1C8F870E94FB1C888BF8018785908922
:104690009F838E83BE016F5F7F4F80E10E94E71E84
:1046A00060960FB6F894DEBF0FBECDBFDF91CF91FD
:1046B0001F910F9108952091490C30914A0C2617B3
:1046C000370721F09091440C911101C00895709327
:1046D00066066093650690E0909364068093630697
:1046E0000E94142381E08093530C08959091550CFF
:1046F0002091560C81E02913089580E00895CF930E
:10470000DF93EC014091550C242F30E0E091560CE2
:10471000C90101966EE170E00E94E12F6E2F70E0FA
:104720008617970799F0F901EE0FFF1F2E0F3F1F15
:10473000F901EB5AF34F88819981AA81828393838F
:10474000A4834F5F4E3128F44093550CDF91CF91F5
:10475000089540E0F9CF1F93CF93DF931F92CDB719
:10476000DEB711E09091550C8091560C981799F195
:104770008091560C8983298130E089818F5F8983FC
:1047800089818E3108F0198289818093560CF90154
:10479000EE0FFF1FE20FF31FEB5AF34FE2818E2F54
:1047A00090E0FC017097EA30F105E0F6E452FF4F2B
:1047B0000C94173080913A0B8C3809F463C08091C7
:1047C000440C882379F20E94AD249091550C80917D
:1047D000560C9813CDCF0F90DF91CF911F91089574
:1047E0008091440C882309F4BDCF0E943B25BACFA9
:1047F0002F5F3F4FF901EE0FFF1F2E0F3F1FF901F3
:10480000EB5AF34F0190F081E02D0995ABCF8091E9
:10481000440C882309F4A6CF62E272E281E090E0C2
:104820000E9481279FCF8091440C81119BCF0E94D1
:10483000932698CF0E94EA0195CF0E94EB0192CF78
:104840000E94DB018FCF8091440C882309F48ACF2A
:1048500089E39BE00E941D222091420B3091430B83
:104860008091490C90914A0C2817390739F10E9420
:10487000F42578CF8091440C882309F473CF0E94EB
:10488000612470CF8091390B833609F098CF109353
:10489000440C8091460B9091470B90934C0C809365
:1048A0004B0C8091490B90914A0B90934A0C80934A
:1048B000490C0E94361F0E944D2154CF0E94DD22D8
:1048C00051CF8091380B92E8E8E3FBE0AAEBBBE024
:1048D00001900D929A95E1F79091440C9923E1F1A2
:1048E0008C508695E82FF0E0EE0FFF1FED53F44F4C
:1048F0002081318130934E0C20934D0C823060F139
:10490000815023E638E83093BC0B2093BB0B909189
:10491000460C21E0290F2093460C9093BD0B90E0AC
:10492000FC01EE0FFF1FEB53F44F208131813093D8
:10493000C10B2093C00B2091490C30914A0C30934D
:10494000C30B2093C20B9BEB9093C40B8B5F6BEB61
:104950007BE0880F0C94E71E08958091440C882317
:10496000E9F12091430B3091440B8091490C9091D7
:104970004A0C2817390799F122E8E8E3FBE0AAEB93
:10498000BBE001900D922A95E1F72091460C31E0B1
:10499000320F3093460C2093BD0B20914D0C30917B
:1049A0004E0C3093C10B2093C00B9093C30B80939C
:1049B000C20B8091C50B9091C60B0E94A921882340
:1049C00041F08091C50B9091C60B9093C10B8093E1
:1049D000C00B6BEB7BE086E10C94E71E089583E649
:1049E0009CE89093BB0B8093BA0B8091460C91E0AE
:1049F000980F9093460C8093BC0B8091470C90913C
:104A0000480C9093BE0B8093BD0B8091450B809317
:104A1000BF0B8091460B8093C00B8091470B809316
:104A2000C10B8091480B8093C20B8091490B8093FE
:104A3000C30B80914A0B8093C40B80914B0B8093E6
:104A4000C50B80914C0B8093C60B3093C80B209301
:104A5000C70B82E08093C90B80914D0B90914E0B58
:104A60009093CB0B8093CA0B0E94BC216AEB7BE036
:104A700082E10C94E71ECF93DF93CDB7DEB7659745
:104A80000FB6F894DEBF0FBECDBF80913A0B883CC5
:104A900009F463C083E698E89093BB0B8093BA0B4C
:104AA0008091460C91E0980F9093460C8093BC0B3C
:104AB0008091470C9091480C9093BE0B8093BD0B56
:104AC00080914B0C90914C0C9093C00B8093BF0B3A
:104AD0008091490C90914A0C9093C20B8093C10B2A
:104AE00081E08093C30B8091430B9091440B909392
:104AF000C50B8093C40B8091450B8093C60B8091AE
:104B0000460B8093C70B8091470B8093C80B809115
:104B1000480B8093C90B8091490B8093CA0B8091FD
:104B20004A0B8093CB0B80914B0B8093CC0B8091E5
:104B30004C0B8093CD0B80914D0B8093CE0B6AEB89
:104B40007BE085E10E94E71E65960FB6F894DEBF14
:104B50000FBECDBFDF91CF91089583E698E89A8389
:104B600089838091460C91E0980F9093460C8B833B
:104B70008091470C9091480C9D838C8380914B0CC5
:104B800090914C0C9F838E838091490C90914A0C9C
:104B90009987888781E08A878091490B90914A0B99
:104BA0009C878B878091400B8D878091410B8E87EE
:104BB0008091420B8F878091430B888B8091440BAF
:104BC000898B8091450B8A8B8091460B8B8B8091D2
:104BD000470B8C8B80914B0B8D8BBE016F5F7F4F92
:104BE00085E10E94E71EB0CF82E8E8E3FBE0AAEB94
:104BF000BBE001900D928A95E1F7A09A66EA71E018
:104C00008AE090E00E9481278091C40B9091C50BAF
:104C10000E94A921882309F18091460C91E0980F08
:104C20009093460C8093BD0B8091C40B9091C50B63
:104C30009093C10B8093C00B2091490C30914A0C8A
:104C40003093C30B2093C20B019641F18091BA0BB4
:104C50006BEB7BE082500C94E71E80914B0C9091A3
:104C60004C0C2091C20B3091C30B28173907B9F0B7
:104C70002091460C31E0320F3093460C2093BD0B4F
:104C80009093C10B8093C00B2091490C30914A0C3A
:104C90003093C30B2093C20B0196C1F60895809107
:104CA000460C91E0980F9093460C8093BD0B809139
:104CB0004D0C90914E0C9093C10B8093C00B2091A2
:104CC000490C30914A0C3093C30B2093C20BBCCFDC
:104CD00080E00895CF93DF93E8E3FBE02091B80BE9
:104CE000C1EBDCE08181928184E0989F812D99273E
:104CF00011248883848195819A8389838681978111
:104D00009C838B83838589878091500C81508D8310
:104D10001E822A870E94EC1C8B87DF91CF91089519
:104D2000809167060895CF939091B80B2091400B26
:104D30003091410B80916706882321F08091420BCE
:104D4000863011F0CF9108954091B80C5091B90C74
:104D50003093B90C2093B80C8091B90C87FD17C023
:104D60008091BB0C891780F09813ECCF9091BA0C0E
:104D70008091430B891740F09813E4CFC091BC0C8D
:104D80000E94EC1CC817F0F6CF910C946A26509341
:104D9000B90C4093B80CD6CFCF93C1E08091B60C3C
:104DA0008F3FF9F08091B20C9091B30C9093480C26
:104DB0008093470C2091B40C3091B50C30934C0C7F
:104DC00020934B0C0E94311F8091B60C0E94492108
:104DD0008091BA0C8F5F80934F0C8C2FCF910C94E5
:104DE0006D02C0E08C2FCF910C946D028091500C1D
:104DF0008F3F09F440C08B31B8F5482F50E0209127
:104E00001E0230E02F5F3F4F4217530769F10E94A7
:104E1000492183E098E09093BC0B8093BB0B809179
:104E2000450C91E0980F9093450C8093BD0B8FEF4C
:104E30009FEF9093BF0B8093BE0B9093C10B809319
:104E4000C00B87E08093C20B6BEB7BE088E00E9495
:104E5000E71E8091500C8F5F8093500C66EF76E2D6
:104E600084E190E00C948127109267068FEF809385
:104E7000500C0C94CC2691E09093670696E1E1EB00
:104E8000FCE0DF011D929A95E9F78093B60C8BE068
:104E90008093500C80911E02803819F08093500C42
:104EA000B6CF8BE0B4CF0895809168068F5F09F488
:104EB00081E0E2EDF6E021E005C0359697E0E633CB
:104EC000F90749F090818913F8CF20E0359697E0F3
:104ED000E633F907B9F7EEE6F6E005C0359696E059
:104EE000E23DF90749F090818913F8CF20E035962B
:104EF00096E0E23DF907B9F72223C1F280936806F4
:104F00000895CF92DF92EF92FF920F931F93CF936A
:104F1000DF931F92CDB7DEB7009709F446C02FB7D5
:104F20002983F894A0EDB6E000E010E02D913C91CB
:104F30001197232B89F00F5F1F4F15960431110530
:104F4000A9F780E00F90DF91CF911F910F91FF9013
:104F5000EF90DF90CF9008957801EE0CFF1CEE0CDF
:104F6000FF1CF701E00FF11FE053F94F009709F123
:104F700091838083C701800F911F9C012053394F7B
:104F80006901F901748363830E945427F6018283C7
:104F900080916B06882381F089818FBF0E0D1F1DC4
:104FA000F801E053F94F8281CDCFFB01099580E0F4
:104FB000C9CF81E090E0DCCF109295001092940070
:104FC00082E08093710081E080936B06E5CFCF9201
:104FD000DF92EF92FF920F931F93CF93DF931F9275
:104FE000CDB7DEB7009709F43FC0ACE6B6E000E00D
:104FF00010E02D913C911197232B89F00F5F1F4FEB
:10500000159604311105A9F780E00F90DF91CF913B
:105010001F910F91FF90EF90DF90CF90089578014E
:10502000EE0CFF1CEE0CFF1C9701200F311FA90195
:105030004459594F6A01FA019183808374836383D1
:105040000E945427F60182838FB78983F894809158
:105050006B06882369F089818FBF0E0D1F1DF80133
:10506000E459F94F8281D1CFFB01099580E0CDCF82
:10507000109295001092940082E08093710081E07C
:1050800080936B06E8CFE2EDF6E020E030E090811F
:105090009817A1F02F5F3F4F359624313105B9F7AE
:1050A000EEE6F6E020E030E090819817A9F02F5F5F
:1050B0003F4F359624313105B9F70895F901EE0FC8
:1050C000FF1FEE0FFF1F2E0F3F1FF901E053F94F97
:1050D0001182108212820895F901EE0FFF1FEE0F68
:1050E000FF1F2E0F3F1FF901E459F94F1182108263
:1050F00012820895E1E9F0E080818A60808380ED8A
:1051000097E09093990080939800809194009091FB
:1051100095000C94DD311F920F920FB60F9211245F
:105120000BB60F92FF920F931F932F933F934F93C2
:105130005F936F937F938F939F93AF93BF93EF93FF
:10514000FF93CF93DF9300D01F92CDB7DEB780914E
:10515000690690916A06019690936A0680936906A3
:1051600080911F0290912002019709F443C090930F
:10517000200280931F0200ED16E096E1F92E06C092
:105180000B5F1F4FF7E004331F07C9F0F801808160
:1051900091810097A9F3019791838083892B81F7EF
:1051A000F982838194819B838A83CE0101960E9438
:1051B0007F230B5F1F4FF7E004331F0739F70F9072
:1051C0000F900F90DF91CF91FF91EF91BF91AF9131
:1051D0009F918F917F916F915F914F913F912F910F
:1051E0001F910F91FF900F900BBE0F900FBE0F906D
:1051F0001F90189584EF91E09093200280931F02F6
:105200000CE616E086E1F82E07C00B5F1F4FF6E0B4
:10521000003D1F0709F4AFCFF8018081918100970D
:10522000A1F3019791838083892B79F7F982838198
:1052300094819B838A83CE0101960E947F23E5CFD0
:105240001F920F920FB60F9211248F9382E08093DA
:1052500035078F910F900FBE0F901F9018951F92DA
:105260000F920FB60F9211248F9381E08093340731
:105270008F910F900FBE0F901F901895EAE3F7E003
:10528000118210820895EAE3F7E011821082ECEBBC
:10529000F7E01182108228E92093C90026E02093CC
:1052A000CA001092CD0027E62093CC0090933907D6
:1052B00080933807089590913607911137C07894FC
:1052C0002091BC072F5F27FD32C03091370702C005
:1052D00031110CC09091BD079217D1F3E091BC073A
:1052E000F0E0E454F84F82832093BC078091C9001A
:1052F00085FD1CC08091C80085FFFCCF8091BD0753
:10530000E82FF0E0E454F84F92812091BC07821717
:1053100091F08F5F87FD0DC08093BD07892F80932B
:10532000CE008091C90080628093C900089520E07A
:10533000CCCF80E0F1CF8FEFF2CF80913A0790E0B1
:1053400020913B07821B910997FF089580589F4F3A
:10535000089580913A0790E020913B07821B9109C4
:1053600097FD13C08823A9F390913B07E92FF0E044
:10537000E65CF84F828120913A07921759F09F5FBF
:1053800097FD06C090933B07089580589F4FEACF42
:1053900090E0F8CF8FEF08951F920F920FB60F9203
:1053A00011240BB60F922F933F934F935F936F93FC
:1053B0007F938F939F93AF93BF93EF93FF938091CE
:1053C000CE0091E09093370790913A079F5F97FD49
:1053D00028C020913B07291741F0E0913A07F0E0FF
:1053E000E65CF84F828390933A0710923707E0917A
:1053F0003807F0913907309709F00995FF91EF913F
:10540000BF91AF919F918F917F916F915F914F91DC
:105410003F912F910F900BBE0F900FBE0F901F90DA
:10542000189590E0D6CF1F920F920FB60F921124CD
:105430000BB60F922F938F939F93EF93FF939091BF
:10544000BC078091BD079817F9F08091BD07E82F40
:10545000F0E0E454F84F92812091BC078217E1F00C
:105460008F5F87FD17C08093BD07892F8093CE0083
:10547000FF91EF919F918F912F910F900BBE0F9005
:105480000FBE0F901F9018958091C9008F7D80935B
:10549000C900EECF80E0E7CF8FEFE8CF982F80ED07
:1054A000890F8A3060F08FEB890F863048F08FE9E2
:1054B000890F863018F489EA890F089580E00895ED
:1054C00089EC890F08959F92AF92BF92CF92DF929D
:1054D000EF92FF920F931F93CF93DF936C017B01A9
:1054E000FC0101900020E9F731975F01A81AB90A81
:1054F0009A2CAA20B9F0C0E086010C0F111DF8010A
:1055000080810E944E2AD82FF80181810E944E2A64
:10551000F0E1DF9F800D1124F70181937F01CE5FC1
:10552000C91550F38A2D8695DF91CF911F910F9168
:10553000FF90EF90DF90CF90BF90AF909F90089535
:105540002F923F924F925F926F927F928F929F9293
:10555000AF92BF92CF92DF92EF92FF920F931F9381
:10556000CF93DF93CDB7DEB763970FB6F894DEBF66
:105570000FBECDBF6C014B012A01FC0117821682C0
:10558000838181FF43C3AE014F5F5F4F3A01F60154
:105590009381F40193FD859193FF81914F018823BD
:1055A00009F430C3853239F493FD859193FF8191DD
:1055B0004F01853239F4B60190E00E94BD345201AA
:1055C0002501E5CF10E0F12C20E02032A0F48B3251
:1055D00069F030F4803259F0833269F420612CC0D4
:1055E0008D3239F0803339F4216026C02260246086
:1055F00023C0286021C027FD27C030ED380F3A3086
:1056000078F426FF06C0FAE01F9F300D1124132FF7
:1056100013C04AE0F49E300D1124F32E20620CC01A
:105620008E3221F426FDEEC2206406C08C3611F4C1
:10563000206802C0883641F4F40193FD859193FF00
:1056400081914F018111C1CF9BEB980F933018F4DA
:105650002061805E06C09BE9980F933008F071C10D
:105660002F7E26FF16E02F73322E853619F4206424
:10567000322E08C0863621F4F22FF0683F2E02C089
:105680001111115037FE07C01C3350F4EE24E3947F
:10569000E10E27E00BC0183038F027E017E005C016
:1056A00027E04CE3E42E02C0212FE12C520144E01C
:1056B000A40EB11CF20160817181828193810E2D53
:1056C000A3010E9442332C01098100FF02C003FFA5
:1056D00007C031FC08C032FE09C030E2232E07C0EB
:1056E0002DE2222E04C09BE2292E01C0212C802F06
:1056F0008C7019F0211068C2A8C237FE0FC0E40CEC
:1057000004FF04C08A81813309F4EA941E1474F5FD
:10571000F8E0FE1578F588E0E82E2CC036FC2AC0AB
:10572000812F90E0841595059CF02CEF42162FEF09
:10573000520674F0432D4068342E0AC0E2E0F0E0D7
:10574000EC0FFD1FE10FF11D8081803319F4115022
:105750001111F4CF37FE0EC0EE24E394E10E812F39
:1057600090E0481659062CF4141904C0EE24E39472
:1057700001C010E037FE06C01414150434F4C20151
:10578000019605C085E090E002C081E090E0211024
:105790000196112331F0212F30E02F5F3F4F820F10
:1057A000931F2F2D30E08217930714F4F81A01C0CD
:1057B000F12C832D897049F4FF2039F0B60180E285
:1057C00090E00E94BD34FA94F7CF222029F0B60170
:1057D000822D90E00E94BD3433FC09C0FF2039F0D7
:1057E000B60180E390E00E94BD34FA94F7CF37FE13
:1057F0005AC0942D852D57FE02C090E080E0292EDE
:10580000382E20E030E0A2014E1951095D874C8707
:10581000A201421953095F874E87612F70E0442728
:105820005527461B570B598B488B5FEF25163506BE
:1058300049F4B6018EE290E02A8B3B8B0E94BD3486
:105840003B892A89421453046CF04C855D854215CE
:10585000530544F4EE85FF85E20FF31FE60DF71DB7
:10586000818101C080E351E0251A31082F5F3F4F4D
:1058700048895989241635064CF0B60190E02A8BE8
:105880003B8B0E94BD342A893B89CFCF2414350439
:1058900039F49A81963318F4953311F404FF81E3B7
:1058A000B60190E04BC08A81813309F00F7EB601CA
:1058B00090E00E94BD34111105C034FC18C085E68B
:1058C00090E017C0B6018EE290E00E94BD3482E005
:1058D000EE24E394E80EF301E80FF11D8081B60198
:1058E00090E00E94BD3411508E2D91F7E6CF85E4F3
:1058F00090E0B6010E94BD3457FC05C0411451042C
:1059000039F404FF05C05194419451088DE201C05F
:105910008BE2B60190E00E94BD3480E39AE0491624
:1059200051042CF08F5F5AE0451A5108F7CFB601A9
:1059300090E00E94BD34B601C201C0960E94BD3401
:1059400057C1833631F0833779F0833509F058C079
:1059500021C05201E2E0AE0EB11CF20180818983C8
:1059600001E010E0230114C05201F2E0AF0EB11CBF
:10597000F2014080518026FF03C0612F70E002C019
:105980006FEF7FEFC2012A8B0E946E348C012A894F
:105990002F7715C05201F2E0AF0EB11CF20140802A
:1059A000518026FF03C0612F70E002C06FEF7FEFD0
:1059B000C2012A8B0E9423348C012A892068322E4E
:1059C00023FD1AC08F2D90E008171907A8F4B6011F
:1059D00080E290E00E94BD34FA94F4CFF20137FCEB
:1059E000859137FE81912F01B60190E00E94BD3470
:1059F000F110FA94015011090115110579F7F8C059
:105A0000843611F0893659F5520127FF09C0F4E0B8
:105A1000AF0EB11CF20160817181828193810AC055
:105A2000F2E0AF0EB11CF20160817181072E000C13
:105A3000880B990B2F76322E97FF09C09095809591
:105A4000709561957F4F8F4F9F4F2068322E2AE0CF
:105A500030E0A3010E942535E82EE6183FC0022F52
:105A6000853721F40F7E2AE030E01DC0097F8F3694
:105A700091F018F4883559F0C5C0803719F088378F
:105A800011F0C0C0006104FF09C0046007C024FF1A
:105A900008C0066006C028E030E005C020E130E024
:105AA00002C020E132E0520107FF09C0F4E0AF0E6E
:105AB000B11CF201608171818281938108C0F2E0A2
:105AC000AF0EB11CF2016081718180E090E0A30112
:105AD0000E942535E82EE6180F77302E36FE0BC0D3
