:100000000C947C010C949B010C949B010C949B011F
:100010000C949B010C949B010C949B010C949B01F0
:100020000C949B010C949B010C949B010C949B01E0
:100030000C94BD260C949B010C949B010C949B0189
:100040000C949B010C949B010C949B010C949B01C0
:100050000C949B010C94E1260C949B010C949B0145
:100060000C949B010C949B010C949B010C949B01A0
:100070000C949B010C949B010C949B010C949B0190
:100080000C9422260C949B010C949B010C94AE269C
:100090000C946D270C94B2270C949B010C949B013B
:1000A0000C949B010C949B010C949B010C949B0160
:1000B0000C949B010C949B010C949B010C949B0150
:1000C0000C949B010C949B010C949B010C949B0140
:1000D0000C949B010C949B010C949B010C949B0130
:1000E0000C949B010C949B010C949B010C94A81DF7
:1000F0000C94D01D0C94251E0C949B010C94F81D9F
:100100000C949B010C949B010C949B010C949B01FF
:100110000C949B010C949B010C949B010C949B01EF
:10012000FB040205E507E507E507E507EE05D3064D
:10013000E5075C07E5074A05D707E507E806DD0799
:10014000E507E507CC046C07E507E507E507E507E4
:10015000E507DF07E507E507E507E507EE05E30740
:10016000E507E507E507E507E507E507DD07E60538
:10017000340F2E0F280F220F1C0F160F100F0A0F0F
:10018000040F8F0F890F830F7D0F770F710F6B0F88
:10019000650F5F0FDB14D814D514D214CF14C0141C
:1001A000BD14BA14B7140322642261225E22F52121
:1001B0001C22FC2127222F2256226E616E00696EBE
:1001C000660000407A10F35A00A0724E1809001021
:1001D000A5D4E80000E87648170000E40B540200BC
:1001E00000CA9A3B000000E1F505000080969800E7
:1001F000000040420F000000A08601000000102710
:1002000000000000E803000000006400000000009F
:100210000A00000000000100000000002C76D888D1
:10022000DC674F0823DFC1DFAE59E1B1B796E5E3E4
:10023000E453C63AE651997696E8E6C28426EB89FD
:100240008C9B62ED407C6FFCEFBC9C9F40F2BAA59A
:100250006FA5F490055A2AF75C936B6CF9676DC132
:100260001BFCE0E40D47FEF520E6B500D0ED902E36
:100270000300943577050080841E080000204E0A94
:10028000000000C80C333333330F986E12831141D2
:10029000EF8D2114893BE65516CFFEE6DB18D1849D
:1002A0004B381BF77C1D901DA4BBE42420328472C4
:1002B0005E228100C9F124ECA1E53D274E414E4963
:1002C0004E495459494E46CDCCCC3D0AD7233C1714
:1002D000B7D13877CC2B329595E6241FB14F0A0061
:1002E0000020410000C84200401C4620BCBE4CCA51
:1002F0001B0E5AAEC59D740011241FBEC0E0D0E491
:10030000DEBFCDBF15E0A0E0B2E0EEE1FBE600E02D
:100310000BBF02C007900D92AA32B107D9F72CE0AB
:10032000AAE2B5E001C01D92AC3CB207E1F70E9421
:10033000F91A0C948D350C940000A0980895A1989A
:10034000089581E080932D05089581E080932F0525
:10035000E5E3F9E080818F7B8083089581E08093DD
:100360002E05089581E080930C02089581E080932A
:10037000B90908958FEF0E94EC1E0C94C924E5EA98
:10038000FCE06581838194810C94751FBC0183E03E
:100390000C9471210E94301B882319F081E0809316
:1003A000380C08952091450C3091460C80913F0CFB
:1003B0009091400C2817390711F410922C050895DC
:1003C0000895CF930E946624811140C020913F0C74
:1003D0003091400CC1E08091450C9091460C821701
:1003E000930711F0C0E005C040E050E060E00E94DB
:1003F000F02080912C058F5F80932C05833030F1A5
:10040000CC23A9F01092380C88E00E94781D282F88
:1004100030E02E5C3F4F4EE1429FC001439F900D64
:1004200011246AEB71E088519C4F0E945B258091FA
:10043000450C9091460C0E94C71F882339F080918B
:10044000450C9091460CCF910C941A20CF910895B1
:1004500080912C0B10920E0B882311F180913A0B96
:100460008F778130E9F480913B0B80932B0590E8E6
:10047000E7E3F9E0DF011D929A95E9F7ACE3BBE011
:100480009F019E2F921B981718F49D919193F9CF7D
:1004900087E399E00E94CC098093B7091092340950
:1004A0000895A19A6FE971E08AE090E00C945B25D1
:1004B000811106C0A19A6FE971E08AE090E011C055
:1004C00088E00E94781D282F30E02E5C3F4F4EE1DF
:1004D000429FC001439F900D11246AEB71E0885147
:1004E0009C4F0C945B25882329F06FEB71E08EE123
:1004F00090E00EC088E00E94781D90E005966AEBBF
:1005000071E02AE0AC01249FC001259F900D1124C9
:100510000C945B258F929F92AF92BF92CF92DF9205
:10052000EF92FF920F931F93CF93DF93CDB7DEB778
:1005300062970FB6F894DEBF0FBECDBF87E0898B00
:10054000AE01475F5F4F68E080E090E00E94C21E0E
:1005500089849A84AB84BC84CD84DE84EF84F8885B
:100560005FEF85169506A506B50609F070C09401E3
:10057000A501B601C70100E20E94012E69017A01BE
:100580002F3F3F4F4F4F5F4F61057105810591052B
:1005900009F050C08E010F5F1F4F88E0F8011192E3
:1005A0008A95E9F780E00E94AC1B86E00E94061C59
:1005B000780130E0DD24DA94343018F4F701D08289
:1005C0001AC03A8B0E94841B8F7E3A89863099F438
:1005D00044E020914601F7019081F4E09F9FC00123
:1005E0001124922F9076929596959770892BF7010A
:1005F0008083415071F73F5FFFEFEF1AFF0A3830F9
:10060000D9F6A80168E080E090E00E94D71EAE0114
:100610004F5E5F4F62E082E290E00E94D71E60E092
:100620008CE690E00E94123560E087E790E00E943F
:1006300012350DC0CD28CE28CF2849F0AE014F5E2F
:100640005F4F62E082E290E00E94D71E0000629657
:100650000FB6F894DEBF0FBECDBFDF91CF911F91D3
:100660000F91FF90EF90DF90CF90BF90AF909F9051
:100670008F9008950F931F93CF93DF931F92CDB761
:10068000DEB783B3876083BB84B3887F84BB84B3C6
:10069000876084BB6B9A739884B3887F84BBA09A6D
:1006A00083E18093B7096DE971E089E190E00E94F0
:1006B0005B2581E08093B9090E948A020E94071499
:1006C0006CEC76E288E293E20E945B25082F10E052
:1006D0009091B80991111EC09091B909913051F4CF
:1006E0000E94571266EB71E08CE291E00E945B255C
:1006F000182FEECF923039F4802F0E94E125812F00
:100700000E94E12507C00E948B21882309F30E94E3
:10071000DF21DECF66EB71E08CE291E00E945B2589
:10072000AE014F5F5F4F61E08EE190E00E94C21E1C
:1007300089819091F40A8F3F79F4992369F044EF0D
:100740005AE061E08EE190E00E94D71E45EF5AE04A
:1007500061E08FE190E01AC09817D1F044EF5AE0C1
:1007600061E08EE190E00E94D71E45EF5AE061E023
:100770008FE190E00E94D71E8091350982608093BE
:10078000350945E359E061E082E290E00E94D71E1E
:100790000E94BA018091B909823071F40E94D30C91
:1007A0008091350981FD08C00E946F1210922F0AB6
:1007B00082E090E00E94401200000F90DF91CF9104
:1007C0001F910F910895EF92FF920F931F93CF9374
:1007D000DF937A01FB0101900020E9F73197EF01E7
:1007E000C61BD70B0E9435320097C1F08C010C0F4D
:1007F000111DB701C8010E943532009779F0EC0154
:10080000C01BD10BAE01B8018EE398E00E94F73116
:10081000C25CD74F18828EE398E002C080E090E07F
:10082000DF91CF911F910F91FF90EF9008950E945B
:100830004F1266EB71E08CE291E00C945B257F92A5
:100840008F929F92AF92BF92CF92DF92EF92FF92E0
:100850000F931F93CF93DF937C01762E4A01EC0117
:1008600009900020E9F72197C81BD90BFA010190E4
:100870000020E9F731978F01041B150BC62ED12CF0
:10088000CC15DD0520F5C60101960E941D2E5C01E8
:10089000872D90E0C817D90748F4A801B401C50115
:1008A0000E941B327A94A00EB11EF2CFAE01B701A6
:1008B000C5010E941B32CA0DDB1D1882CC19DD094F
:1008C000A601BE01C7010E941B32CE0102C080E01A
:1008D00090E0DF91CF911F910F91FF90EF90DF900B
:1008E000CF90BF90AF909F908F907F900895BF92D0
:1008F000CF92DF92EF92FF920F931F93CF93DF93EC
:10090000CDB7DEB7AB970FB6F894DEBF0FBECDBF45
:1009100010920E0B8091B909813041F50E941704A5
:100920008091B909823011F58FE19EE40197F1F7CA
:1009300000C000008091350981FF02C082E014C030
:100940009091380C911102C083FF02C084FF02C055
:1009500083E00AC086FF0AC08091B709873019F08A
:1009600087E08093B70984E00E94990C2091380CAD
:10097000211104C08091350983FF27C3E091B70995
:100980008E2F90E0FC013197E832F10508F01DC38D
:10099000E057FF4F0C94F62D8091350983FF04C07A
:1009A00081FD02C081E00CC381FB992790F981FD94
:1009B00002C080FF0BC02091F40A222329F081E0BD
:1009C00080930C028AE0FCC29111FFC282FFEACF41
:1009D00010922D050E942E0980E8E7E3F9E0DF017F
:1009E0001D928A95E9F761EA71E08CE390E00E943C
:1009F000A42584E1E5C20E944B12882309F4DDC2DC
:100A000080E1DEC280910A0290910B02803591054F
:100A100030F4019690930B0280930A0205C0909ADD
:100A200010920B0210920A02BE016F5F7F4F82E5A7
:100A30000E949217892B09F0C8C286E0E1E2F2E039
:100A4000DE015F9601900D928A95E1F7AE01495D56
:100A50005F4FBE016F5F7F4F80E00E944219892B7C
:100A600009F0B3C28FA1883069F480932A0920E08D
:100A7000AE014F5F5F4FBE01615E7F4F80E60E9417
:100A8000ED1902C010922A098CE08093B7090E94E8
:100A90009D019BC28E010F5F1F4F8AE0F8011192EA
:100AA0008A95E9F7B80180912A090E948F1A892B4B
:100AB00009F08AC04EE352E069E0C8010E941F04B9
:100AC0004AE050E060E070E0C8010E94A42F60930B
:100AD0002B0970932C0980932D0990932E098091F6
:100AE000380C8823A1F11F930F9382E492E09F9327
:100AF0008F9301E31AE01F930F930E94B132F80124
:100B000001900020E9F7BF0162537A406093300AF8
:100B10006F5F60930E0B40E35AE080E090E00E942C
:100B2000F02080E8E7E3F9E0DF011D928A95E9F71C
:100B300087E08093B70980913509806480933509F7
:100B40000F900F900F900F900F900F9038C08091E2
:100B5000350983FF31C084FD2FC020E030E048EC30
:100B600052E46091C00C7091C10C8091C20C9091C4
:100B7000C30C0E943F2D0E94822C70933209609317
:100B8000310981E090E00E948C11892BC1F088E04E
:100B90008093B70910922E050E944D126EEA71E003
:100BA000882329F08EE190E00E94A42508C084EFFC
:100BB00091E00E945B2503C082E08093B709109208
:100BC0002F0565EA71E0EEC18DE0FAC18091020A5D
:100BD00080FFFBC18E7F8093020AF1C180913709AB
:100BE000882309F4CAC0809135098F7B8093350929
:100BF0008DE08093B7096EE472E087E399E00E948C
:100C00003532009709F4B6C04AE050E060E070E089
:100C100004960E94A42F60932B0970932C09809353
:100C20002D0990932E0963E572E087E399E00E9415
:100C300035327C018C01075F1F4F6EE270E0C80106
:100C40000E940032282F201BC8012BA70E94DC30F5
:100C50002BA5223038F49F938F937F936F938DE56C
:100C600092E008C0223091F49F938F937F936F930B
:100C70008EE592E09F938F931F930F930E94B13262
:100C80000FB6F894DEBF0FBECDBF05C063E672E0BD
:100C9000C8010E941432D70119962C91199730E09F
:100CA000205331091A964C911A9750E0405351093C
:100CB0001C966C911C9770E0605371091D96AC9165
:100CC000B0E088EE93E0289FF001299FF00D389F57
:100CD000F00D112414E6149FC001159F900D1124EE
:100CE0008E0F9F1F1AE0169FF001179FF00D112421
:100CF0008E0F9F1F8A0F9B1FC0979093320980937E
:100D00003109A352BE4F635F7D4FCA01835F9D4F80
:100D1000F901E35FFD4F2AE0C22EE12C00E02C91A7
:100D2000DB014C91DC016C9180810E94C011BFEF0E
:100D3000E7EAF1E6B150E040F040E1F700C0000022
:100D400081E090E00E948C11892B09F43EC188E07B
:100D50008093B70910922E050E944D126EEA71E041
:100D6000882319F08EE190E01FC184EF91E00E948A
:100D70005B252BC10E94A50128C180912F058130E0
:100D800011F0211122C182E090E00E944012892BD3
:100D900009F41BC1809135098F7B8093350981E06F
:100DA0000E94990C0CC18091F80A813011F08734AF
:100DB00011F48FE005C180912E05813009F005C145
:100DC00081E090E00E944012892B09F0F6C0FDC03E
:100DD0000E949811882309F46AC0C0902B09D09012
:100DE0002C09E0902D09F0902E09CA86DB86EC864E
:100DF000FD8620E030E048EC52E46091C00C709138
:100E0000C10C8091C20C9091C30C0E943F2D9B019C
:100E1000AC012BA738A749A75AA70E94822C798733
:100E200068878091C0099091C1099A8389838091D4
:100E3000BE099091BF099E838D838091F00A8B83B8
:100E40008091F10A8C838091380C2BA538A549A597
:100E50005AA581110BC08091350983FF07C081E03D
:100E60008D8BC701B6010E9476141EC01D8A809129
:100E7000310990913209BC0180E090E02BA738A79E
:100E800049A75AA70E94B12C2BA538A549A55AA558
:100E90000E94A32B0E94822C709332096093310927
:100EA000CE0101960E940F0C80E18093B70981E08A
:100EB00090E00E94401289C080910C02882309F4BE
:100EC00084C00E9417040E94050910920C0262EB74
:100ED00071E088E790E068C049E652E06BE672E0B6
:100EE00087E399E00E94E3037C01009709F450C076
:100EF000FC0101900020E9F731971E2F181B4AE2F0
:100F000055E061E081E690E00E94C21EAE01415EC4
:100F10005F4F60912A0582E690E00E94C21E00E0C9
:100F2000802F880F8117C8F46701C80ED11CD60125
:100F30008C910E94EA27B82EF60181810E94EA274F
:100F4000E1E0F0E0EC0FFD1FE00FF11D20E1B29EAB
:100F5000800D112480830F5FE3CF40912A0550E07C
:100F6000BE016F5F7F4FCE014F960E94EA31892B01
:100F700049F4809135098B7F8093350983E1809313
:100F8000B70906C08AE08093B70981E080930C021C
:100F900080912D058823C9F010922D050E942E09FD
:100FA00061EA71E08CE390E00E94A4250EC01092EB
:100FB0002F0A82E090E00E94401282E001C087E2A6
:100FC0008093B70902C00E943A03AB960FB6F8941B
:100FD000DEBF0FBECDBFDF91CF911F910F91FF906C
:100FE000EF90DF90CF90BF9008958091020A8160CA
:100FF0008093020A08959F92AF92BF92CF92DF92A0
:10100000EF92FF920F931F93CF93DF937C016B01BD
:10101000FC0101900020E9F73197EF01C81BD90BC3
:101020000C2F10E01017A8F45701A10EB11CF50108
:1010300080810E94EA27982EF50181810E94EA278B
:10104000F0E19F9E800D1124F60181936F011E5FD8
:10105000E9CF8C2F8695DF91CF911F910F91FF9053
:10106000EF90DF90CF90BF90AF909F9008950F9337
:101070001F93CF93DF938B01EB012196833009F40B
:101080004EC050F5813071F1823009F07FC08091FF
:10109000F10A1F928F938091F00A1F928F93809193
:1010A000BF098F938091BE098F938091C1098F935F
:1010B0008091C0098F9383EC92E09F938F93DF938D
:1010C000CF930E94B132ADB7BEB71C960FB6F8945D
:1010D000BEBF0FBEADBF5AC0853071F130F1863052
:1010E000B1F154C08091F10A1F928F938091F00A60
:1010F0001F928F9380E892E09F938F938AE892E00B
:101100009F938F93DF93CF930E94B132ADB7BEB759
:101110001A960FB6F894BEBF0FBEADBF37C06AE2D5
:1011200073E0CE010E94143231C087EF99E09F93A3
:101130008F938EE393E01EC084EC99E09F938F938E
:1011400088E593E09F938F93DF93CF9317C043EC91
:1011500059E061E080E091E00E94C21E8091C309E5
:101160008F3F11F41092C3098091C3091F928F938E
:1011700088E793E09F938F93DF93CF930E94B132E0
:101180000F900F900F900F900F900F90FE01019015
:101190000020E9F7EC1BD801EC938E2F8095881F77
:1011A0008827881FDF91CF911F910F9108951F937A
:1011B000CF93DF93CDB7DEB7C058D1090FB6F894FF
:1011C000DEBF0FBECDBFBE016F5F7F4F80E8FB016A
:1011D00011928A95E9F781E00E943708182F882339
:1011E00041F0AE014E5F5F4F698180E090E00E9468
:1011F000F020812FC058DF4F0FB6F894DEBF0FBE2E
:10120000CDBFDF91CF911F910895CF93DF93CDB7DD
:10121000DEB7C058D1090FB6F894DEBF0FBECDBF00
:10122000BE016F5F7F4F80E8FB0111928A95E9F75D
:1012300082E00E943708AE014E5F5F4F698180E017
:1012400090E00E94F02081E0C058DF4F0FB6F89484
:10125000DEBF0FBECDBFDF91CF910895CF93DF9357
:10126000CDB7DEB769970FB6F894DEBF0FBECDBF1E
:10127000BE016F5F7F4F89E1FB0111928A95E9F70B
:1012800083E00E943708AE014E5F5F4F698180E0C6
:1012900090E00E94F02081E069960FB6F894DEBFDE
:1012A0000FBECDBFDF91CF910895CF93DF93CDB720
:1012B000DEB7A3970FB6F894DEBF0FBECDBFBE0159
:1012C0006F5F7F4F83E2FB0111928A95E9F784E01B
:1012D0000E943708AE014E5F5F4F698180E090E069
:1012E0000E94F02081E0A3960FB6F894DEBF0FBEF7
:1012F000CDBFDF91CF910895CF93DF93CDB7DEB708
:10130000C555D1090FB6F894DEBF0FBECDBFBE01E3
:101310006F5F7F4F85E5FB0111928A95E9F785E0C4
:101320000E943708AE014E5F5F4F698180E090E018
:101330000E94F02081E0CB5ADF4F0FB6F894DEBF59
:101340000FBECDBFDF91CF910895CF93DF93CDB77F
:10135000DEB7A3970FB6F894DEBF0FBECDBFBE01B8
:101360006F5F7F4F83E2FB0111928A95E9F786E078
:101370000E943708AE014E5F5F4F698180E090E0C8
:101380000E94F02081E0A3960FB6F894DEBF0FBE56
:10139000CDBFDF91CF9108958F929F92AF92BF9270
:1013A000CF92DF92FF920F931F93CF93DF93CDB72E
:1013B000DEB7CD54D1090FB6F894DEBF0FBECDBF56
:1013C0002E969FAF8EAF2E976E0183E4C80ED11C70
:1013D00088E0F601982F11929A95E9F75E01EBE308
:1013E000AE0EB11CF50111928A95E9F7CE01019676
:1013F0004C0182E3F40111928A95E9F72C961FAE15
:101400002C97F090B7092E960EAD1FAD2E9766E87B
:1014100073E0C8010E943532892B09F499C049E66E
:1014200052E063E973E0C8010E94E303009721F1F1
:10143000B4010E94FB078BABA401682F84E290E00B
:101440000E94D71E8BA9FE01E80FF11D80818093B9
:10145000C20942EC59E061E081E690E00E94D71EAB
:10146000809135098D7F8093350945E359E061E02E
:1014700082E290E00E94D71E49E652E068E973E0FC
:101480002E968EAD9FAD2E970E94E303009791F0AC
:10149000B4010E94FB078BABAE014D5C5F4F61E076
:1014A00081E690E00E94D71EA4016BA982E690E03D
:1014B0000E94D71E49E652E069EA73E02E968EAD8F
:1014C0009FAD2E970E94E303009781F10E94E030C8
:1014D0002C963FAD2C9720E00097C9F0E32FF0E069
:1014E000EC0DFD1D213029F0282F2F70208321E0E5
:1014F00008C04081282F2295207F242B20833F5F26
:1015000020E074E0969587957A95E1F7E5CF2C96E3
:101510003FAF2C97A60168E080E090E00E94D71EC4
:10152000A50168E080E090E00E94C21EB501C601FE
:101530000E940B32892B09F05EC1809135098E7FA4
:101540008093350945E359E061E082E290E030C0E4
:1015500064EB73E0C8010E943532892B09F043C166
:1015600061EC73E0C8010E943532892B09F03EC15D
:1015700064ED73E0C8010E943532892B19F00E9496
:10158000D70839C167EE73E0C8010E943532892B54
:10159000A1F088E0E7E2F2E0DE01D39601900D923F
:1015A0008A95E1F7AE014D5C5F4F68E080E090E026
:1015B0000E94D71E60E2F62E1EC163EF73E0C801E1
:1015C0000E943532892B09F43BC044E45CE061E0C1
:1015D00082EF9FE00E94D71E4BE35CE062E084EF65
:1015E0009FE00E94D71E4DE35CE062E086EF9FE043
:1015F0000E94D71E81E02C968FAF2C97AE01455BE1
:101600005F4F61E080EF9FE00E94D71E2E96EEAD07
:10161000FFAD2E9711821082AE01445B5F4F66E0F2
:101620008AEF9FE00E94D71EF8949FE088E10FB6F2
:10163000F894A895809360000FBE90936000FFCF50
:1016400063E074E0C8010E943532892B51F149E60C
:1016500052E068E074E0C8010E94E303009709F4D7
:10166000CAC0FC0101900020E9F731978F01081BE7
:10167000190B0BAB033308F0BEC0BC0184EC99E03E
:101680000E94143261E0600F6BAB44EC59E087E7D5
:1016900090E00E94D71E809135098F77809335099D
:1016A0003AC06FE074E0C8010E943532892B19F00E
:1016B0000E947C09A0C064E174E0C8010E94353238
:1016C000892B89F149E652E064E274E0C8010E9486
:1016D000E303009709F48FC0FC0101900020E9F7B3
:1016E00031978F01081B190B0BAB0B3008F083C02F
:1016F000BC0187EF99E00E94143261E0600F6BAB90
:1017000047EF59E08CE690E00E94D71E80913609A1
:101710008E7F8093360945E359E061E082E290E0F4
:101720000E94D71E68C066E374E0C8010E9435328B
:10173000892B19F00E9455095EC066E474E0C80167
:101740000E943532892B69F00E94A50965EF77E088
:101750008CE390E00E94A4258093300558E2F52E9A
:101760004AC06DE474E0C8010E943532892B09F04B
:1017700040C069E574E0C8010E943532892B49F107
:101780001BAA49E652E063E674E0C8010E94E30345
:10179000009789F1BE016D5C7F4F0E94FB078BA90A
:1017A000863049F5F8E2FF1226C0809130050E948C
:1017B000E1250E946115882349F065EF77E08CE30D
:1017C00090E00E94A4258093300515C047E2F42ED6
:1017D00012C06FE674E0C8010E943532892B59F0BF
:1017E00038E0F32E08C02AE0F22E05C094E1F92E6D
:1017F00002C08FE1F82E8F2DC35BDF4F0FB6F89438
:10180000DEBF0FBECDBFDF91CF911F910F91FF9033
:10181000DF90CF90BF90AF909F908F900895EF9200
:10182000FF920F931F93CF93DF93CDB7DEB7CA58C4
:10183000D1090FB6F894DEBF0FBECDBF8C017E017B
:1018400081E8E80EF11C8AE0D7011D928A95E9F73C
:10185000FE01319680E8DF011D928A95E9F7F801D3
:1018600061857285838594852AE0A7010E9457329D
:10187000D80154968C9154971F928F9313968C9104
:1018800013971F928F9312968C9112971F928F939A
:1018900015968C9115978F9314968C9114978F931E
:1018A00011968C9111978F938C918F9317966D91C0
:1018B0007C91189780E090E00E94B12C20E030E00D
:1018C00048EC52E40E94102C9F938F937F936F9368
:1018D000FF92EF9287E794E09F938F938E010E5FC4
:1018E0001F4F1F930F930E94B132F8010190002007
:1018F000E9F76E2F601B69830FB6F894DEBF0FBE49
:10190000CDBF67FD07C0A80180E090E00E94F020F5
:1019100081E001C080E0C657DF4F0FB6F894DEBF0C
:101920000FBECDBFDF91CF911F910F91FF90EF9030
:101930000895CF92EF920F93813029F40F91EF9099
:10194000CF900C940C12823049F425E0C22EE12C89
:1019500000E02EE34DE66CE584E51FC0843049F4D9
:1019600095E0C92EE12C00E02EE64DE66EE38CE713
:1019700014C0833049F485E0C82EE12C00E020E05B
:1019800040E569E78DE609C0853049F4C12CE12CBA
:1019900000E020E040E060E080E00E94C0110F9194
:1019A000EF90CF9008950C94EE111F93CF93DF9397
:1019B000CDB7DEB7EC970FB6F894DEBF0FBECDBF44
:1019C000AE014F5F5F4F8CE3FA0111928A95E9F700
:1019D0008091F00A823209F491C0893209F4FBC087
:1019E000813209F074C165E184E290E00E94C21E78
:1019F0001A85612F70E0762F66278B85680F711D21
:101A0000072E000C880B990B0E94B32C20E030E0CD
:101A100048EC52E40E94102C6093C00C7093C10CEF
:101A20008093C20C9093C30C8A818093CE0810924D
:101A3000CF088C818093D0081092D1088E8180933A
:101A4000D2081092D30888858093D4081092D508C4
:101A50001093D6081092D7088C858093D8081092DE
:101A6000D9088E858093DA081092DB0888898093E4
:101A7000DC081092DD088A898093DE081092DF0866
:101A80008C898093E0081092E10882E38093E20859
:101A90001092E3081092E4081092E5081092E6080C
:101AA0001092E7081092E8081092E9089AE09093E3
:101AB000EA0884E08093EB081092EC0827E020937A
:101AC000ED089093EE088093F0081092EF0826E05E
:101AD0002093F1089093F2088093F3081092F40891
:101AE00085E08093F5088093F6081092F70881E06E
:101AF0008093F8088DE18093F908E9C060E184E201
:101B000090E00E94C21E1A85612F70E0762F662732
:101B10008B85680F711D072E000C880B990B0E9496
:101B2000B32C20E030E048EC52E40E94102C60938B
:101B3000C00C7093C10C8093C20C9093C30C8A812B
:101B40008093A7081092A8088C818093A90810920E
:101B5000AA088E818093AB081092AC088885809388
:101B6000AD081092AE081093AF081092B0088C85A3
:101B70008093B1081092B2088E858093B3081092BA
:101B8000B40888898093B5081092B6088A89809332
:101B9000B7081092B8088C898093B9081092BA08D7
:101BA00082E38093BB081092BC0882E08093BD085A
:101BB00093E09093BE088093BF0891E09093C00893
:101BC00094E09093C1088093C2081092C4088DE1FC
:101BD0008093C5087CC061E184E290E00E94C21E4F
:101BE0001A81612F70E0762F66278B81680F711D37
:101BF000072E000C880B990B0E94B32C20E030E0DC
:101C000048EC52E40E94102C6093C00C7093C10CFD
:101C10008093C20C9093C30C1093080A1092090A87
:101C20008C8180930A0A10920B0A8E8180930C0A91
:101C300010920D0A888580930E0A10920F0A8A85E9
:101C40008093100A1092110A8E858093120A8C8557
:101C50008093130A1092140A8F858093150A86E2E6
:101C60008093160A95E09093170A8093180A86E1EC
:101C70008093190A8EE180931A0A8DE280931B0AE1
:101C800010921C0A80931D0A10921E0A83E0809312
:101C90001F0A8093200A8093210A8093220A80EAF7
:101CA0008093230A8BE98093240A83E78093260A92
:101CB00084E08093270A8DE18093280A1092290AF4
:101CC00010922A0A10922B0A81E080932C0AEC963B
:101CD0000FB6F894DEBF0FBECDBFDF91CF911F913D
:101CE0000895AF92BF92CF92DF92EF92FF920F933F
:101CF0001F93CF93DF938C0198E0F92EC02E0E94A2
:101D00000427F801D080D39482E00E942127C02FBD
:101D1000D12F82E0E82E8C2F8C198D1540F45E01B6
:101D200089910E942127F5018081E826F4CF8E2D2C
:101D30000E9421271092BF0C78940E94DA2680918D
:101D4000BF0C863420F40E945027882339F00E946B
:101D5000D8268091BF0C863440F00DC00E948B21A4
:101D6000882369F30E94DF21EACF0E945C27863036
:101D700069F0893049F08FED9EE20197F1F700C0DC
:101D80000000FA94F110BBCF80E001C081E0DF9148
:101D9000CF911F910F91FF90EF90DF90CF90BF9068
:101DA000AF900895CF93DF93CDB7DEB72B970FB6E3
:101DB000F894DEBF0FBECDBFCE0101962BE0FC0133
:101DC00011922A95E9F72091F50A233009F0E4C031
:101DD0002091F00A223209F461C0293209F4ABC023
:101DE000213209F0D9C02AE0298322E72A83E09131
:101DF000F60A4E2F50E0FA013197E930F105D0F59F
:101E0000E854FF4F0C94F62D2091DE082B8320918F
:101E1000DF082FC02091DC082B832091DD0829C02A
:101E20002091DA082B832091DB0823C02091D80869
:101E30002B832091D9081DC02091D6082B83209197
:101E4000D70817C02091D4082B832091D50811C042
:101E50002091D2082B832091D3080BC02091D00869
:101E60002B832091D10805C02091CE082B8320918F
:101E7000CF082C832091F70A213049F0223009F055
:101E80008BC02091E2082D832091E30805C02091AA
:101E9000E0082D832091E1082E837EC02AE029836B
:101EA00022E72A83E091F60A4E2F50E0FA0131979B
:101EB000E930F105D0F5EF53FF4F0C94F62D20914A
:101EC000B7082B832091B8082FC02091B5082B8329
:101ED0002091B60829C02091B3082B832091B40823
:101EE00023C02091B1082B832091B2081DC02091FE
:101EF000AF082B832091B00817C02091AD082B8329
:101F00002091AE0811C02091AB082B832091AC0822
:101F10000BC02091A9082B832091AA0805C020910D
:101F2000A7082B832091A8082C832091BB082D8320
:101F30002091BC08B1CF2AE0298322E72A8320918F
:101F4000F60A243050F42230C0F42130E1F420911C
:101F50000A0A2B8320910B0A15C0243041F025304A
:101F600091F420910E0A2B8320910F0A0BC020912F
:101F7000080A2B832091090A05C020910C0A2B83A3
:101F800020910D0A2C832091130A2F832091140A8B
:101F900028872091150A29870E94710E2B960FB66B
:101FA000F894DEBF0FBECDBFDF91CF910895DF92D1
:101FB000EF92FF920F931F93CF93DF937C010E94C8
:101FC0005C27C82F823009F50E945C27D82FF701C3
:101FD00080818D17D0F0CD27DE2C8701802F8D19C1
:101FE0008D1738F40E945C27F80181938F01C82770
:101FF000F5CF0E945C27C81305C086E00E94212708
:1020000081E004C085E10E94212780E0DF91CF912B
:102010001F910F91FF90EF90DF900895CF93DF9382
:10202000CDB7DEB76A970FB6F894DEBF0FBECDBF4F
:102030008091F50A833009F05FC02AE1CE01019654
:10204000FC01322F11923A95E9F729830E94D70FAC
:10205000882309F451C09981913709F04DC09A81C4
:10206000905E9093F40A9B819093F60A9C819093E2
:10207000F70A9D819093F80A9E819093F90A9F81B7
:102080009093FA0A98859093FB0A99859093FC0A9D
:102090009A859093FD0A9B859093FE0A9C85909368
:1020A000FF0A9D859093000B9E859093010B9F8561
:1020B0009093020B98899093030B99899093040B4A
:1020C0009A899093050B9B899093060B9C8990931A
:1020D000070B9D899093080B9E899093090B9F890C
:1020E00090930A0B988D90930B0B998D90930C0BFA
:1020F0009A8D90930D0B01C080E06A960FB6F8940C
:10210000DEBF0FBECDBFDF91CF9108951F93CF9358
:10211000DF9300D0CDB7DEB71A8219828091F50A1D
:10212000833021F481E0898380E78A83CE010196A0
:102130000E94710E811102C080E015C00E940E1035
:10214000182F8823C9F39091350991FB882780F9CE
:1021500091FD09C08FED9EE20197F1F700C00000EC
:102160000E94D20E812F0F900F90DF91CF911F917F
:102170000895CF93DF93CDB7DEB76F970FB6F8947E
:10218000DEBF0FBECDBF2FE1CE010196FC01322F85
:1021900011923A95E9F729830E94D70F882379F0A5
:1021A0009A819093C9089B819093CA089C819093CF
:1021B000CB089F819093FA0899899093FB086F96BA
:1021C0000FB6F894DEBF0FBECDBFDF91CF9108955B
:1021D000CF93DF93CDB7DEB72A970FB6F894DEBF63
:1021E0000FBECDBF8AE0EFE2F2E0DE011196019072
:1021F0000D928A95E1F789E0898383E78A831E82BD
:1022000081E08F8380E18887198682E08A87CE010A
:1022100001960E94710E81110E94B9102A960FB684
:10222000F894DEBF0FBECDBFDF91CF9108958091AE
:10223000F50A833059F48091F90A80FD02C0883094
:1022400029F481E09091FA0A903209F080E0089533
:102250008091F90A883039F081E09091FA0A98303B
:1022600019F080E001C081E081700895CF93DF9381
:10227000CDB7DEB727970FB6F894DEBF0FBECDBF40
:10228000CE01019627E0FC0111922A95E9F74091D1
:10229000F50A2091310930913209433031F44983F4
:1022A00041E44A833B832C830CC045E0498341E4ED
:1022B0004A833B832C832091CE082D832091CF0825
:1022C0002E830E94710E27960FB6F894DEBF0FBEC4
:1022D000CDBFDF91CF910895CF93DF9300D000D091
:1022E000CDB7DEB719821A821B821C828091F50A53
:1022F000833039F4898384E68A838EE18B8381E09D
:102300008C83CE0101960E94710E0F900F900F905A
:102310000F90DF91CF910895813011F080E0089502
:102320000E946C118823D1F390E8909333090895AB
:10233000CF93DF93CDB7DEB727970FB6F894DEBF04
:102340000FBECDBFCE01019627E0FC0111922A9568
:10235000E9F726E029832AE62A83E4EFFAE03385C9
:102360003B8324852C833D832E830E94710E279608
:102370000FB6F894DEBF0FBECDBFDF91CF910895A9
:10238000CF92EF920F93CF93DF93CDB7DEB729971C
:102390000FB6F894DEBF0FBECDBFFE01319699E0B7
:1023A000DF011D929A95E9F798E0998390E69A8368
:1023B0008B836C834D832E830F83E886C986CF0180
:1023C0000E94710E29960FB6F894DEBF0FBECDBFE6
:1023D000DF91CF910F91EF90CF900895CF92EF9230
:1023E0000F9360910E0285E0C82EE12C00E0209151
:1023F0000D02462F80E50E94C011882349F02FEF7F
:1024000037EA91E6215030409040E1F700C00000EB
:102410000F91EF90CF900895CF92EF920F93CF93BB
:1024200094E0C92EE12C00E02EE540E567E789E362
:102430000E94C011C82F8823E9F02FEF37EA81E608
:10244000215030408040E1F700C0000083E0C82EFA
:1024500020E040E560E589E70E94C011882351F043
:102460009FEF27EA31E6915020403040E1F700C06D
:102470000000C82F8C2FCF910F91EF90CF9008952F
:10248000813011F080E008950E9436118823D1F345
:102490001092330908950C9428110C9417110E947E
:1024A0008610882319F082E08093B90908950E946C
:1024B000E810882319F083E08093F50A8FE39FE109
:1024C0000197F1F700C000000E944F128091F40ABA
:1024D0008093F00A8091F50A8093F10A0895CF93D2
:1024E000DF93CDB7DEB7EC970FB6F894DEBF0FBE23
:1024F000CDBFFE0131968CE3DF011D928A95E9F78D
:102500009091F00A923209F498C0993209F404C10A
:10251000913209F070C182E389839A838091C9085E
:102520008B838091CA088C838091CB088D838091A6
:10253000CC088E838091CD088F838091CE088887C8
:102540008091CF0889878091D0088A878091D108AF
:102550008B878091D2088C878091D3088D8780915A
:10256000D4088E878091D5088F878091D608888B74
:102570008091D708898B8091D8088A8B8091D9085F
:102580008B8B8091DA088C8B8091DB088D8B80910E
:10259000DC088E8B8091DD088F8B8091DE08888F20
:1025A0008091DF08898F8091E0088A8F8091E1080F
:1025B0008B8F8091E2088C8F8091E3088D8F8091C2
:1025C000E5088E8F8091E4088F8F8091E60888A3BC
:1025D0008091E70889A38091E8088AA38091E9089F
:1025E0008BA38091EA088CA38091EB088DA38EA326
:1025F0008091ED088FA38091EE0888A78091F00864
:1026000089A78091F1088BA78091F2088CA780910F
:10261000F4088DA78091F3088AA78091F5088FA709
:102620008091F60888AB8091F70889AB8091F80813
:102630008AAB8091F9088BABDEC082E389839A83F1
:102640008091A2088B838091A3088C838091A40839
:102650008D838091A5088E838091A6088F838091B9
:10266000A70888878091A80889878091A9088A8708
:102670008091AA088B878091AB088C878091AC08E9
:102680008D878091AD088E878091AE088F8780916D
:10269000AF08888B8091B008898B8091B1088A8BB4
:1026A0008091B2088B8B8091B3088C8B8091B40899
:1026B0008D8B8091B5088E8B8091B6088F8B809121
:1026C000B708888F8091B808898F8091B9088A8F60
:1026D0008091BA088B8F8091BB088C8F8091BC0849
:1026E0008D8F8091BE088E8F8091BD088F8F8091D5
:1026F000BF0888A38091C00889A38091C1088AA3DC
:102700008091C2088BA38091C3088CA38091C408D8
:102710008DA38091C5086EC085E289839A838091DC
:10272000030A8B838091040A8C838091050A8D8330
:102730008091060A8E838091070A8F838091080A10
:1027400088878091090A89878091100A8A878091F9
:10275000110A8B878091120A8E878091130A8C87C9
:102760008091140A8D878091150A8F878091160AAF
:10277000888B8091170A898B8091180A8A8B8091A7
:10278000190A8B8B80911A0A8C8B80911B0A8D8B76
:1027900080911C0A8E8B80911D0A8F8B80911E0A5E
:1027A000888F80911F0A898F8091200A8A8F80915B
:1027B000210A8B8F8091220A8C8F8091230A8D8F22
:1027C0008091240A8E8F8091250A8F8F8091260A0E
:1027D00088A38091270A89A38091280A8AA38091DF
:1027E000290A8BA380912A0A8CA380912B0A8DA39E
:1027F00080912C0A8EA3CF010E94710EEC960FB629
:10280000F894DEBF0FBECDBFDF91CF91089545E3B1
:1028100059E062E082E290E00E94C21E40EF5AE07E
:1028200062E08EE190E00E94C21E1092BA091092FE
:10283000BB091092BC091092BD0981E090E0909311
:10284000BF098093BE099093C1098093C00980910C
:1028500035098F7B8093350981FD47C00E94D50CD7
:102860008091350984608093350942EC59E061E03C
:1028700081E690E00E94C21E8091C2098823C9F0BF
:102880008091350988608093350943EC59E061E017
:1028900080E091E00E94C21E8091C3098F3F49F4FD
:1028A0001092C30943EC59E061E080E091E00E949E
:1028B000D71E8BE0E7EFF9E0DF011D928A95E9F77B
:1028C00083E3E4ECF9E0DF011D928A95E9F747EF35
:1028D00059E06AE08CE690E00E94C21E44EC59E0A8
:1028E00062E387E790E00C94C21E0895CF93DF93D4
:1028F000CDB7DEB767970FB6F894DEBF0FBECDBF7A
:1029000021E02F8B28E12E8B6A877B878C879D8720
:102910008091C0099091C1099A8389838091F40ABA
:102920008B838091F50A8C838091F60A8F832091A6
:10293000BE093091BF093E832D839091F00A9232F7
:1029400059F0993201F19132D9F5482F50E0FA014E
:102950003197E930F10538F0482F50E0FA0131970E
:10296000E930F10580F4E653FF4F0C94F62D809189
:10297000B80823C08091B60820C08091B4081DC05B
:102980008091B2081AC0833081F028F4813099F028
:10299000823071F015C0843029F0853089F480913F
:1029A0000F0A0BC080910B0A08C08091110A05C064
:1029B00080910D0A02C08091CF0890E099878887A6
:1029C0001E861F86188A198A1A8A1B8A1C8A81E029
:1029D0008D8B43EC59E061E080E091E00E94C21EE3
:1029E0008091C3098F3F29F09091C209891708F09F
:1029F00048C081508E3F50F01092C309AE014A5E2C
:102A00005F4F62E081E091E00E94D71E8091C30990
:102A100025E1829FC0011124AE014F5F5F4F65E148
:102A2000885E9E4F0E94D71E8091C3098F5F80935E
:102A3000C30943EC59E061E080E091E00E94D71EB9
:102A40008091350985FD0AC080628093350945E390
:102A500059E062E082E290E00E94D71E9091C309A3
:102A60008091C209981323C08091350980618093B9
:102A7000350945E359E062E082E290E00E94D71E0A
:102A800016C045E359E061E082E290E00E94C21E78
:102A900080913509877F80618093350945E359E04E
:102AA00061E082E290E00E94D71E80E001C081E0F8
:102AB00067960FB6F894DEBF0FBECDBFDF91CF9102
:102AC0000895CF93DF93CDB7DEB767970FB6F8942D
:102AD000DEBF0FBECDBF43EC59E061E080E091E086
:102AE0000E94C21E8091C30981508E3F78F5AE01CD
:102AF0004A5E5F4F62E081E091E00E94C21EAE013B
:102B00004F5F5F4F65E18E899F890E94C21ECE0193
:102B100001960E940F0C8823C9F08E899F894596E3
:102B20009F8B8E8B8091C30981508093C309AE0126
:102B30004A5E5F4F62E081E091E00E94D71E43EC65
:102B400059E061E080E091E00E94D71E8091C309C6
:102B500081110DC0809135098F7D8F7E809335095D
:102B600045E359E061E082E290E00E94D71E809147
:102B7000C30967960FB6F894DEBF0FBECDBFDF91D5
:102B8000CF9108951F93CF93DF931F92CDB7DEB7F8
:102B900064E670E00E94AC2D162F40E861E08AE206
:102BA00079830E94B41A66EA8BE20E94961A8AE23E
:102BB0000E94AA1A807F682F62608AE20E94961A99
:102BC000612F8DE20E94961A7981672F8CE20E9414
:102BD000961A80E090E00F90DF91CF911F910895B9
:102BE0006FE081E00E94961A60E485E10E94961AE7
:102BF00048E060E088E00E94B41A82E10E94AA1ACC
:102C00008870682F606882E10E94961A83E10E94B2
:102C1000AA1A8870682F606883E10E94961A6DE690
:102C200089E10E94961A68E486E20E94961A65E598
:102C300088E10E94961A66E284E20E94961A64EF86
:102C400087E20E94961A88E893E10E94C21543E049
:102C500061E084E10E94B41A40E461E08CE00E94EB
:102C6000B41A84E00E94AA1A80FFFBCF61E084E0DE
:102C70000E94961A88E893E10E94C2156AE18BE0EF
:102C80000E94961A60E186E10E94961A64E887E144
:102C90000E94961A60E081E00E94961A80ED97E00B
:102CA0000C94C2159F92AF92BF92CF92DF92EF9297
:102CB000FF920F931F93CF93DF93182F7B01EA01AD
:102CC00062E484E00E94961A60E085E00E94961A11
:102CD00060E88AE00E94961A81E00E94AA1A682F92
:102CE000607F1C3009F46C6081E00E94961AD093DA
:102CF0003205C0933105103108F063C0812F90E098
:102D0000FC01EE0FFF1FE65FFA4FC081D181FC018D
:102D1000E650FB4FC080FC01E651FB4F0081FC01F7
:102D2000E652FB4F9080209709F050C082E00E944D
:102D3000AA1A682F6C2982E00E94961A83E00E94EA
:102D4000AA1A682F83E00E94961AD12CE0913105CF
:102D5000F09132058381D81648F4F701ED0DF11D8D
:102D6000608189E00E94961AD394F0CF1C3031F430
:102D700040E861E08DE00E94B41A09C081E00E9441
:102D8000AA1A807F682F612B81E00E94961AAA24DC
:102D9000A394BA2C10E0002371F0812F802359F402
:102DA00084E00E94AA1A182F85E00E94AA1A81E0E6
:102DB000A81AB10881F701231170C12FE0E0DE2FBE
:102DC00005C0912CC12C02E4C3E0D1E04C2D60E0A1
:102DD00082E00E94B41A40E060E083E00E94B41AEE
:102DE000992009F47EC0209709F07BC0C09031057E
:102DF000D09032058AE00E94AA1AF60184838CE002
:102E00000E94AA1AE0913105F0913205877090E096
:102E10009683858386E00E94AA1A182F882309F4D6
:102E200046C083FD05C081FF05C0C3E0D0E002C0FD
:102E3000C6E0D0E010FD22C014FD23C012FF19C06F
:102E4000E0913105F0913205C481C130E9F485810A
:102E500096818B7F892BC1F489E00E94AA1AF70121
:102E60008083E0913105F0913205C483C2E0D2E065
:102E70000DC016FF0BC0C4E0DEE708C0CBE0D0E019
:102E800005C0C9E0D0E002C0C2E0D0E017FD05C037
:102E9000209729F4CCE0D0E002C0CDE0D0E060E0A3
:102EA00086E00E94961AC230F2E0DF07D1F010E00F
:102EB000E0913105F09132058481181750F46701D3
:102EC000C10ED11C89E00E94AA1AF60180831F5FFF
:102ED000EFCF25813681232B21F0882311F08150FB
:102EE0008483602F84E00E94961A60E085E00E944F
:102EF000961A60E88AE00E94961A61E084E00E94D7
:102F0000961A60E08DE00E94961ACE01DF91CF9173
:102F10001F910F91FF90EF90DF90CF90BF90AF90F7
:102F20009F9008951F93CF93DF93182FEB0148E0F4
:102F300060E088E00E94B41A60E88EE00E94961A71
:102F400040E860E082E10E94B41A40E860E083E17A
:102F50000E94B41A67E08DE00E94961A1092240B2A
:102F60001092250B1092260B1092280B10922A0B10
:102F70001092290B10922B0B1093100B81E0809371
:102F8000270B80E991E00E94C21544E25BE060E11A
:102F90007BE08CE00E945216882311F0863089F481
:102FA0009091280B923081F42091290B30912A0BBB
:102FB000232B51F42091100B3091110B398328836E
:102FC00004C01882198201C08BE090E0DF91CF919C
:102FD0001F9108956F927F929F92AF92BF92CF926E
:102FE000DF92EF92FF920F931F93CF93DF931F9285
:102FF000CDB7DEB7E82EF62E3A011092120B1092E2
:10300000130B1092140B1092150B1092160B40E834
:1030100060E082E10E94B41A40E860E083E10E942F
:10302000B41A60E08EE00E94961AB62C84E0C82E96
:10303000D12C30E23F1508F4A9C02F2D27709F2D09
:10304000969596959695222321F0AA24A394A90EED
:1030500001C0A92EE092100B80E2820FE0E19E9F5A
:10306000800D11248093110BA2E1BBE0F3018E2FA0
:103070008B198A1518F481918D93F9CFF0E12F9F68
:10308000B0011124622B8DE029830E94961A1092C0
:10309000240B1092250B1092260B1092280B1092E5
:1030A0002A0B1092290B10922B0B82E08A0D809331
:1030B000270B80E197E20E94C21544E25BE060E1E9
:1030C0007BE08CE00E9452168C01298186309105AC
:1030D00019F0892B09F05FC06091290B70912A0BC0
:1030E0008091280BA62F38E0839FA00D1124A21BEE
:1030F0004F2D50E04A0F511D493251050CF049C087
:10310000672B19F08F5F8093280B4A2D50E0222304
:1031100059F0FA013197E60DF71D90818091100B5F
:10312000892B8083B1E001C0B0E0A12CC601841BD3
:10313000950B6B2F70E02A2D30E02817390774F4B7
:10314000F901E05FF44FE60FF71F9080260D371D61
:10315000F901E40FF51F9082A394EDCF063011051D
:1031600011F4FA0E66CFF301918180818927928153
:10317000892793818927205F344FF901EB0FF11DD7
:103180009081891741F001E015E005C001E011E0F0
:1031900002C004E010E060E08DE00E94961A60E852
:1031A0008EE00E94961AC8010F90DF91CF911F9177
:1031B0000F91FF90EF90DF90CF90BF90AF909F90D6
:1031C0007F906F900895FF920F931F93CF93DF939B
:1031D000F82EEB018A0140E861E082E10E94B41A16
:1031E00040E861E083E10E94B41AF092100B80E79E
:1031F0008093110BFE01A2E1BBE0CE010496219168
:103200002D93E817F907D9F79981888189279A8141
:1032100089279B8189278093160B1092240B10928B
:10322000250B1092260B1092280B10922A0B10924D
:10323000290B10922B0B87E08093270B80ED97E0F2
:103240000E94C21544E25BE060E17BE08CE00E94FA
:103250005216009789F42091280B213059F42091BF
:10326000290B30912A0B232B29F42091100BF80104
:10327000208302C084E090E0DF91CF911F910F91F5
:10328000FF9008956F927F928F929F92AF92BF921C
:10329000CF92DF92EF92FF920F931F93CF93DF9322
:1032A000CDB7DEB72D970FB6F894DEBF0FBECDBFFA
:1032B0007B016A019E012F5F3F4F590120E030E002
:1032C00010E08823A1F0813240F000EE080F1130A9
:1032D00061F0123071F580E205C0113051F012300A
:1032E00099F400E067E9962E12C080E203C0113025
:1032F00089F400E06A807B808C80F70160827182B3
:10330000828255E9952E03C000E043E9942E803275
:1033100031F411C0123029F300E093E9992E211500
:10332000310509F5A501682F892D0E94EA179C0136
:1033300002C083E9982E21153105A9F4AE01435F3F
:103340005F4FB501892D0E94E3189C01892B19F468
:103350008D8582FF08C01F5FF4E0AF0EB11C1330F3
:10336000D1F0802FAECF113061F01230A1F48D81F9
:103370009E81AF81B885F70186839783A087B18747
:1033800013C08D819E81AF81B885F70183839483BB
:10339000A583B68309C089819A81AB81BC81F7017D
:1033A00080839183A283B3838D85F6018083C901D5
:1033B0002D960FB6F894DEBF0FBECDBFDF91CF9133
:1033C0001F910F91FF90EF90DF90CF90BF90AF9043
:1033D0009F908F907F906F900895CF93DF9310927E
:1033E000240B1092250B1092260B1092270B109293
:1033F000280B10922A0B1092290B10922B0B809302
:10340000100B2093110B86E0FB01A2E1BBE00190C1
:103410000D928A95E1F7FA0180819181A281B381B1
:103420008093180B9093190BA0931A0BB0931B0B5E
:103430008CE08093270B80ED97E00E94C21544E258
:103440005BE060E17BE08EE00E945216EC01892B8C
:1034500041F488E00E94AA1A8F70883011F0C1E010
:10346000D2E0CE01DF91CF910895CF93DF93EB01AE
:103470001092240B1092250B1092260B1092280B01
:1034800010922A0B1092290B10922B0B90E3909321
:10349000100B8093110B82E08093270B80E197E261
:1034A0000E94C21544E25BE060E17BE08CE00E9498
:1034B00052160097E9F081309105A1F02091290B77
:1034C00030912A0B2430310569F48091100B982F2C
:1034D0009F709093100B8A7019F085E091E002C004
:1034E00081E092E020E1FE0111922A95E9F714C0F3
:1034F0002091280B203141F080E1FE0111928A9544
:10350000E9F788E090E008C020E1E0E1FBE0DE01BF
:1035100001900D922A95E1F7DF91CF9108958830BF
:1035200011F481E001C084E00C94351ACF93DF934D
:103530001F92CDB7DEB7880F71988E7769830E948E
:10354000E91A6981862F0E94E91A719A0F90DF911A
:10355000CF910895880F8E77719880680E94E91A3C
:103560000E94EE1A719A08951F93CF93DF9300D0B3
:10357000CDB7DEB7182F4A8369830E94AA1A6981E2
:103580004A81662319F0682F642B03C0642F60956D
:103590006823812F0F900F90DF91CF911F910C9492
:1035A000961ACF93DF931F92CDB7DEB784B18760B1
:1035B00084B92398289A82E08DB9719A299882E576
:1035C0008CBD8DB589838EB589830F90DF91CF91A6
:1035D00008958EBD0DB407FEFDCF08958FEF8EBD0B
:1035E0000DB407FEFDCF8EB508950E94D11A0C943C
:1035F000F015F8940FB6F894A89580916000886152
:1036000080936000109260000FBE80E090E00E9406
:1036100009270E9411260E94D02678940E943A031E
:103620000E94F51A78940E9477040E94DF21FACF55
:1036300080913901869581700895809133058111BB
:1036400004C080915C018093330580913305089517
:10365000809146018F71809334051092470C089534
:103660000E941D1B823019F080913405089586E177
:1036700008958091AC0B0895CF9395EF980F9031FA
:1036800018F5C82F0E94181B811120C08091480195
:103690008F718C17E9F080914801807E9C2F9F717B
:1036A000892B80934801809141018F71863011F000
:1036B000893021F48DE291E00197F1F78091480182
:1036C0008F718C1307C004C082E405C084E403C07A
:1036D00080E401C083E4CF910895663098F48111AD
:1036E00004C080914301886003C080914301877FBB
:1036F0008093430180914301887F682B609343014D
:1037000080E4089582E40895809141018F710895C5
:10371000E9E3F1E080818D7F80838DE090E0019787
:10372000F1F7E2E4F1E08081807E8360808383E0D2
:1037300090E00197F1F70895E9E3F1E0808181607D
:10374000808380818D7F80838DE090E00197F1F709
:1037500080818E7F808308950F931F93CF93DF9393
:103760001F92CDB7DEB70DEF13E0F8013197F1F7F7
:1037700089830E949C1B90914201907E936090935C
:103780004201F8013197F1F79CE490934E0190913A
:103790004901907F976090934901898181110E942E
:1037A0004D1E80E40F90DF91CF911F910F910895EE
:1037B000CF93C82F0E941D1B823031F480910500E9
:1037C000C0FB87F9809305000E941D1B833061F4C4
:1037D0002091040030E2C39FC00111248072922F17
:1037E0009F7D892B80930400CF91089580914101A2
:1037F000982F9F709150923038F0982F9F7181E0F0
:103800009E3119F080E0089581E00895CF93C82F8C
:1038100088EF8C0F823038F08C2F8F7E863019F035
:10382000C93109F055C00E94181B811153C00E9474
:10383000F61B8111FCCF0E941D1B823039F40E94BF
:103840006624882319F0C63109F4C6E0809141014D
:103850008F71C81709F440C0C83019F40E94881B42
:1038600031C0C93159F48930E1F090914201907E24
:10387000996090934201863181F40CC0C63189F47D
:10388000893079F090914201907E99609093420145
:10389000893119F4E3E0F0E002C0E9E6F1E03197A4
:1038A000F1F790914201907E2C2F2F71922B9093E3
:1038B0004201883019F489E691E002C083E090E08B
:1038C0000197F1F7809141018F718C1307C004C0FB
:1038D00082E405C084E403C080E401C083E4CF91A6
:1038E0000895CF93DF9300D000D01F92CDB7DEB7FD
:1038F000809141018F718C838C81813151F08C8159
:10390000863039F08C81813021F08C81863109F04C
:103910005FC040917B0150E060E871E08DE29BE088
:103920000E94F73180917B0180932C0BE0917B0109
:10393000F0E0E45DF44F80818093AC0B19821B8230
:103940001A8220912D0B80912E0B90E0982F8827C2
:10395000820F911D90932E0B80932D0B813628E8BA
:10396000920709F140F4833028E0920781F0811535
:10397000904899F028C083362CE8920701F18336ED
:1039800028EC9207D1F083369848E9F40EC0809174
:10399000380C8823C1F085E115C00E946624882375
:1039A00091F084E10FC080E10DC08091360B823030
:1039B00031F08B3B31F0813031F487E103C088E195
:1039C00001C089E18983CE0101960E94942135C00E
:1039D0008C81823049F08C81823131F08C81893147
:1039E00019F08C81893049F51092470C19821B829D
:1039F0001A82809142018295869587708D838D8190
:103A0000833049F020F4823040F481E105C08530F4
:103A100021F482E101C083E189838981882321F037
:103A2000CE0101960E94942186E10E94061C80919D
:103A30009400909195000E94992F0F900F900F90F5
:103A40000F900F90DF91CF9108950F931F93CF9315
:103A5000C82F8B0187FD2BC00E94F61B8111FCCF64
:103A600089E10E94061C809141018F718931C1F763
:103A7000F801858196819093460C8093450C4C2FDC
:103A800050E04E5F5F4FB80181E891E00E94F7314E
:103A9000CE5FC093800180913901826080933901AB
:103AA000809139018D7F8093390180E401C082E4E7
:103AB000CF911F910F910895EEE6F1E0908180FB88
:103AC00093F9908308958093620190936301089520
:103AD00080936001909361010895E4E6F1E0DC01D8
:103AE0002D91CD012193EC36B1E0FB07C1F708958C
:103AF000CF93DF93C82FD09141010E941D1B8330CB
:103B000039F4DF70D630F1F4C69590E020E009C0BA
:103B10000E941D1B8338A9F30E941D1B873091F45E
:103B2000F0CF9C1769F08091460144E0249F9001FA
:103B300011248076829586958770282B9F5FF1CF20
:103B4000822F02C00E94952FDF91CF910895089592
:103B50001F920F920FB60F9211240BB60F922F9354
:103B60003F934F935F936F937F938F939F93AF9305
:103B7000BF93EF93FF930E94281BFF91EF91BF919A
:103B8000AF919F918F917F916F915F914F913F91F5
:103B90002F910F900BBE0F900FBE0F901F90189596
:103BA0001F920F920FB60F9211240BB60F922F9304
:103BB0003F934F935F936F937F938F939F93AF93B5
:103BC000BF93EF93FF930E94711CFF91EF91BF9100
:103BD000AF919F918F917F916F915F914F913F91A5
:103BE0002F910F900BBE0F900FBE0F901F90189546
:103BF0001F920F920FB60F9211240BB60F922F93B4
:103C00003F934F935F936F937F938F939F93AF9364
:103C1000BF93EF93FF93809141018F71863111F033
:103C20000E94711CFF91EF91BF91AF919F918F9175
:103C30007F916F915F914F913F912F910F900BBEAC
:103C40000F900FBE0F901F9018951F920F920FB6F6
:103C50000F9211240BB60F922F933F934F935F93C4
:103C60006F937F938F939F93AF93BF93EF93FF9344
:103C70000E942425FF91EF91BF91AF919F918F9169
:103C80007F916F915F914F913F912F910F900BBE5C
:103C90000F900FBE0F901F901895CF92DF92EF926A
:103CA000FF920F931F93CF93DF9300D0CDB7DEB772
:103CB00010913505112311F011E058C081E0809377
:103CC0003505F0906600F89461E00E946D1BC0908D
:103CD000B100D0908100E09080001092B10010926D
:103CE00081001092800088EE93E043E056E03FEFC1
:103CF0004093B100509381001092B2001092850061
:103D00001092840036BB37BBB89BFECF6091840015
:103D1000709185007A836983109281001092B100BE
:103D200069817A816D3F714020F4209166002150B5
:103D300008C069817A816330724048F02091660042
:103D40002F5F20936600019799F600E001C001E023
:103D500060E081E00E946D1BC092B100D0928100B2
:103D6000E09280000111A8CFF0926600812F0F90A1
:103D70000F90DF91CF911F910F91FF90EF90DF9007
:103D8000CF900895CF93DF931F92CDB7DEB7FC019C
:103D9000CA013FB73983F894462F50E0BF010E9413
:103DA000023589818FBF0F90DF91CF910895CF9316
:103DB000DF931F92CDB7DEB7FC01CA013FB739834D
:103DC000F894462F50E0BF010E94243589818FBFAF
:103DD0000F90DF91CF9108951F93CF93DF93CDB7CD
:103DE000DEB728970FB6F894DEBF0FBECDBF182FF1
:103DF0002FEF3FEF30933C0C20933B0C30933E0C65
:103E000020933D0C1092380C3093400C20933F0CC3
:103E10003093420C2093410C1092430C1092470CAB
:103E200081E08093480C0E94AC1B1093440C1F3F10
:103E300019F0812F0E943C1B81E00E94D81B88E072
:103E40000E94061C0E94A71D86E10E94061C40E3FA
:103E50005CE068E080E090E00E94C21E80E00E948A
:103E60005C1D8FEF9FEF0E94681D8FEF9FEF0E94F8
:103E7000631D80916C018F70806280936C018091D2
:103E8000300C89838091310C8A838091320C8B8332
:103E90008091330C8C838091340C8D838091350C10
:103EA0008E838091360C8F838091370C8887CE016A
:103EB00001960E946D1D0E94352028960FB6F89439
:103EC000DEBF0FBECDBFDF91CF911F9108958093CC
:103ED000440C0C943C1B809162060E94E125909159
:103EE000380C81E089270C945802CF93DF93EC01C2
:103EF000862F0E94671FEEEAFBE083E698EC928330
:103F00008183A0E3BCE01A968C911A9791E0980FF8
:103F10001A969C931A9783831B968D919C911C975C
:103F200095838483D783C6838C91808711968C91E7
:103F30001197818712968C911297828713968C9194
:103F40001397838714968C911497848715968C9178
:103F50001597858716968C911697868717968C915C
:103F6000878781E0808BD28BC18B82E0838B6FEA65
:103F70007BE083E10E94251D6BE67FE188EE93E004
:103F80000E945B2580936206DF91CF910895009790
:103F900061F0E6E3F5E0208131812817390739F037
:103FA000339626E0E236F207B1F780E0089581E02B
:103FB0000895E6E3F5E0DF0120E030E04D915C910B
:103FC00011974817590769F4F901EE0FFF1F2E0FDB
:103FD0003F1FF901E85CFA4F80818E7F8D7F8083DF
:103FE00008952F5F3F4F13962436310539F720E0AF
:103FF00030E0422F60817181672BA9F4F901EE0F47
:10400000FF1F2E0F3F1FF901EA5CFA4F9183808357
:10401000F901E85CFA4F90819E7F9D7F9083842F09
:1040200090E00C9451022F5F3F4F339624363105B8
:1040300001F70895E6E3F5E020E030E040815181AA
:104040004817590759F4F901EE0FFF1F2E0F3F1FB4
:10405000F901EA5CFA4F1182108208952F5F3F4FF9
:1040600033962436310551F7089508950895FC01DB
:1040700095859F7795870895EEEAFBE080E090E8CC
:1040800092838183A0E3BCE019968C91199791E00B
:10409000980F19969C93199783831B968D919C91E9
:1040A0001C97958384831D968D919C911E97978371
:1040B00086838FEF90E09187808786E08287539692
:1040C0008C9183876FEA7BE08BE00C94251D6FEA6F
:1040D0007BE08091AE0B0C94251DEF92FF920F9325
:1040E0001F93CF93DF93E0913D0CF0913E0C8E1720
:1040F0009F0709F46EC08F3F3FEF930709F469C033
:104100003091380C332309F464C0C22F7A01D62FC2
:104110008C0181E698E89093B00B8093AF0B80916F
:104120003A0C91E0980F90933A0C8093B10B8091E8
:104130003B0C90913C0C9093B30B8093B20BF0939B
:10414000B70BE093B60B1093B90B0093B80BF09339
:10415000BB0BE093BA0BC8010E943E24C63029F481
:104160001093B50B0093B40B08C080913F0C909155
:10417000400C9093B50B8093B40BC093BC0BF7012C
:104180002DEB3BE0D9018A2F821B8D1718F481910A
:104190008D93F9CF8091B40B9091B50B20913D0C8C
:1041A00030913E0C82179307A1F0019691F0D25FF7
:1041B000D093AE0BC650C23018F087E090E002C03A
:1041C00080E090E067E670E20E945B2581E08093EA
:1041D000470CDF91CF911F910F91FF90EF900895C1
:1041E00021E00C946D2080913A0B8F77833029F178
:1041F00028F4813041F08230D1F00895843019F1F3
:10420000863019F008950C94280280913B0B909110
:104210003C0B4091340B5091350B20913F0C309169
:10422000400C42175307A9F499270C94362080912B
:10423000380B9091390B0C94C6018091380B9091FA
:10424000390B0C94CA0180913B0B90913C0B0C9460
:104250001A2008950F931F93CF93DF93CDB7DEB746
:1042600060970FB6F894DEBF0FBECDBF81E698E829
:104270009A83898300E31CE0F801828591E0980F1E
:1042800092878B83838594859D838C838585968592
:10429000998788879D878C878091650690916606AF
:1042A0009B878A87809163068E870E94301B8F8749
:1042B0000E94391B888BF801878590899F838E83A4
:1042C000BE016F5F7F4F80E10E94251D60960FB693
:1042D000F894DEBF0FBECDBFDF91CF911F910F913C
:1042E000089520913D0C30913E0C6217730791F0B8
:1042F0009091380C992371F070936606609365066F
:1043000090E090936406809363060E942A2181E0E6
:104310008093470C08952091490C90914A0C81E0BC
:10432000291301C080E00895CF93DF93EC01409101
:10433000490C242F30E0E0914A0CC90101966EE14E
:1043400070E00E94C02D6E2F70E086179707A9F0CD
:10435000F901EE0FFF1F2E0F3F1FF901E75BF34F2F
:1043600088819981AA8182839383A48381E0840FC9
:104370008E3108F080E08093490CDF91CF91089551
:10438000CF93DF931F92CDB7DEB780914A0C89831C
:10439000898190E09C01220F331F820F931F855B60
:1043A000934F29812F5F298329812E3108F01982AB
:1043B000298120934A0C0F90DF91CF910895CF93DC
:1043C000C1E00E948B21882309F481C00E94C02192
:1043D000DC01EC914E2F50E0FA017097EA30F105C4
:1043E00080F7ED52FF4F0C94F62D8091380C81111F
:1043F000E8CF0E946924E5CFDC011196ED91FC9194
:1044000012970995DECF8091380C8823D1F28DE286
:104410009BE00E9437202091360B3091370B809122
:104420003D0C90913E0C2817390719F40E94F32097
:10443000C8CF0E94E523C5CF8091380C882309F2AC
:104440006CE370E281E090E00E945B25BACF80913E
:10445000380C882309F4B5CF0E944423B2CF809151
:104460002E0B8C38D9F480912D0B8336B9F4C09380
:10447000380C80913A0B90913B0B9093400C8093B9
:104480003F0C80913D0B90913E0B90933E0C80939E
:104490003D0C0E94681D0E946B1F93CF8091380CC9
:1044A000882309F48ECF0E94B5228BCF8091380CDF
:1044B000882309F486CF0E94692283CF0E94E001FD
:1044C00080CF0E94E1017DCF0E94D2017ACFCF91AF
:1044D000089580912C0B92E8ECE2FBE0AEEABBE0A1
:1044E00001900D929A95E1F79091380C9923E1F1A2
:1044F0008C508695E82FF0E0EE0FFF1FE954F44F43
:10450000208131813093420C2093410C823060F144
:10451000815023E638E83093B00B2093AF0B909195
:104520003A0C21E0290F20933A0C9093B10B90E0C4
:10453000FC01EE0FFF1FE754F44F208131813093CF
:10454000B50B2093B40B20913D0C30913E0C309371
:10455000B70B2093B60B9BEB9093B80B8B5F6FEA76
:104560007BE0880F0C94251D08958091380C8823DA
:1045700009F489C02091370B3091380B80913D0CA4
:1045800090913E0C2817390709F04BC083E69CE850
:104590009093AF0B8093AE0B80913A0C91E0980F03
:1045A00090933A0C8093B00B80913B0C90913C0C13
:1045B0009093B20B8093B10B8091390B8093B30B26
:1045C00080913A0B8093B40B80913B0B8093B50B99
:1045D00080913C0B8093B60B80913D0B8093B70B81
:1045E00080913E0B8093B80B80913F0B8093B90B69
:1045F0008091400B8093BA0B3093BC0B2093BB0B84
:1046000082E08093BD0B8091410B9091420B90937F
:10461000BF0B8093BE0B0E94D91F6EEA7BE082E144
:1046200030C022E8ECE2FBE0AEEABBE001900D9284
:104630002A95E1F720913A0C31E0320F30933A0C91
:104640002093B10B2091410C3091420C3093B50B6B
:104650002093B40B9093B70B8093B60B8091B90B5A
:104660009091BA0B0E94C71F882341F08091B90B2B
:104670009091BA0B9093B50B8093B40B6FEA7BE0EB
:1046800086E10C94251D0895CF93DF93CDB7DEB757
:1046900065970FB6F894DEBF0FBECDBFA0912E0B6D
:1046A00080913A0CE0913B0CF0913C0C60913F0CF6
:1046B0007091400C40913D0C50913E0C3091390B63
:1046C00020913A0B90913B0BA83C81F5A3E6B8E80A
:1046D000BA83A983A1E0A80FA0933A0C8B83FD8332
:1046E000EC837F836E835987488781E08A87409176
:1046F0003D0B50913E0B5C874B878091340B8D872F
:104700008091350B8E878091360B8F878091370B88
:10471000888B8091380B898B3A8B2B8B9C8B80916B
:104720003F0B8D8BBE016F5F7F4F43C0A3E6B8E8A0
:10473000B093AF0BA093AE0BA1E0A80FA0933A0CDF
:104740008093B00BF093B20BE093B10B7093B40B6A
:104750006093B30B5093B60B4093B50B81E08093FD
:10476000B70B4091370B5091380B5093B90B4093D6
:10477000B80B3093BA0B2093BB0B9093BC0B80917A
:104780003C0B8093BD0B80913D0B8093BE0B8091C1
:104790003E0B8093BF0B80913F0B8093C00B8091A9
:1047A000400B8093C10B8091410B8093C20B6EEA4A
:1047B0007BE085E10E94251D65960FB6F894DEBF6B
:1047C0000FBECDBFDF91CF91089582E8ECE2FBE010
:1047D000AEEABBE001900D928A95E1F7A09A6DE9EF
:1047E00071E08AE090E00E945B258091B80B909187
:1047F000B90B0E94C71F90913A0C20913D0C30914B
:104800003E0C882359F081E0890F80933A0C9093F5
:10481000B10B8091B80B9091B90B15C040913F0C32
:104820005091400C6091B60B7091B70B81E0890FED
:1048300080933A0C9093B10B6417750749F48091FB
:10484000410C9091420C9093B50B8093B40B04C033
:104850005093B50B4093B40B3093B70B2093B60B2A
:104860008091B40B9091B50B019639F08091AE0B0D
:104870006FEA7BE082500C94251D089580E0089536
:10488000CF93DF93ECE2FBE02091AC0BC5EADCE0D8
:104890008181928184E0989F812D992711248883BA
:1048A000848195819A838983868197819C838B8378
:1048B000838589878091440C81508D831E822A874D
:1048C0000E94301B8B87DF91CF91089580916706FE
:1048D0000895CF938091AC0B4091340B5091350BE0
:1048E00090916706992361F19091360B963041F5CE
:1048F0002091AC0C3091AD0C5093AD0C4093AC0CAE
:104900009091AD0C97FF05C03093AD0C2093AC0C8B
:1049100017C09091AF0C981718F4CF910C944024C5
:1049200098130EC09091AE0C8091370B8917A8F3A5
:10493000981306C0C091B00C0E94301BC81768F3D2
:10494000CF910895CF93C1E08091AA0C8F3F11F4CD
:10495000C0E01BC08091A60C9091A70C90933C0CDA
:1049600080933B0C2091A80C3091A90C3093400C03
:1049700020933F0C0E94631D8091AA0C0E94671F28
:104980009091AE0C9F5F9093430C8C2FCF910C9421
:1049900073028091440C8F3FB1F491E090936706CD
:1049A00096E1E5EAFCE0DF011D929A95E9F7809334
:1049B000AA0C8BE08093440C80911E028038A9F0F1
:1049C0008093440C12C08B3148F490E020911E0279
:1049D00030E02F5F3F4F8217930739F4109267063C
:1049E0008FEF8093440C0C94A2248091440C0E947D
:1049F000671F83E098E09093B00B8093AF0B80919A
:104A0000390C91E0980F9093390C8093B10B8FEF94
:104A10009FEF9093B30B8093B20B9093B50B809361
:104A2000B40B87E08093B60B6FEA7BE088E00E94CE
:104A3000251D8091440C8F5F8093440C69EC74E2D7
:104A400084E190E00C945B250895809168068F5F67
:104A500009F481E020E030E091E0F901E053F94F02
:104A60004281481301C090E02B5F3F4F243631054F
:104A7000A1F720E030E0F901E459F94F42814813F1
:104A800001C090E02B5F3F4F24363105A1F79923F9
:104A9000F1F280936806089580916B0681110AC037
:104AA000109295001092940082E08093710081E052
:104AB00080936B0608950F931F93CF93DF931F92FC
:104AC000CDB7DEB7009719F4FB01099512C02FB7D7
:104AD0002983F894A0EDB6E020E030E04D915C91A0
:104AE0001197452B41F02F5F3F4F1596243131052B
:104AF000A9F780E023C045E0429FD001439FB00D5D
:104B00001124A053B94F009711F481E090E08D93E8
:104B10009C9385E0829F8001839F100D1124005398
:104B2000194FF801748363830E942525F80182835D
:104B30000E944C2589818FBFF80182810F90DF91FF
:104B4000CF911F910F9108950F931F93CF93DF93F0
:104B50001F92CDB7DEB7009719F4FB0109950FC07E
:104B6000ACE6B6E020E030E04D915C911197452B2A
:104B700041F02F5F3F4F159624313105A9F780E0B2
:104B80001AC045E0429F8001439F100D1124045933
:104B9000194FF80191838083748363830E942525D4
:104BA000F80182838FB78983F8940E944C2589810C
:104BB0008FBFF80182810F90DF91CF911F910F91EC
:104BC0000895E2EDF6E020E030E09081981309C00E
:104BD00085E0829FF001839FF00D1124E053F94F8F
:104BE00015C02F5F3F4F35962431310571F7EEE642
:104BF000F6E020E030E0908198130CC085E0829FC1
:104C0000F001839FF00D1124E459F94F11821082B5
:104C1000128208952F5F3F4F35962431310559F7A1
:104C20000895E1E9F0E080818A60808380ED97E07B
:104C300090939900809398008091940090919500B2
:104C40000C94992F1F920F920FB60F9211240BB64E
:104C50000F92FF920F931F932F933F934F935F9366
:104C60006F937F938F939F93AF93BF93EF93FF9334
:104C7000CF93DF9300D01F92CDB7DEB78091690646
:104C800090916A06019690936A06809369068091D6
:104C90001F0290912002019749F090932002809387
:104CA0001F0200ED16E096E1F92E24C084EF91E09A
:104CB0009093200280931F020CE616E086E1F82E06
:104CC000F80180819181009771F001979183808331
:104CD000892B49F4F982838194819B838A83CE0155
:104CE00001960E9494210B5F1F4FF6E0003D1F07C5
:104CF00039F7D7CFF80180819181009771F0019742
:104D000091838083892B49F4F982838194819B83E9
:104D10008A83CE0101960E9494210B5F1F4FF7E01A
:104D200004331F0739F70F900F900F90DF91CF9149
:104D3000FF91EF91BF91AF919F918F917F916F9173
:104D40005F914F913F912F911F910F91FF900F9085
:104D50000BBE0F900FBE0F901F9018951F920F92D1
:104D60000FB60F9211248F9382E0809335078F91B5
:104D70000F900FBE0F901F9018951F920F920FB6B5
:104D80000F9211248F9381E0809334078F910F90BD
:104D90000FBE0F901F90189581E08093B809089579
:104DA00082E085BB80936E0016BC1092BF0C089504
:104DB00015BC08958EE487BD82E084BD85E085BD85
:104DC00008951F920F920FB60F9211248F93809126
:104DD000BF0C8F5F8093BF0C8F910F900FBE0F9011
:104DE0001F901895FC019181DF01A90FB11D12964A
:104DF0002C918081981731F09F5F97FD90E091830F
:104E0000822F08958FEF0895EAE3F7E01182108270
:104E10000895EAE3F7E011821082ECEBF7E01182EB
:104E2000108228E92093C90026E02093CA0010923E
:104E3000CD0027E62093CC00909339078093380764
:104E400008959091360791112AC078949091BC07EB
:104E50009F5F97FD90E0309137072091BD07921337
:104E600003C03323D1F308C0E091BC07F0E0E45461
:104E7000F84F82839093BC078091C90085FD0FC0D5
:104E80008091C80085FFFCCF8CEB97E00E94F22652
:104E90008093CE008091C90080628093C9000895FC
:104EA00080913A0790E020913B07821B910997FF80
:104EB00002C080589F4F089580913A0790E020915A
:104EC0003B07821B910997FF02C080589F4F8823A0
:104ED00099F38AE397E00C94F2261F920F920FB693
:104EE0000F9211240BB60F922F933F934F935F9322
:104EF0006F937F938F939F93AF93BF93EF93FF93A2
:104F00008091CE0091E09093370790913A079F5F90
:104F100097FD90E020913B07921741F0E0913A070E
:104F2000F0E0E65CF84F828390933A0710923707DF
:104F3000E0913807F0913907309709F00995FF9112
:104F4000EF91BF91AF919F918F917F916F915F9101
:104F50004F913F912F910F900BBE0F900FBE0F906E
:104F60001F9018951F920F920FB60F9211240BB637
:104F70000F922F933F934F935F936F937F938F93F2
:104F80009F93AF93BF93EF93FF939091BC07809152
:104F9000BD07981739F08CEB97E00E94F2268093BA
:104FA000CE0005C08091C9008F7D8093C900FF911C
:104FB000EF91BF91AF919F918F917F916F915F9191
:104FC0004F913F912F910F900BBE0F900FBE0F90FE
:104FD0001F901895982F80ED890F8A3070F08FEB15
:104FE000890F863010F489EC05C08FE9890F86306F
:104FF00018F489EA890F089580E008952F923F926E
:105000004F925F926F927F928F929F92AF92BF92D8
:10501000CF92DF92EF92FF920F931F93CF93DF9384
:10502000CDB7DEB763970FB6F894DEBF0FBECDBF26
:105030006C014B012A01FC0117821682838181FFDA
:1050400043C3AE014F5F5F4F3A01F6019381F40114
:1050500093FD859193FF81914F01882309F430C31B
:10506000853239F493FD859193FF81914F0185320B
:1050700039F4B60190E00E94793252012501E5CF62
:1050800010E0F12C20E02032A0F48B3269F030F4F3
:10509000803259F0833269F420612CC08D3239F0AE
:1050A000803339F4216026C02260246023C0286048
:1050B00021C027FD27C030ED380F3A3078F426FFA5
:1050C00006C0FAE01F9F300D1124132F13C04AE0D1
:1050D000F49E300D1124F32E20620CC08E3221F488
:1050E00026FDEEC2206406C08C3611F4206802C092
:1050F000883641F4F40193FD859193FF81914F012E
:105100008111C1CF9BEB980F933018F42061805E22
:1051100006C09BE9980F933008F071C12F7E26FFDF
:1051200016E02F73322E853619F42064322E08C013
:10513000863621F4F22FF0683F2E02C01111115073
:1051400037FE07C01C3350F4EE24E394E10E27E051
:105150000BC0183038F027E017E005C027E04CE31B
:10516000E42E02C0212FE12C520144E0A40EB11C18
:10517000F20160817181828193810E2DA3010E94D1
:10518000FE302C01098100FF02C003FF07C031FC83
:1051900008C032FE09C030E2232E07C02DE2222EC5
:1051A00004C09BE2292E01C0212C802F8C7019F0A5
:1051B000211068C2A8C237FE0FC0E40C04FF04C06F
:1051C0008A81813309F4EA941E1474F5F8E0FE151F
:1051D00078F588E0E82E2CC036FC2AC0812F90E0BC
:1051E000841595059CF02CEF42162FEF520674F0B3
:1051F000432D4068342E0AC0E2E0F0E0EC0FFD1FC2
:10520000E10FF11D8081803319F411501111F4CF99
:1052100037FE0EC0EE24E394E10E812F90E0481695
:1052200059062CF4141904C0EE24E39401C010E0D4
:1052300037FE06C01414150434F4C201019605C0EB
:1052400085E090E002C081E090E0211001961123FA
:1052500031F0212F30E02F5F3F4F820F931F2F2D12
:1052600030E08217930714F4F81A01C0F12C832D53
:10527000897049F4FF2039F0B60180E290E00E9485
:105280007932FA94F7CF222029F0B601822D90E0EE
:105290000E94793233FC09C0FF2039F0B60180E367
:1052A00090E00E947932FA94F7CF37FE5AC0942DDD
:1052B000852D57FE02C090E080E0292E382E20E098
:1052C00030E0A2014E1951095D874C87A2014219B5
:1052D00053095F874E87612F70E044275527461B8F
:1052E000570B598B488B5FEF2516350649F4B601ED
:1052F0008EE290E02A8B3B8B0E9479323B892A898F
:10530000421453046CF04C855D854215530544F4FA
:10531000EE85FF85E20FF31FE60DF71D818101C0C9
:1053200080E351E0251A31082F5F3F4F48895989A2
:10533000241635064CF0B60190E02A8B3B8B0E9478
:1053400079322A893B89CFCF2414350439F49A81E4
:10535000963318F4953311F404FF81E3B60190E01D
:105360004BC08A81813309F00F7EB60190E00E9424
:105370007932111105C034FC18C085E690E017C0E1
:10538000B6018EE290E00E94793282E0EE24E3944E
:10539000E80EF301E80FF11D8081B60190E00E9454
:1053A000793211508E2D91F7E6CF85E490E0B60169
:1053B0000E94793257FC05C04114510439F404FFAE
:1053C00005C05194419451088DE201C08BE2B601B1
:1053D00090E00E94793280E39AE0491651042CF063
:1053E0008F5F5AE0451A5108F7CFB60190E00E944E
:1053F0007932B601C201C0960E94793257C1833614
:1054000031F0833779F0833509F058C021C052015B
:10541000E2E0AE0EB11CF2018081898301E010E070
:10542000230114C05201F2E0AF0EB11CF201408022
:10543000518026FF03C0612F70E002C06FEF7FEF45
:10544000C2012A8B0E942A328C012A892F7715C02B
:105450005201F2E0AF0EB11CF2014080518026FFF4
:1054600003C0612F70E002C06FEF7FEFC2012A8B93
:105470000E94DF318C012A892068322E23FD1AC058
:105480008F2D90E008171907A8F4B60180E290E08C
:105490000E947932FA94F4CFF20137FC859137FEFD
:1054A00081912F01B60190E00E947932F110FA94B7
:1054B000015011090115110579F7F8C0843611F072
:1054C000893659F5520127FF09C0F4E0AF0EB11C2F
:1054D000F20160817181828193810AC0F2E0AF0E96
:1054E000B11CF20160817181072E000C880B990BB1
:1054F0002F76322E97FF09C0909580957095619513
:105500007F4F8F4F9F4F2068322E2AE030E0A3015B
:105510000E94E132E82EE6183FC0022F853721F4C1
:105520000F7E2AE030E01DC0097F8F3691F018F41D
:10553000883559F0C5C0803719F0883711F0C0C0E0
:10554000006104FF09C0046007C024FF08C00660B2
:1055500006C028E030E005C020E130E002C020E1D4
:1055600032E0520107FF09C0F4E0AF0EB11CF201B6
:10557000608171818281938108C0F2E0AF0EB11C1D
:10558000F2016081718180E090E0A3010E94E1322C
:10559000E82EE6180F77302E36FE0BC0332D3E7FF7
:1055A000E11650F434FE0AC032FC08C0332D3E7EB2
:1055B00005C00E2D332D03C00E2D01C0012F34FF69
:1055C0000CC0FE01EE0DF11D8081803311F4397E97
:1055D00008C032FF05C00E5F04C0832F867809F033
:1055E0000F5F33FD13C030FF06C01E2D0F1518F4DA
:1055F0001F0D101B0F2D0F1568F4B60180E290E00F
:105600003B8B0E9479320F5F3B89F5CF0F1510F469
:10561000F01A01C0F12C34FF12C0B60180E390E013
:105620003B8B0E9479323B8932FF17C031FD03C0AA
:1056300088E790E002C088E590E0B6010CC0832FB7
:10564000867859F031FF02C08BE201C080E237FD5D
:105650008DE2B60190E00E947932E11638F4B6018D
:1056600080E390E00E9479321150F7CFEA94F30181
:10567000EE0DF11D8081B60190E00E947932E110BB
:10568000F5CF14C0F4E0FF1558F584E0F81A33FEA6
:105690001EC0211026C003FF2AC00AEB11E0F32D23
:1056A000F0713F2EF8018491811124C0FF2009F48C
:1056B000E5CCB60180E290E00E947932FA94F6CF10
:1056C000F6018681978126C08FEF9FEF23C0B60138
:1056D00080E290E00E947932FA94F110F8CFD9CFAD
:1056E000F12CB601822D90E00E947932D4CF0EEBDE
:1056F00011E0D5CF31108052B60190E00E9479328E
:105700000F5F1F4FCFCF23E02F1510F483E0BECFE4
:10571000F12CC1CF63960FB6F894DEBF0FBECDBF9C
:10572000DF91CF911F910F91FF90EF90DF90CF907D
:10573000BF90AF909F908F907F906F905F904F90B1
:105740003F902F9008955058BB27AA270E94BB2B4B
:105750000C94052D0E94F72C38F00E94FE2C20F0AE
:1057600039F49F3F19F426F40C94F42C0EF4E095D0
:10577000E7FB0C94EE2CE92F0E94162D58F3BA1774
:10578000620773078407950720F079F4A6F50C9457
:10579000382D0EF4E0950B2EBA2FA02D0B01B90178
:1057A00090010C01CA01A0011124FF27591B99F097
:1057B000593F50F4503E68F11A16F040A22F232FA3
:1057C000342F4427585FF3CF469537952795A795F3
:1057D000F0405395C9F77EF41F16BA0B620B730B9A
:1057E000840BBAF09150A1F0FF0FBB1F661F771F0B
:1057F000881FC2F70EC0BA0F621F731F841F48F4C0
:10580000879577956795B795F7959E3F08F0B0CF48
:105810009395880F08F09927EE0F9795879508952F
:105820000E94242C0C94052D0E94FE2C58F00E94FE
:10583000F72C40F029F45F3F29F00C94EE2C511125
:105840000C94392D0C94F42C0E94162D68F3992396
:10585000B1F3552391F3951B550BBB27AA2762176C
:105860007307840738F09F5F5F4F220F331F441F79
:10587000AA1FA9F335D00E2E3AF0E0E832D09150AD
:105880005040E695001CCAF72BD0FE2F29D0660F9A
:10589000771F881FBB1F261737074807AB07B0E8DD
:1058A00009F0BB0B802DBF01FF2793585F4F3AF0E3
:1058B0009E3F510578F00C94EE2C0C94392D5F3FEF
:1058C000E4F3983ED4F3869577956795B795F79569
:1058D0009F5FC9F7880F911D9695879597F9089551
:1058E000E1E0660F771F881FBB1F621773078407ED
:1058F000BA0720F0621B730B840BBA0BEE1F88F7FC
:10590000E09508950E941E2D88F09F5798F0B92FBA
:105910009927B751B0F0E1F0660F771F881F991FE4
:105920001AF0BA95C9F714C0B13091F00E94382D21
:10593000B1E008950C94382D672F782F8827B85F31
:1059400039F0B93FCCF3869577956795B395D9F73C
:105950003EF490958095709561957F4F8F4F9F4F46
:105960000895E89409C097FB3EF490958095709552
:1059700061957F4F8F4F9F4F9923A9F0F92F96E99B
:10598000BB279395F695879577956795B795F11110
:10599000F8CFFAF4BB0F11F460FF1BC06F5F7F4FAD
:1059A0008F4F9F4F16C0882311F096E911C07723BF
:1059B00021F09EE8872F762F05C0662371F096E8C8
:1059C000862F70E060E02AF09A95660F771F881F97
:1059D000DAF7880F9695879597F9089597F99F6755
:1059E00080E870E060E008959FEF80EC0895002467
:1059F0000A941616170618060906089500240A9434
:105A000012161306140605060895092E0394000CB9
:105A100011F4882352F0BB0F40F4BF2B11F460FF48
:105A200004C06F5F7F4F8F4F9F4F089557FD905871
:105A3000440F551F59F05F3F71F04795880F97FB52
:105A4000991F61F09F3F79F087950895121613060C
:105A50001406551FF2CF4695F1DF08C0161617063B
:105A60001806991FF1CF8695710561050894089570
:105A7000E894BB2766277727CB0197F908950E9402
:105A8000522D0C94052D0E94F72C38F00E94FE2C0C
:105A900020F0952311F00C94EE2C0C94F42C11248E
:105AA0000C94392D0E94162D70F3959FC1F3950F1C
:105AB00050E0551F629FF001729FBB27F00DB11D92
:105AC000639FAA27F00DB11DAA1F649F6627B00D22
:105AD000A11D661F829F2227B00DA11D621F739F0B
