:100000000C947C010C949B010C949B010C949B011F
:100010000C949B010C949B010C949B010C949B01F0
:100020000C949B010C949B010C949B010C949B01E0
:100030000C942F270C949B010C949B010C949B0116
:100040000C949B010C949B010C949B010C949B01C0
:100050000C949B010C94CB150C949B010C949B016C
:100060000C949B010C949B010C949B010C949B01A0
:100070000C949B010C949B010C949B010C949B0190
:100080000C9494260C949B010C949B010C942027B7
:100090000C94B9270C94FE270C949B010C949B01A3
:1000A0000C949B010C949B010C949B010C949B0160
:1000B0000C949B010C949B010C949B010C949B0150
:1000C0000C949B010C949B010C949B010C949B0140
:1000D0000C949B010C949B010C949B010C949B0130
:1000E0000C949B010C949B010C949B010C941A1E84
:1000F0000C94421E0C94971E0C949B010C946A1E47
:100100000C949B010C949B010C949B010C949B01FF
:100110000C949B010C949B010C949B010C949B01EF
:1001200096049C040B080B080B080B0899058C0619
:100130000B0884070B08E4040B080B08A106000851
:100140000B080B08670494070B080B0809080E0737
:100150000B0802080B080B080B080B08990506088A
:100160000B080B080B080B080B080B08000891057F
:100170000210FC0FF60FF00FEA0FE40FDE0FD80F9E
:10018000D20F5D10571051104B1045103F10391011
:1001900033102D10CF14CC14C914C614C314B414C6
:1001A000B114AE14AB147522D622D322D02267220A
:1001B0008E226E229922A122C8226E616E00696E83
:1001C000660000407A10F35A00A0724E1809001021
:1001D000A5D4E80000E87648170000E40B540200BC
:1001E00000CA9A3B000000E1F505000080969800E7
:1001F000000040420F000000A08601000000102710
:1002000000000000E803000000006400000000009F
:100210000A00000000000100000000002C76D888D1
:10022000DC674F0823DFC1DFAE59E1B1B796E5E3E4
:10023000E453C63AE651997696E8E6C28426EB89FD
:100240008C9B62ED407C6FFCEFBC9C9F40F2BAA59A
:100250006FA5F490055A2AF75C936B6CF9676DC132
:100260001BFCE0E40D47FEF520E6B500D0ED902E36
:100270000300943577050080841E080000204E0A94
:10028000000000C80C333333330F986E12831141D2
:10029000EF8D2114893BE65516CFFEE6DB18D1849D
:1002A0004B381BF77C1D901DA4BBE42420328472C4
:1002B0005E228100C9F124ECA1E53D274E414E4963
:1002C0004E495459494E46CDCCCC3D0AD7233C1714
:1002D000B7D13877CC2B329595E6241FB14F0A0061
:1002E0000020410000C84200401C4620BCBE4CCA51
:1002F0001B0E5AAEC59D740011241FBEC0E0D0E491
:10030000DEBFCDBF15E0A0E0B2E0EEE2FCE600E02B
:100310000BBF02C007900D92AA32B107D9F72CE0AB
:10032000AAE2B5E001C01D92AD3CB207E1F70E9420
:100330006B1B0C9415360C940000A0980895A1989E
:10034000089581E080932D05089581E080932F0525
:10035000E4E3F9E080818F7B8083089581E08093DE
:100360002E05089581E080930C02089581E080932A
:10037000B90908958FEF0E945E1F0C943B25E1EBB5
:10038000FCE06581838194810C94E71FBC0183E0CC
:100390000C94E3210E94A21B882319F081E0809332
:1003A000440C08952091510C3091520C80914B0CCB
:1003B00090914C0C2817390711F410922C050895D0
:1003C0000895CF930E94D82481113EC020914B0CF8
:1003D00030914C0CC1E08091510C9091520C8217DD
:1003E000930711F0C0E005C040E050E060E00E94DB
:1003F000622180912C058F5F80932C05CC23A9F07E
:100400001092440C88E00E94EA1D282F30E02E5CF8
:100410003F4F4EE1429FC001439F900D11246AEB74
:1004200071E088519C4F0E94CD258091510C909194
:10043000520C0E943920882339F08091510C909100
:10044000520CCF910C948C20CF9108958091380B51
:1004500010920F0B882311F18091460B8F7781301A
:10046000E9F48091470B80932B0590E8E6E3F9E0EF
:10047000DF011D929A95E9F7A8E4BBE09F019E2F4A
:10048000921B981718F49D919193F9CF86E399E008
:100490000E94B9098093B709109233090895A19A6F
:1004A0006FE971E08AE090E00C94CD25811107C0DE
:1004B000A19A6FE971E08AE090E00C94CD2508954F
:1004C000882329F06FEB71E08EE190E00EC088E0A8
:1004D0000E94EA1D90E005966AEB71E02AE0AC010B
:1004E000249FC001259F900D11240C94CD258F923F
:1004F0009F92AF92BF92CF92DF92EF92FF920F93B3
:100500001F93CF93DF93CDB7DEB762970FB6F89402
:10051000DEBF0FBECDBF87E0898BAE01475F5F4F67
:1005200068E080E090E00E94341F89849A84AB8464
:10053000BC84CD84DE84EF84F8885FEF8516950651
:10054000A506B50609F070C09401A501B601C70162
:1005500000E20E941C2E69017A012F3F3F4F4F4F4E
:100560005F4F610571058105910509F050C08E014D
:100570000F5F1F4F88E0F80111928A95E9F780E03C
:100580000E941E1C86E00E94781C780130E0DD2469
:10059000DA94343018F4F701D0821AC03A8B0E94F2
:1005A000F61B8F7E3A89863099F444E0209146010B
:1005B000F7019081F4E09F9FC0011124922F907663
:1005C000929596959770892BF7018083415071F72A
:1005D0003F5FFFEFEF1AFF0A3830D9F6A80168E055
:1005E00080E090E00E94491FAE014F5E5F4F62E0E5
:1005F00082E290E00E94491F60E08CE690E00E9459
:100600009A3560E087E790E00E949A350DC0CD28CA
:10061000CE28CF2849F0AE014F5E5F4F62E082E204
:1006200090E00E94491F000062960FB6F894DEBF6A
:100630000FBECDBFDF91CF911F910F91FF90EF9033
:10064000DF90CF90BF90AF909F908F9008950F93C1
:100650001F93CF93DF931F92CDB7DEB783B387602D
:1006600083BB84B3887F84BB84B3876084BB6B9A6D
:10067000739884B3887F84BBA09A83E18093B70981
:100680006DE971E089E190E00E94CD2581E08093E1
:10069000B9090E9477020E94FB1366EB75E188E2BC
:1006A00093E20E94CD25082F10E09091B809911196
:1006B0001EC09091B909913051F40E94511266EB1D
:1006C00071E08CE291E00E94CD25182FEECF9230A0
:1006D00039F4802F0E945326812F0E94532607C091
:1006E0000E94FD21882309F30E945122DECF66EB90
:1006F00071E08CE291E00E94CD25AE014F5F5F4F2B
:1007000061E08EE190E00E94341F89819091F50AAA
:100710008F3F79F4992369F045EF5AE061E08EE16B
:1007200090E00E94491F46EF5AE061E08FE190E0BF
:100730001AC09817D1F045EF5AE061E08EE190E0E1
:100740000E94491F46EF5AE061E08FE190E00E946D
:10075000491F8091340982608093340944E359E051
:1007600061E082E290E00E94491F0E94BA018091FC
:10077000B909823039F40E94DD0C8091340981FF7F
:100780000E94631200000F90DF91CF911F910F9193
:100790000895EF92FF920F931F93CF93DF937A0107
:1007A000FB0101900020E9F73197EF01C61BD70B41
:1007B0000E9450320097C1F08C010C0F111DB7013F
:1007C000C8010E945032009779F0EC01C01BD10B98
:1007D000AE01B8018EE398E00E941232C25CD74F9E
:1007E00018828EE398E002C080E090E0DF91CF9124
:1007F0001F910F91FF90EF9008950E94491266EBB0
:1008000071E08CE291E00C94CD258F929F92AF9293
:10081000BF92CF92DF92EF92FF920F931F93CF93ED
:10082000DF93CDB7DEB7E5970FB6F894DEBF0FBE06
:10083000CDBF10920F0B8E01015E1F4F8AE0D801D1
:100840001D928A95E9F78091B909813051F50E948E
:10085000FD038091B909823009F5EFE1FEE431979B
:10086000F1F700C000008091340981FF02C082E0EE
:1008700016C09091440C911102C083FF02C084FF06
:1008800002C083E00CC086FF0CC08091B70987309E
:1008900019F087E08093B70984E001C086E00E94E8
:1008A000790D8091440C811104C09091340993FF1B
:1008B000B2C3E091B7094E2F50E0FA013197E83208
:1008C000F10508F0A8C3E057FF4F0C94112E80915A
:1008D000340983FF04C081FD02C081E094C381FB21
:1008E000992790F981FD02C080FF0BC02091F50A85
:1008F000222329F081E080930C028AE084C39111C5
:100900008AC382FFEACF10922D050E941B0980E85E
:10091000E6E3F9E0DF011D928A95E9F761EA71E00B
:100920008CE390E00E94162684E16DC30E94401281
:10093000882309F465C370C280910A0290910B026A
:100940008035910530F4019690930B0280930A0252
:1009500005C0909A10920B0210920A02BE016F5FBE
:100960007F4F82E50E940418892B09F054C386E06A
:10097000E1E2F2E0DE01999601900D928A95E1F7AD
:10098000AE014F5C5F4FBE016F5F7F4F80E00E9402
:10099000B419892B09F03FC389A9883069F4809381
:1009A000290920E0AE014F5F5F4FBE01675D7F4FB9
:1009B00080E60E945F1A02C0109229098CE08093A1
:1009C000B7090E949D0127C3B801809129090E949F
:1009D000011B892B09F014C34EE352E069E0C80102
:1009E0000E94DC154AE050E060E070E0C8010E941F
:1009F000BF2F60932A0970932B0980932C09909341
:100A00002D098091440C8823A1F11F930F9382E458
:100A100092E09F938F9302E31AE01F930F930E943B
:100A2000CC32F80101900020E9F7BF0163537A400E
:100A30006093310A6F5F60930F0B41E35AE080E0EF
:100A400090E00E94622180E8E6E3F9E0DF011D9278
:100A50008A95E9F787E08093B7098091340980642B
:100A6000809334090F900F900F900F900F900F907C
:100A700053C08091340983FF4CC084FD4AC0E0E03C
:100A8000F0E0208130E02053310988EE93E0289F88
:100A9000A001299F500D389F500D1124218130E075
:100AA0002053310964E6629FC001639F900D1124B9
:100AB000840F951F438150E0405351096AE0649FC1
:100AC0009001659F300D1124820F931F2481820FA6
:100AD000911DC09790933109809330098091FA0A53
:100AE0008130D1F40E94F01188E08093B709109210
:100AF0002E050E9447126EEA71E0882329F08EE1EC
:100B000090E00E94162608C084EF91E00E94CD2557
:100B100003C082E08093B70910922F0565EA71E067
:100B20006AC28091030A80FF76C28E7F8093030A97
:100B300069C290913609992309F4DFC08091340984
:100B40008F7B8093340982E08093B7096EE472E072
:100B500086E399E00E945032009709F4CBC04AE046
:100B600050E060E070E004960E94BF2F60932A0975
:100B700070932B0980932C0990932D0963E572E003
:100B800086E399E00E9450328C014C01B9E08B0E53
:100B9000911C6EE270E0C4010E941B32282F2819BC
:100BA000C4012DAB0E94F7305B01D82EF92E2DA980
:100BB000223038F49F938F93BF926F938DE592E02C
:100BC00008C0223091F49F938F93BF926F938EE56C
:100BD00092E09F938F939F928F920E94CC320FB698
:100BE000F894DEBF0FBECDBF05C063E672E0C4015E
:100BF0000E942F32D80119962C91199730E020537A
:100C000031091A964C911A9750E0405351091C969D
:100C1000EC911C97F0E0F0971D966C9170E088EED7
:100C200093E0289FD001299FB00D389FB00D11246B
:100C300014E6149FC001159F900D11248A0F9B1F6D
:100C40001AE01E9FD0011F9FB00D11248A0F9B1F19
:100C5000860F971FC0979093310980933009635294
:100C60007E4FCF01835F9D4F4C01CA01835F9D4F33
:100C7000D901A35FBD4F2AE0C22EE12C00E0FB01A9
:100C80002081F4014081FC0160818C910E94AF0CB5
:100C9000FFEF21EE84E0F15020408040E1F700C0FA
:100CA00000006A2D7B2D8D2D9F2D0E94FB0C8091C5
:100CB000FA0A8130A9F40E94F01188E08093B70904
:100CC00010922E050E9447126EEA71E0882319F0F7
:100CD0008EE190E092C184EF91E00E94CD259BC10E
:100CE000883009F098C18091F50A893209F093C1E2
:100CF00088E189C10E94A5018EC190912F05913094
:100D000011F0811188C1809134098F7B809334095F
:100D100081E00E94790D76C19FEFA7EAB1E691507C
:100D2000A040B040E1F700C000008091F90A813096
:100D300011F48FE068C180912E05813009F06BC1FC
:100D40005FC181E00E940912882309F464C1009107
:100D5000010B10E0102F00278091000B080F111DD0
:100D6000B801012E000C880B990B0E943B2D9B01B2
:100D7000AC016093160B7093170B8093180B909334
:100D8000190B60912A0970912B0980912C0990917F
:100D90002D096A877B878C879D8719870887E09153
:100DA000C009F091C109FA83E983E091BE09F0918D
:100DB000BF09FE83ED83E091F10AEB83E091F20A33
:100DC000EC83E091440CE11109C0E0913409E3FFA8
:100DD00005C021E02D8B0E946A141EC01D8A8091DF
:100DE000300990913109BC0180E090E02DAB3AAB25
:100DF0004BAB5CAB0E94392D2DA93AA94BA95CA93C
:100E00000E942B2C0E940A2D7093310960933009A7
:100E1000CE0101960E94FC0B80E1F5C082E00E94A9
:100E20000912882309F4F7C06091160B7091170B13
:100E30008091180B9091190B0E94290D0091150AB1
:100E400010E0102F00278091140A080F111DB8011F
:100E5000012E000C880B990B0E943B2D9B01AC01CD
:100E60006093160B7093170B8093180B9093190BCC
:100E700060912A0970912B0980912C0990912D097C
:100E80006A877B878C879D8719870887E091C009CF
:100E9000F091C109FA83E983E091BE09F091BF099D
:100EA000FE83ED83E091F10AEB83E091F20AEC839B
:100EB000E091440CE11109C0E0913409E3FF05C061
:100EC00021E02D8B0E946A149BC01D8A80913009FD
:100ED00090913109BC0180E090E02DAB3AAB4BAB77
:100EE0005CAB0E94392D2DA93AA94BA95CA90E949F
:100EF0002B2C0E940A2D7093310960933009CE018A
:100F000001960E94FC0B7CC080910C02882309F49E
:100F100082C00E94FD030E94F20810920C0262EB54
:100F200071E088E790E069C049E652E06BE672E064
:100F300086E399E00E94C9035C01009709F451C05F
:100F4000FC0101900020E9F731971E2F181B4AE29F
:100F500055E061E087E590E00E94341FAE01475DF7
:100F60005F4F60912A0588E590E00E94341F00E001
:100F7000802F880F8117D0F44501880E911CF40151
:100F800080810E943628F82ED40111968C910E94FF
:100F90003628E1E0F0E0EC0FFD1FE00FF11DB0E1BD
:100FA000FB9E800D112480830F5FE2CF40912A05C4
:100FB00050E0BE016F5F7F4FCE0189960E940532DF
:100FC000892B49F4809134098B7F8093340983E124
:100FD0008093B70906C08AE08093B70981E08093C7
:100FE0000C0280912D058823B1F010922D050E94EE
:100FF0001B0961EA71E08CE390E00E9416260BC0A9
:1010000082E001C087E28093B70905C00E942703F0
:1010100002C00E94860CE5960FB6F894DEBF0FBEA4
:10102000CDBFDF91CF911F910F91FF90EF90DF9097
:10103000CF90BF90AF909F908F9008958091030ABA
:1010400081608093030A08950F931F93CF93DF93DA
:101050008B01EB012196833009F44EC050F58130AD
:1010600071F1823009F07FC08091F20A1F928F9354
:101070008091F10A1F928F938091BF098F93809185
:10108000BE098F938091C1098F938091C0098F937E
:1010900083EC92E09F938F93DF93CF930E94CC32A7
:1010A000ADB7BEB71C960FB6F894BEBF0FBEADBFAE
:1010B0005AC0853071F130F18630B1F154C0809161
:1010C000F20A1F928F938091F10A1F928F9380E80A
:1010D00092E09F938F938AE892E09F938F93DF93A0
:1010E000CF930E94CC32ADB7BEB71A960FB6F89424
:1010F000BEBF0FBEADBF37C06AE273E0CE010E9433
:101100002F3231C087EF99E09F938F938EE393E066
:101110001EC084EC99E09F938F9388E593E09F93A2
:101120008F93DF93CF9317C043EC59E061E080E0E9
:1011300091E00E94341F8091C3098F3F11F41092F7
:10114000C3098091C3091F928F9388E793E09F930F
:101150008F93DF93CF930E94CC320F900F900F901C
:101160000F900F900F90FE0101900020E9F7EC1B0B
:10117000D801EC938E2F8095881F8827881FDF91D8
:10118000CF911F910F9108951F93CF93DF93CDB708
:10119000DEB7C058D1090FB6F894DEBF0FBECDBF81
:1011A000BE016F5F7F4F80E8FB0111928A95E9F7DE
:1011B00081E00E942408182F882341F0AE014E5F81
:1011C0005F4F698180E090E00E946221812FC058CA
:1011D000DF4F0FB6F894DEBF0FBECDBFDF91CF91CA
:1011E0001F910895CF93DF93CDB7DEB7C058D109D3
:1011F0000FB6F894DEBF0FBECDBFBE016F5F7F4F4D
:1012000080E8FB0111928A95E9F782E00E942408A8
:10121000AE014E5F5F4F698180E090E00E946221E5
:1012200081E0C058DF4F0FB6F894DEBF0FBECDBFD0
:10123000DF91CF910895CF93DF93CDB7DEB7699754
:101240000FB6F894DEBF0FBECDBFBE016F5F7F4FFC
:1012500089E1FB0111928A95E9F783E00E94240855
:10126000AE014E5F5F4F698180E090E00E94622195
:1012700081E069960FB6F894DEBF0FBECDBFDF9157
:10128000CF910895CF93DF93CDB7DEB7A3970FB675
:10129000F894DEBF0FBECDBFBE016F5F7F4F83E20C
:1012A000FB0111928A95E9F784E00E942408AE01BF
:1012B0004E5F5F4F698180E090E00E94622181E093
:1012C000A3960FB6F894DEBF0FBECDBFDF91CF91CE
:1012D0000895CF93DF93CDB7DEB7C555D1090FB6CB
:1012E000F894DEBF0FBECDBFBE016F5F7F4F85E5B7
:1012F000FB0111928A95E9F785E00E942408AE016E
:101300004E5F5F4F698180E090E00E94622181E042
:10131000CB5ADF4F0FB6F894DEBF0FBECDBFDF91C3
:10132000CF910895CF93DF93CDB7DEB7A3970FB6D4
:10133000F894DEBF0FBECDBFBE016F5F7F4F83E26B
:10134000FB0111928A95E9F786E00E942408AE011C
:101350004E5F5F4F698180E090E00E94622181E0F2
:10136000A3960FB6F894DEBF0FBECDBFDF91CF912D
:1013700008958F929F92AF92BF92CF92DF92FF9289
:101380000F931F93CF93DF93CDB7DEB7CD54D10921
:101390000FB6F894DEBF0FBECDBF2E969FAF8EAFB7
:1013A0002E976E0183E4C80ED11C88E0F601982FB9
:1013B00011929A95E9F75E01EBE3AE0EB11CF501CF
:1013C00011928A95E9F7CE0101964C0182E3F4016E
:1013D00011928A95E9F72C961FAE2C97F090B709D9
:1013E0002E960EAD1FAD2E9766E873E0C8010E94E1
:1013F0005032892B09F499C049E652E063E973E061
:10140000C8010E94C903009721F1B4010E944A2833
:101410008BABA401682F84E290E00E94491F8BA946
:10142000FE01E80FF11D80818093C20942EC59E072
:1014300061E081E690E00E94491F809134098D7F30
:101440008093340944E359E061E082E290E00E9435
:10145000491F49E652E068E973E02E968EAD9FADD4
:101460002E970E94C903009791F0B4010E944A2868
:101470008BABAE014D5C5F4F61E087E590E00E9471
:10148000491FA4016BA988E590E00E94491F49E625
:1014900052E069EA73E02E968EAD9FAD2E970E94C2
:1014A000C903009781F10E94FB302C963FAD2C9729
:1014B00020E00097C9F0E32FF0E0EC0DFD1D213096
:1014C00029F0282F2F70208321E008C04081282F89
:1014D0002295207F242B20833F5F20E074E09695A7
:1014E00087957A95E1F7E5CF2C963FAF2C97A6012B
:1014F00068E080E090E00E94491FA50168E080E07C
:1015000090E00E94341FB501C6010E942632892B4B
:1015100009F05EC1809134098E7F8093340944E3E1
:1015200059E061E082E290E030C064EB73E0C80112
:101530000E945032892B09F043C161EC73E0C8016D
:101540000E945032892B09F03EC164ED73E0C8015E
:101550000E945032892B19F00E94C40839C167EEED
:1015600073E0C8010E945032892BA1F088E0E7E2C5
:10157000F2E0DE01D39601900D928A95E1F7AE017B
:101580004D5C5F4F68E080E090E00E94491F60E2A0
:10159000F62E1EC163EF73E0C8010E945032892B02
:1015A00009F43BC040E55CE061E082EF9FE00E940F
:1015B000491F47E45CE062E084EF9FE00E94491F1E
:1015C00049E45CE062E086EF9FE00E94491F81E011
:1015D0002C968FAF2C97AE01455B5F4F61E080EF9B
:1015E0009FE00E94491F2E96EEADFFAD2E9711820F
:1015F0001082AE01445B5F4F66E08AEF9FE00E947D
:10160000491FF8949FE088E10FB6F894A89580935D
:1016100060000FBE90936000FFCF63E074E0C801EC
:101620000E945032892B51F149E652E068E074E0A3
:10163000C8010E94C903009709F4CAC0FC010190C7
:101640000020E9F731978F01081B190B0BAB03330F
:1016500008F0BEC0BC0184EC99E00E942F3261E02A
:10166000600F6BAB44EC59E087E790E00E94491FA4
:10167000809134098F77809334093AC06FE074E029
:10168000C8010E945032892B19F00E946909A0C03C
:1016900064E174E0C8010E945032892B89F149E667
:1016A00052E064E274E0C8010E94C903009709F4A3
:1016B0008FC0FC0101900020E9F731978F01081BD2
:1016C000190B0BAB0B3008F083C0BC0187EF99E01E
:1016D0000E942F3261E0600F6BAB47EF59E08CE660
:1016E00090E00E94491F809135098E7F80933509D3
:1016F00044E359E061E082E290E00E94491F68C043
:1017000066E374E0C8010E945032892B19F00E94F0
:1017100042095EC066E474E0C8010E945032892B21
:1017200069F00E9492096EE178E08CE390E00E94FB
:1017300016268093300558E2F52E4AC06DE474E019
:10174000C8010E945032892B09F040C069E574E05D
:10175000C8010E945032892B49F11BAA49E652E088
:1017600063E674E0C8010E94C903009789F1BE01D5
:101770006D5C7F4F0E944A288BA9863049F5F8E2BC
:10178000FF1226C0809130050E9453260E945515F5
:10179000882349F06EE178E08CE390E00E94162601
:1017A0008093300515C047E2F42E12C06FE674E056
:1017B000C8010E945032892B59F037E1F32E08C03E
:1017C0002AE0F22E05C094E1F92E02C08FE1F82E36
:1017D0008F2DC35BDF4F0FB6F894DEBF0FBECDBFBA
:1017E000DF91CF911F910F91FF90DF90CF90BF902D
:1017F000AF909F908F900895EF92FF920F931F9359
:10180000CF93DF93CDB7DEB7CA58D1090FB6F8949E
:10181000DEBF0FBECDBF8C017E0181E8E80EF11C5A
:101820008AE0D7011D928A95E9F7FE01319680E89A
:10183000DF011D928A95E9F7F8016185728583853C
:1018400094852AE0A7010E947232D80154968C91A7
:1018500054971F928F9313968C9113971F928F9387
:1018600012968C9112971F928F9315968C911597C3
:101870008F9314968C9114978F9311968C91119746
:101880008F938C918F9317966D917C91189780E030
:1018900090E00E94392D20E030E048EC52E40E94B4
:1018A000982C9F938F937F936F93FF92EF9287E78C
:1018B00094E09F938F938E010E5F1F4F1F930F93A2
:1018C0000E94CC32F80101900020E9F76E2F601BD6
:1018D00069830FB6F894DEBF0FBECDBF67FD07C0AA
:1018E000A80180E090E00E94622181E001C080E0D8
:1018F000C657DF4F0FB6F894DEBF0FBECDBFDF91E6
:10190000CF911F910F91FF90EF900895CF93DF93A8
:10191000CDB7DEB7C058D1090FB6F894DEBF0FBE01
:10192000CDBFBE016F5F7F4F80E8FB0111928A95AA
:10193000E9F788E00E942408AE014E5F5F4F69819D
:1019400080E090E00E94622181E0C058DF4F0FB636
:10195000F894DEBF0FBECDBFDF91CF910895CF9237
:10196000EF920F93CF93DF93CDB7DEB729970FB6E2
:10197000F894DEBF0FBECDBFFE01319699E0DF01C6
:101980001D929A95E9F798E0998390E69A838B8364
:101990006C834D832E830F83E886C986CF010E9416
:1019A0003F0F29960FB6F894DEBF0FBECDBFDF9173
:1019B000CF910F91EF90CF900895CF92EF920F9328
:1019C00060910E0285E0C82EE12C00E020910D020E
:1019D000462F80E50E94AF0C882349F02FEF37EAAD
:1019E00091E6215030409040E1F700C000000F9197
:1019F000EF90CF900895CF93DF93CDB7DEB72D97BB
:101A00000FB6F894DEBF0FBECDBF6A877B878C8789
:101A10009D87CE01019629E0FC0111922A95E9F7F4
:101A200028E0298320E62A832A852B832B852C8393
:101A30002C852D832D852E8325E029870E943F0F3D
:101A40002D960FB6F894DEBF0FBECDBFDF91CF91BC
:101A50000895CF92EF920F9385E0C82EE12C00E01D
:101A600020E043E76CE588E70E94AF0C882349F04B
:101A70002FEF37EA91E6215030409040E1F700C067
:101A800000000F91EF90CF900895CF92EF920F93B7
:101A9000CF9394E0C92EE12C00E02EE540E567E706
:101AA00089E30E94AF0CC82F8823E9F02FEF37EAB3
:101AB00081E6215030408040E1F700C0000083E023
:101AC000C82E20E040E560E589E70E94AF0C88233E
:101AD00051F09FEF27EA31E6915020403040E1F786
:101AE00000C00000C82F8C2FCF910F91EF90CF90A6
:101AF0000895CF92EF920F93813029F40F91EF90D8
:101B0000CF900C94450D823049F435E0C32EE12C82
:101B100000E02EE34DE66CE584E52AC0843049F40C
:101B200025E0C22EE12C00E02EE64DE66EE38CE7C8
:101B30001FC0833049F495E0C92EE12C00E020E07D
:101B400040E569E78DE614C0853041F4C12CE12CF5
:101B500000E020E040E060E080E00AC0863051F420
:101B600085E0C82EE12C09E728E34CE767E789E325
:101B70000E94AF0C0F91EF90CF9008951F93CF93D9
:101B8000DF93CDB7DEB7EC970FB6F894DEBF0FBE8C
:101B9000CDBFAE014F5F5F4F8CE3FA0111928A9582
:101BA000E9F78091F10A823209F491C0893209F48F
:101BB000FBC0813209F059C165E184E290E00E94E6
:101BC000341F1A85612F70E0762F66278B85680F8A
:101BD000711D072E000C880B990B0E943B2D20E0F5
:101BE00030E048EC52E40E94982C6093160B7093FE
:101BF000170B8093180B9093190B8A818093CD0853
:101C00001092CE088C818093CF081092D0088E81DC
:101C10008093D1081092D20888858093D3081092BF
:101C2000D4081093D5081092D6088C858093D708D5
:101C30001092D8088E858093D9081092DA08888986
:101C40008093DB081092DC088A898093DD0810926B
:101C5000DE088C898093DF081092E00882E380938D
:101C6000E1081092E2081092E3081092E408109242
:101C7000E5081092E6081092E7081092E8089AE04A
:101C80009093E90884E08093EA081092EB0827E03B
:101C90002093EC089093ED088093EF081092EE08E3
:101CA00026E02093F0089093F1088093F2081092B8
:101CB000F30885E08093F4088093F5081092F60805
:101CC00081E08093F7088DE18093F808CEC060E151
:101CD00084E290E00E94341F1A85612F70E0762F15
:101CE00066278B85680F711D072E000C880B990BDA
:101CF0000E943B2D20E030E048EC52E40E94982CFA
:101D00006093160B7093170B8093180B9093190B1D
:101D10008A818093A7081092A8088C818093A908D3
:101D20001092AA088E818093AB081092AC08888527
:101D30008093AD081092AE081093AF081092B008CF
:101D40008C858093B1081092B2088E858093B30879
:101D50001092B40888898093B5081092B6088A89D1
:101D60008093B7081092B8088C898093B9081092B4
:101D7000BA0882E38093BB081092BC0882E080938B
:101D8000BD0893E09093BE088093BF0891E09093C4
:101D9000C00894E09093C1088093C2081092C408D0
:101DA0008DE18093C50861C061E184E290E00E940A
:101DB000341F8A818093090A10920A0A8C818093C9
:101DC0000B0A10920C0A8E8180930D0A10920E0A53
:101DD000888580930F0A1092100A8A858093110AD1
:101DE0001092120A88898093130A8C858093140AB2
:101DF0001092150A8E858093160A86E28093170A40
:101E000095E09093180A8093190A86E180931A0A44
:101E10008EE180931B0A8DE280931C0A10921D0AAA
:101E200080931E0A10921F0A83E08093200A8093F9
:101E3000210A8093220A8093230A80EA8093240A4D
:101E40008BE98093250A83E78093270A84E08093B7
:101E5000280A8DE18093290A10922A0A10922B0AEF
:101E600010922C0A81E080932D0AEC960FB6F8941C
:101E7000DEBF0FBECDBFDF91CF911F910895AF920E
:101E8000BF92CF92DF92EF92FF920F931F93CF9367
:101E9000DF938C0198E0F92EC02E0E945027F801A4
:101EA000D080D39482E00E946D27C02FD12F82E092
:101EB000E82E8C2F8C198D1540F45E0189910E94BB
:101EC0006D27F5018081E826F4CF8E2D0E946D27C5
:101ED0001092150B78940E94C4158091150B8634CE
:101EE00020F40E949C27882339F00E94C21580911B
:101EF000150B863440F00DC00E94FD21882369F344
:101F00000E945122EACF0E94A827863069F08930CA
:101F100049F08FED9EE20197F1F700C00000FA94BE
:101F2000F110BBCF80E001C081E0DF91CF911F9124
:101F30000F91FF90EF90DF90CF90BF90AF900895FA
:101F4000CF93DF93CDB7DEB72B970FB6F894DEBFF4
:101F50000FBECDBFCE0101962BE0FC0111922A9558
:101F6000E9F72091F60A233009F0E4C02091F10A44
:101F7000223209F461C0293209F4ABC0213209F0E0
:101F8000D9C02AE0298322E72A83E091F70A4E2F5D
:101F900050E0FA013197E930F105D0F5E854FF4FF0
:101FA0000C94112E2091DD082B832091DE082FC088
:101FB0002091DB082B832091DC0829C02091D908CF
:101FC0002B832091DA0823C02091D7082B832091FE
:101FD000D8081DC02091D5082B832091D60817C0A2
:101FE0002091D3082B832091D40811C02091D108CF
:101FF0002B832091D2080BC02091CF082B832091F6
:10200000D00805C02091CD082B832091CE082C83C9
:102010002091F80A213049F0223009F08BC020913C
:10202000E1082D832091E20805C02091DF082D836F
:102030002091E0082E837EC02AE0298322E72A83AC
:10204000E091F70A4E2F50E0FA013197E930F1059F
:10205000D0F5EF53FF4F0C94112E2091B7082B832E
:102060002091B8082FC02091B5082B832091B60885
:1020700029C02091B3082B832091B40823C020915C
:10208000B1082B832091B2081DC02091AF082B838B
:102090002091B00817C02091AD082B832091AE0885
:1020A00011C02091AB082B832091AC080BC020916C
:1020B000A9082B832091AA0805C02091A7082B838B
:1020C0002091A8082C832091BB082D832091BC0867
:1020D000B1CF2AE0298322E72A832091F70A24300E
:1020E00050F42230C0F42130E1F420910B0A2B830C
:1020F00020910C0A15C0243041F0253091F4209134
:102100000F0A2B832091100A0BC02091090A2B8300
:1021100020910A0A05C020910D0A2B8320910E0AF6
:102120002C832091140A2F832091150A288720914F
:10213000160A29870E943F0F2B960FB6F894DEBF30
:102140000FBECDBFDF91CF910895DF92EF92FF9246
:102150000F931F93CF93DF937C010E94A827C82F72
:10216000823009F50E94A827D82FF70180818D17AA
:10217000D0F0CD27DE2C8701802F8D198D1738F4F4
:102180000E94A827F80181938F01C827F5CF0E94EC
:10219000A827C81305C086E00E946D2781E004C00F
:1021A00085E10E946D2780E0DF91CF911F910F9113
:1021B000FF90EF90DF900895CF93DF93CDB7DEB718
:1021C0006A970FB6F894DEBF0FBECDBF8091F60AB6
:1021D000833009F05FC02AE1CE010196FC01322F65
:1021E00011923A95E9F729830E94A510882309F4F2
:1021F00051C09981913709F04DC09A81905E9093BA
:10220000F50A9B819093F70A9C819093F80A9D812F
:102210009093F90A9E819093FA0A9F819093FB0A0A
:1022200098859093FC0A99859093FD0A9A859093DE
:10223000FE0A9B859093FF0A9C859093000B9D85D9
:102240009093010B9E859093020B9F859093030BB7
:1022500098899093040B99899093050B9A89909390
:10226000060B9B899093070B9C899093080B9D8983
:102270009093090B9E8990930A0B9F8990930B0B67
:10228000988D90930C0B998D90930D0B9A8D909344
:102290000E0B01C080E06A960FB6F894DEBF0FBE49
:1022A000CDBFDF91CF9108951F93CF93DF9300D0DF
:1022B000CDB7DEB71A8219828091F60A833021F4F5
:1022C00081E0898380E78A83CE0101960E943F0FD7
:1022D000811102C080E015C00E94DC10182F8823F5
:1022E000C9F39091340991FB882780F991FD09C0C9
:1022F0008FED9EE20197F1F700C000000E94A00F51
:10230000812F0F900F90DF91CF911F910895CF9360
:10231000DF93CDB7DEB76F970FB6F894DEBF0FBE71
:10232000CDBF2FE1CE010196FC01322F11923A95DB
:10233000E9F729830E94A510882379F09A81909368
:10234000C8089B819093C9089C819093CA089F817B
:102350009093F90899899093FA086F960FB6F894BC
:10236000DEBF0FBECDBFDF91CF910895CF93DF9336
:10237000CDB7DEB72A970FB6F894DEBF0FBECDBF3C
:102380008AE0EFE2F2E0DE01119601900D928A956B
:10239000E1F789E0898383E78A831E8281E08F8366
:1023A00080E18887198682E08A87CE0101960E94A3
:1023B0003F0F81110E9487112A960FB6F894DEBF55
:1023C0000FBECDBFDF91CF9108958091FA0A80FFB3
:1023D00005C081E09091FB0A903209F080E00895F9
:1023E000CF93DF9300D000D0CDB7DEB783E08983F1
:1023F00084E68A838FE08B8381E08C83CE01019613
:102400000E943F0F0F900F900F900F90DF91CF9190
:102410000895CF93DF93CDB7DEB727970FB6F89423
:10242000DEBF0FBECDBFFE01319697E0DF011D92EA
:102430009A95E9F7813051F486E089838AE68A83A8
:102440009091000B9B838091010B0BC0823061F453
:1024500086E089838AE68A839091140A9B8380911F
:10246000150A8C839D838E83CF010E943F0F279690
:102470000FB6F894DEBF0FBECDBFDF91CF910895A8
:1024800081E09091FA0A983009F080E008950C9468
:10249000E5110E945411882319F082E08093B90954
:1024A00008950E94B611882319F083E08093F60AFC
:1024B0000E9449128091F50A8093F10A8091F60AF0
:1024C0008093F20A0895CF93DF93CDB7DEB7EC97F0
:1024D0000FB6F894DEBF0FBECDBFFE0131968CE380
:1024E000DF011D928A95E9F79091F10A923209F481
:1024F00098C0993209F404C1913209F070C182E3A5
:1025000089839A838091C8088B838091C9088C83C2
:102510008091CA088D838091CB088E838091CC08EE
:102520008F838091CD0888878091CE08898780919C
:10253000CF088A878091D0088B878091D1088C87BB
:102540008091D2088D878091D3088E878091D4089E
:102550008F878091D508888B8091D608898B809150
:10256000D7088A8B8091D8088B8B8091D9088C8B67
:102570008091DA088D8B8091DB088E8B8091DC084E
:102580008F8B8091DD08888F8091DE08898F809104
:10259000DF088A8F8091E0088B8F8091E1088C8F13
:1025A0008091E2088D8F8091E4088E8F8091E308FE
:1025B0008F8F8091E50888A38091E60889A3809198
:1025C000E7088AA38091E8088BA38091E9088CA38F
:1025D0008091EA088DA38EA38091EC088FA380914F
:1025E000ED0888A78091EF0889A78091F0088BA754
:1025F0008091F1088CA78091F3088DA78091F20853
:102600008AA78091F4088FA78091F50888AB809104
:10261000F60889AB8091F7088AAB8091F8088BABFC
:10262000DEC082E389839A838091A2088B838091A4
:10263000A3088C838091A4088D838091A5088E8344
:102640008091A6088F838091A70888878091A80829
:1026500089878091A9088A878091AA088B878091B1
:10266000AB088C878091AC088D878091AD088E87F0
:102670008091AE088F878091AF08888B8091B008D9
:10268000898B8091B1088A8B8091B2088B8B809165
:10269000B3088C8B8091B4088D8B8091B5088E8B9C
:1026A0008091B6088F8B8091B708888F8091B80889
:1026B000898F8091B9088A8F8091BA088B8F809119
:1026C000BB088C8F8091BC088D8F8091BE088E8F47
:1026D0008091BD088F8F8091BF0888A38091C0082A
:1026E00089A38091C1088AA38091C2088BA380919D
:1026F000C3088CA38091C4088DA38091C5086EC0C7
:1027000085E289839A838091040A8B838091050AEC
:102710008C838091060A8D838091070A8E83809135
:10272000080A8F838091090A888780910A0A89871D
:102730008091110A8A878091120A8B878091130AEF
:102740008E878091140A8C878091150A8D878091DD
:10275000160A8F878091170A888B8091180A898BB7
:102760008091190A8A8B80911A0A8B8B80911B0A9F
:102770008C8B80911C0A8D8B80911D0A8E8B809191
:102780001E0A8F8B80911F0A888F8091200A898F63
:102790008091210A8A8F8091220A8B8F8091230A4F
:1027A0008C8F8091240A8D8F8091250A8E8F809145
:1027B000260A8F8F8091270A88A38091280A89A3EF
:1027C0008091290A8AA380912A0A8BA380912B0ADF
:1027D0008CA380912C0A8DA380912D0A8EA3CF010A
:1027E0000E943F0FEC960FB6F894DEBF0FBECDBF30
:1027F000DF91CF91089544E359E062E082E290E0F6
:102800000E94341F41EF5AE062E08EE190E00E94A6
:10281000341F1092BA091092BB091092BC09109291
:10282000BD0981E090E09093BF098093BE09909329
:10283000C1098093C009809134098F7B809334094A
:1028400081FD47C00E94BE0D809134098460809351
:10285000340942EC59E061E081E690E00E94341FC7
:102860008091C2098823C9F08091340988608093DF
:10287000340943EC59E061E080E091E00E94341FAC
:102880008091C3098F3F49F41092C30943EC59E08A
:1028900061E080E091E00E94491F8BE0E7EFF9E002
:1028A000DF011D928A95E9F783E3E4ECF9E0DF01AB
:1028B0001D928A95E9F747EF59E06AE08CE690E0CF
:1028C0000E94341F44EC59E062E387E790E00C94E7
:1028D000341F0895CF93DF93CDB7DEB767970FB658
:1028E000F894DEBF0FBECDBF21E02F8B28E12E8BE9
:1028F0006A877B878C879D878091C0099091C109E9
:102900009A8389838091F50A8B838091F60A8C8360
:102910008091F70A8F832091BE093091BF093E83D1
:102920002D839091F10A923259F0993201F191324E
:10293000D9F5482F50E0FA013197E930F10538F028
:10294000482F50E0FA013197E930F10580F4E65361
:10295000FF4F0C94112E8091B80823C08091B608C7
:1029600020C08091B4081DC08091B2081AC0833085
:1029700081F028F4813099F0823071F015C08430F4
:1029800029F0853089F48091100A0BC080910C0ADF
:1029900008C08091120A05C080910E0A02C0809181
:1029A000CE0890E0998788871E861F86188A198A24
:1029B0001A8A1B8A1C8A81E08D8B43EC59E061E006
:1029C00080E091E00E94341F8091C3098F3F29F07D
:1029D0009091C209891708F048C081508E3F50F08D
:1029E0001092C309AE014A5E5F4F62E081E091E060
:1029F0000E94491F8091C30925E1829FC0011124D3
:102A0000AE014F5F5F4F65E1885E9E4F0E94491F98
:102A10008091C3098F5F8093C30943EC59E061E063
:102A200080E091E00E94491F8091340985FD0AC031
:102A300080628093340944E359E062E082E290E0EE
:102A40000E94491F9091C3098091C209981323C025
:102A50008091340980618093340944E359E062E055
:102A600082E290E00E94491F16C044E359E061E011
:102A700082E290E00E94341F80913409877F806158
:102A80008093340944E359E061E082E290E00E94DF
:102A9000491F80E001C081E067960FB6F894DEBF61
:102AA0000FBECDBFDF91CF910895CF93DF93CDB708
:102AB000DEB767970FB6F894DEBF0FBECDBF43EC0D
:102AC00059E061E080E091E00E94341F8091C309E9
:102AD00081508E3F78F5AE014A5E5F4F62E081E043
:102AE00091E00E94341FAE014F5F5F4F65E18E8918
:102AF0009F890E94341FCE0101960E94FC0B8823FF
:102B0000C9F08E899F8945969F8B8E8B8091C309D2
:102B100081508093C309AE014A5E5F4F62E081E05D
:102B200091E00E94491F43EC59E061E080E091E0B0
:102B30000E94491F8091C30981110DC08091340901
:102B40008F7D8F7E8093340944E359E061E082E217
:102B500090E00E94491F8091C30967960FB6F894D0
:102B6000DEBF0FBECDBFDF91CF91089581E080938E
:102B7000B809089582E085BB80936E0016BC109260
:102B8000150B089515BC08958EE487BD82E084BDC1
:102B900085E085BD08951F920F920FB60F92112404
:102BA0008F938091150B8F5F8093150B8F910F90F2
:102BB0000FBE0F901F9018957F928F929F92AF92A9
:102BC000BF92CF92DF92EF92FF920F931F93CF931A
:102BD000DF937C01762E4A01EC0109900020E9F791
:102BE0002197C81BD90BFA0101900020E9F7319712
:102BF0008F01041B150BC62ED12CCC15DD0520F53D
:102C0000C60101960E94382E5C01872D90E0C817FE
:102C1000D90748F4A801B401C5010E9436327A945C
:102C2000A00EB11EF2CFAE01B701C5010E9436322F
:102C3000CA0DDB1D1882CC19DD09A601BE01C70132
:102C40000E943632CE0102C080E090E0DF91CF9149
:102C50001F910F91FF90EF90DF90CF90BF90AF90BA
:102C60009F908F907F9008951F93CF93DF931F9233
:102C7000CDB7DEB764E670E00E94C72D162F40E89E
:102C800061E08AE279830E94261B66EA8BE20E9459
:102C9000081B8AE20E941C1B807F682F62608AE208
:102CA0000E94081B612F8DE20E94081B7981672F0B
:102CB0008CE20E94081B80E090E00F90DF91CF91A2
:102CC0001F9108956FE081E00E94081B60E485E198
:102CD0000E94081B48E060E088E00E94261B82E119
:102CE0000E941C1B8870682F606882E10E94081B8C
:102CF00083E10E941C1B8870682F606883E10E943A
:102D0000081B6DE689E10E94081B68E486E20E94C8
:102D1000081B65E588E10E94081B66E284E20E94C8
:102D2000081B64EF87E20E94081B88E893E10E9479
:102D3000341643E061E084E10E94261B40E461E038
:102D40008CE00E94261B84E00E941C1B80FFFBCFAE
:102D500061E084E00E94081B88E893E10E94341639
:102D60006AE18BE00E94081B60E186E10E94081B7B
:102D700064E887E10E94081B60E081E00E94081B74
:102D800080ED97E00C9434169F92AF92BF92CF9251
:102D9000DF92EF92FF920F931F93CF93DF93182F41
:102DA0007B01EA0162E484E00E94081B60E085E0A8
:102DB0000E94081B60E88AE00E94081B81E00E94D4
:102DC0001C1B682F607F1C3009F46C6081E00E943E
:102DD000081BD0933205C0933105103108F063C051
:102DE000812F90E0FC01EE0FFF1FE65FFA4FC081DC
:102DF000D181FC01E650FB4FC080FC01E651FB4F46
:102E00000081FC01E652FB4F9080209709F050C0F2
:102E100082E00E941C1B682F6C2982E00E94081B24
:102E200083E00E941C1B682F83E00E94081BD12CAA
:102E3000E0913105F09132058381D81648F4F7010D
:102E4000ED0DF11D608189E00E94081BD394F0CF45
:102E50001C3031F440E861E08DE00E94261B09C07F
:102E600081E00E941C1B807F682F612B81E00E9403
:102E7000081BAA24A394BA2C10E0002371F0812F20
:102E8000802359F484E00E941C1B182F85E00E94C7
:102E90001C1B81E0A81AB10881F701231170C12F12
:102EA000E0E0DE2F05C0912CC12C02E4C3E0D1E0AC
:102EB0004C2D60E082E00E94261B40E060E083E051
:102EC0000E94261B992009F47EC0209709F07BC040
:102ED000C0903105D09032058AE00E941C1BF6019B
:102EE00084838CE00E941C1BE0913105F091320537
:102EF000877090E09683858386E00E941C1B182FC4
:102F0000882309F446C083FD05C081FF05C0C3E0E6
:102F1000D0E002C0C6E0D0E010FD22C014FD23C006
:102F200012FF19C0E0913105F0913205C481C13022
:102F3000E9F4858196818B7F892BC1F489E00E9419
:102F40001C1BF7018083E0913105F0913205C483A9
:102F5000C2E0D2E00DC016FF0BC0C4E0DEE708C03F
:102F6000CBE0D0E005C0C9E0D0E002C0C2E0D0E0D4
:102F700017FD05C0209729F4CCE0D0E002C0CDE0D9
:102F8000D0E060E086E00E94081BC230F2E0DF077C
:102F9000D1F010E0E0913105F091320584811817ED
:102FA00050F46701C10ED11C89E00E941C1BF60180
:102FB00080831F5FEFCF25813681232B21F088236B
:102FC00011F081508483602F84E00E94081B60E030
:102FD00085E00E94081B60E88AE00E94081B61E00F
:102FE00084E00E94081B60E08DE00E94081BCE0177
:102FF000DF91CF911F910F91FF90EF90DF90CF90D5
:10300000BF90AF909F9008951F93CF93DF93182F99
:10301000EB0148E060E088E00E94261B60E88EE05B
:103020000E94081B40E860E082E10E94261B40E805
:1030300060E083E10E94261B67E08DE00E94081B90
:103040001092300B1092310B1092320B1092340B05
:103050001092360B1092350B1092370B10931C0BFD
:1030600081E08093330B80E991E00E94341640E3C5
:103070005BE06CE17BE08CE00E94C416882311F0D9
:10308000863089F49091340B923081F42091350B85
:103090003091360B232B51F420911C0B30911D0BDA
:1030A0003983288304C01882198201C08BE090E024
:1030B000DF91CF911F9108956F927F929F92AF926F
:1030C000BF92CF92DF92EF92FF920F931F93CF9315
:1030D000DF931F92CDB7DEB7E82EF62E3A0110929D
:1030E0001E0B10921F0B1092200B1092210B1092AE
:1030F000220B40E860E082E10E94261B40E860E08D
:1031000083E10E94261B60E08EE00E94081BB62C23
:1031100084E0C82ED12C30E23F1508F4A9C02F2D31
:1031200027709F2D969596959695222321F0AA2497
:10313000A394A90E01C0A92EE0921C0B80E2820F7D
:10314000E0E19E9F800D112480931D0BAEE1BBE05A
:10315000F3018E2F8B198A1518F481918D93F9CF75
:10316000F0E12F9FB0011124622B8DE029830E9492
:10317000081B1092300B1092310B1092320B1092F0
:10318000340B1092360B1092350B1092370B82E0F5
:103190008A0D8093330B80E197E20E94341640E35E
:1031A0005BE06CE17BE08CE00E94C4168C0129811D
:1031B0008630910519F0892B09F05FC06091350BBD
:1031C0007091360B8091340BA62F38E0839FA00DB1
:1031D0001124A21B4F2D50E04A0F511D49325105B9
:1031E0000CF049C0672B19F08F5F8093340B4A2D88
:1031F00050E0222359F0FA013197E60DF71D908136
:1032000080911C0B892B8083B1E001C0B0E0A12C20
:10321000C601841B950B6B2F70E02A2D30E0281718
:10322000390774F4F901E45EF44FE60FF71F90805C
:10323000260D371DF901E40FF51F9082A394EDCF01
:103240000630110511F4FA0E66CFF30191818081E9
:1032500089279281892793818927245E344FF90138
:10326000EB0FF11D9081891741F001E015E005C0D9
:1032700001E011E002C004E010E060E08DE00E9497
:10328000081B60E88EE00E94081BC8010F90DF91C8
:10329000CF911F910F91FF90EF90DF90CF90BF9053
:1032A000AF909F907F906F900895FF920F931F9320
:1032B000CF93DF93F82EEB018A0140E861E082E1D1
:1032C0000E94261B40E861E083E10E94261BF092E9
:1032D0001C0B80E780931D0BFE01AEE1BBE0CE012D
:1032E000049621912D93E817F907D9F799818881E0
:1032F00089279A8189279B8189278093220B1092A5
:10330000300B1092310B1092320B1092340B109242
:10331000360B1092350B1092370B87E08093330BEE
:1033200080ED97E00E94341640E35BE06CE17BE0C7
:103330008CE00E94C416009789F42091340B213050
:1033400059F42091350B3091360B232B29F4209121
:103350001C0BF801208302C084E090E0DF91CF9144
:103360001F910F91FF9008956F927F928F929F927D
:10337000AF92BF92CF92DF92EF92FF920F931F9383
:10338000CF93DF93CDB7DEB72D970FB6F894DEBF9E
:103390000FBECDBF7B016A019E012F5F3F4F5901D8
:1033A00020E030E010E08823A1F0813240F000EE10
:1033B000080F113061F0123071F580E205C0113054
:1033C00051F0123099F400E067E9962E12C080E2C5
:1033D00003C0113089F400E06A807B808C80F701A3
:1033E00060827182828255E9952E03C000E043E934
:1033F000942E803231F411C0123029F300E093E9A9
:10340000992E2115310509F5A501682F892D0E94F6
:103410005C189C0102C083E9982E21153105A9F49E
:10342000AE01435F5F4FB501892D0E9455199C0184
:10343000892B19F48D8582FF08C01F5FF4E0AF0E61
:10344000B11C1330D1F0802FAECF113061F01230AB
:10345000A1F48D819E81AF81B885F7018683978322
:10346000A087B18713C08D819E81AF81B885F70198
:1034700083839483A583B68309C089819A81AB81B4
:10348000BC81F70180839183A283B3838D85F6018C
:103490008083C9012D960FB6F894DEBF0FBECDBF55
:1034A000DF91CF911F910F91FF90EF90DF90CF9020
:1034B000BF90AF909F908F907F906F900895CF9323
:1034C000DF931092300B1092310B1092320B10924E
:1034D000330B1092340B1092360B1092350B109266
:1034E000370B80931C0B20931D0B86E0FB01AEE194
:1034F000BBE001900D928A95E1F7FA0180819181FC
:10350000A281B3818093240B9093250BA093260B6B
:10351000B093270B8CE08093330B80ED97E00E94F3
:10352000341640E35BE06CE17BE08EE00E94C41661
:10353000EC01892B41F488E00E941C1B8F708830BD
:1035400011F0C1E0D2E0CE01DF91CF910895CF9389
:10355000DF93EB011092300B1092310B1092320B73
:103560001092340B1092360B1092350B1092370BD1
:1035700090E390931C0B80931D0B82E08093330BA0
:1035800080E197E20E94341640E35BE06CE17BE06F
:103590008CE00E94C4160097E9F081309105A1F0FB
:1035A0002091350B3091360B2430310569F4809130
:1035B0001C0B982F9F7090931C0B8A7019F085E05C
:1035C00091E002C081E092E020E1FE0111922A9593
:1035D000E9F714C02091340B203141F080E1FE0165
:1035E00011928A95E9F788E090E008C020E1ECE1CB
:1035F000FBE0DE0101900D922A95E1F7DF91CF917A
:103600000895883011F481E001C084E00C94A71A79
:10361000CF93DF931F92CDB7DEB7880F71988E7767
:1036200069830E945B1B6981862F0E945B1B719AD4
:103630000F90DF91CF910895880F8E7771988068F1
:103640000E945B1B0E94601B719A08951F93CF9389
:10365000DF9300D0CDB7DEB7182F4A8369830E946D
:103660001C1B69814A81662319F0682F642B03C0F3
:10367000642F60956823812F0F900F90DF91CF9179
:103680001F910C94081BCF93DF931F92CDB7DEB729
:1036900084B1876084B92398289A82E08DB9719AA1
:1036A000299882E58CBD8DB589838EB589830F906D
:1036B000DF91CF9108958EBD0DB407FEFDCF089523
:1036C0008FEF8EBD0DB407FEFDCF8EB508950E941D
:1036D000431B0C946216F8940FB6F894A895809149
:1036E0006000886180936000109260000FBE80E0EF
:1036F00090E00E9455270E9483260E94BA15789474
:103700000E9427030E94671B78940E9405040E9470
:103710005122FACF80913901869581700895809168
:103720003305811104C080915C0180933305809141
:1037300033050895809146018F718093340510926E
:10374000530C08950E948F1B823019F0809134052C
:10375000089586E108958091B80B0895CF9395EF71
:10376000980F903118F5C82F0E948A1B811120C034
:10377000809148018F718C17E9F080914801807E1B
:103780009C2F9F71892B80934801809141018F71FB
:10379000863011F0893021F48DE291E00197F1F744
:1037A000809148018F718C1307C004C082E405C06A
:1037B00084E403C080E401C083E4CF9108956630BF
:1037C00098F4811104C080914301886003C0809106
:1037D0004301877F8093430180914301887F682B59
:1037E0006093430180E4089582E40895809141014B
:1037F0008F710895E9E3F1E080818D7F80838DE012
:1038000090E00197F1F7E2E4F1E08081807E83604F
:10381000808383E090E00197F1F70895E9E3F1E018
:1038200080818160808380818D7F80838DE090E0C6
:103830000197F1F780818E7F808308950F931F9306
:10384000CF93DF931F92CDB7DEB70DEF13E0F801F2
:103850003197F1F789830E940E1C90914201907E6E
:10386000936090934201F8013197F1F79CE49093B3
:103870004E0190914901907F976090934901898111
:1038800081110E94BF1E80E40F90DF91CF911F91A4
:103890000F910895CF93C82F0E948F1B823031F46F
:1038A00080910500C0FB87F9809305000E948F1B63
:1038B000833061F42091040030E2C39FC0011124E1
:1038C0008072922F9F7D892B80930400CF91089561
:1038D00080914101982F9F709150923038F0982F2D
:1038E0009F7181E09E3119F080E0089581E0089594
:1038F000CF93C82F88EF8C0F823038F08C2F8F7EBB
:10390000863019F0C93109F055C00E948A1B811117
:1039100053C00E94681C8111FCCF0E948F1B823013
:1039200039F40E94D824882319F0C63109F4C6E07E
:10393000809141018F71C81709F440C0C83019F453
:103940000E94FA1B31C0C93159F48930E1F09091DD
:103950004201907E996090934201863181F40CC0BF
:10396000C63189F4893079F090914201907E996056
:1039700090934201893119F4E3E0F0E002C0E9E6F6
:10398000F1E03197F1F790914201907E2C2F2F7149
:10399000922B90934201883019F489E691E002C09D
:1039A00083E090E00197F1F7809141018F718C13D2
:1039B00007C004C082E405C084E403C080E401C001
:1039C00083E4CF910895CF93DF9300D000D01F926E
:1039D000CDB7DEB7809141018F718C838C818131AD
:1039E00051F08C81863039F08C81813021F08C81CE
:1039F000863109F05FC040917B0150E060E871E0E2
:103A000089E39BE00E94123280917B018093380B06
:103A1000E0917B01F0E0E85CF44F80818093B80B8B
:103A200019821B821A822091390B80913A0B90E007
:103A3000982F8827820F911D90933A0B8093390B12
:103A4000813628E8920709F140F4833028E0920794
:103A500081F08115904899F028C083362CE89207B0
:103A600001F1833628EC9207D1F083369848E9F4C7
:103A70000EC08091440C8823C1F085E115C00E94DE
:103A8000D824882391F084E10FC080E10DC080919B
:103A9000420B823031F08B3B31F0813031F487E1E1
:103AA00003C088E101C089E18983CE0101960E94AB
:103AB000062235C08C81823049F08C81823131F010
:103AC0008C81893119F08C81893049F51092530C21
:103AD00019821B821A828091420182958695877095
:103AE0008D838D81833049F020F4823040F481E170
:103AF00005C0853021F482E101C083E18983898199
:103B0000882321F0CE0101960E94062286E10E94C0
:103B1000781C80919400909195000E94B42F0F9092
:103B20000F900F900F900F90DF91CF9108950F930A
:103B30001F93CF93C82F8B0187FD2BC00E94681C59
:103B40008111FCCF89E10E94781C809141018F7125
:103B50008931C1F7F801858196819093520C809349
:103B6000510C4C2F50E04E5F5F4FB80181E891E05F
:103B70000E941232CE5FC093800180913901826031
:103B800080933901809139018D7F8093390180E4E0
:103B900001C082E4CF911F910F910895EEE6F1E00C
:103BA000908180FB93F990830895809362019093B4
:103BB0006301089580936001909361010895E4E6A4
:103BC000F1E0DC012D91CD012193EC36B1E0FB0752
:103BD000C1F70895CF93DF93C82FD09141010E9480
:103BE0008F1B833039F4DF70D630F1F4C69590E046
:103BF00020E009C00E948F1B8338A9F30E948F1B0D
:103C0000873091F4F0CF9C1769F08091460144E031
:103C1000249F900111248076829586958770282BA9
:103C20009F5FF1CF822F02C00E94B02FDF91CF9112
:103C3000089508951F920F920FB60F9211240BB69C
:103C40000F922F933F934F935F936F937F938F9335
:103C50009F93AF93BF93EF93FF930E949A1BFF91A3
:103C6000EF91BF91AF919F918F917F916F915F91F4
:103C70004F913F912F910F900BBE0F900FBE0F9061
:103C80001F9018951F920F920FB60F9211240BB62A
:103C90000F922F933F934F935F936F937F938F93E5
:103CA0009F93AF93BF93EF93FF930E94E31CFF9109
:103CB000EF91BF91AF919F918F917F916F915F91A4
:103CC0004F913F912F910F900BBE0F900FBE0F9011
:103CD0001F9018951F920F920FB60F9211240BB6DA
:103CE0000F922F933F934F935F936F937F938F9395
:103CF0009F93AF93BF93EF93FF93809141018F7197
:103D0000863111F00E94E31CFF91EF91BF91AF91BA
:103D10009F918F917F916F915F914F913F912F91E3
:103D20000F900BBE0F900FBE0F901F9018951F9213
:103D30000F920FB60F9211240BB60F922F933F9351
:103D40004F935F936F937F938F939F93AF93BF93A3
:103D5000EF93FF930E949625FF91EF91BF91AF9152
:103D60009F918F917F916F915F914F913F912F9193
:103D70000F900BBE0F900FBE0F901F901895CF9213
:103D8000DF92EF92FF920F931F93CF93DF9300D0B8
:103D9000CDB7DEB710913505112311F011E058C0F1
:103DA00081E080933505F0906600F89461E00E9410
:103DB000DF1BC090B100D0908100E0908000109295
:103DC000B100109281001092800088EE93E043E0F1
:103DD00056E03FEF4093B100509381001092B20043
:103DE000109285001092840036BB37BBB89BFECF83
:103DF00060918400709185007A83698310928100BC
:103E00001092B10069817A816D3F714020F4209158
:103E10006600215008C069817A816330724048F0A1
:103E2000209166002F5F20936600019799F600E0CD
:103E300001C001E060E081E00E94DF1BC092B100A0
:103E4000D0928100E09280000111A8CFF09266002C
:103E5000812F0F900F90DF91CF911F910F91FF90C5
:103E6000EF90DF90CF900895CF93DF931F92CDB75F
:103E7000DEB7FC01CA013FB73983F894462F50E002
:103E8000BF010E948A3589818FBF0F90DF91CF914A
:103E90000895CF93DF931F92CDB7DEB7FC01CA011F
:103EA0003FB73983F894462F50E0BF010E94AC35EC
:103EB00089818FBF0F90DF91CF9108951F93CF938A
:103EC000DF93CDB7DEB728970FB6F894DEBF0FBEED
:103ED000CDBF182F2FEF3FEF3093480C2093470CA6
:103EE00030934A0C2093490C1092440C30934C0CA4
:103EF00020934B0C30934E0C20934D0C10924F0C92
:103F00001092530C81E08093540C0E941E1C10935D
:103F1000500C1F3F19F0812F0E94AE1B81E00E94C0
:103F20004A1C88E00E94781C0E94191E86E10E94AB
:103F3000781C4CE35CE068E080E090E00E94341F75
:103F400080E00E94CE1D8FEF9FEF0E94DA1D8FEF61
:103F50009FEF0E94D51D80916C018F7080628093CD
:103F60006C0180913C0C898380913D0C8A83809107
:103F70003E0C8B8380913F0C8C838091400C8D8311
:103F80008091410C8E838091420C8F838091430CF1
:103F90008887CE0101960E94DF1D0E94A7202896E7
:103FA0000FB6F894DEBF0FBECDBFDF91CF911F914A
:103FB00008958093500C0C94AE1B809162060E9471
:103FC00053269091440C81E089270C945602CF939C
:103FD000DF93EC01862F0E94D91FEAEBFBE083E61A
:103FE00098EC92838183ACE3BCE01A968C911A978B
:103FF00091E0980F1A969C931A9783831B968D9144
:104000009C911C9795838483D783C6838C918087EA
:1040100011968C911197818712968C9112978287B5
:1040200013968C911397838714968C911497848799
:1040300015968C911597858716968C91169786877D
:1040400017968C91878781E0808BD28BC18B82E021
:10405000838B6BEB7BE083E10E94971D6DED7FE12D
:1040600088EE93E00E94CD2580936206DF91CF9188
:104070000895009761F0E6E3F5E02081318128178B
:10408000390739F0339626E0E236F207B1F780E0DF
:10409000089581E00895E6E3F5E0DF0120E030E0F7
:1040A0004D915C9111974817590769F4F901EE0F8A
:1040B000FF1F2E0F3F1FF901E85CFA4F80818E7FB2
:1040C0008D7F808308952F5F3F4F139624363105EF
:1040D00039F720E030E0422F60817181672BA9F42D
:1040E000F901EE0FFF1F2E0F3F1FF901EA5CFA4F97
:1040F00091838083F901E85CFA4F90819E7F9D7FD8
:104100009083842F90E00C944F022F5F3F4F3396A3
:104110002436310501F70895E6E3F5E020E030E0CC
:10412000408151814817590759F4F901EE0FFF1FDB
:104130002E0F3F1FF901EA5CFA4F11821082089599
:104140002F5F3F4F33962436310551F70895089578
:104150000895FC0195859F7795870895EAEBFBE02C
:1041600080E090E892838183ACE3BCE019968C9167
:10417000199791E0980F19969C93199783831B9632
:104180008D919C911C97958384831D968D919C9114
:104190001E97978386838FEF90E09187808786E0D4
:1041A000828753968C9183876BEB7BE08BE00C943A
:1041B000971D6BEB7BE08091BA0B0C94971DEF92EF
:1041C000FF920F931F93CF93DF93E091490CF091EF
:1041D0004A0C8E179F0709F46EC08F3F3FEF93077D
:1041E00009F469C03091440C332309F464C0C22F30
:1041F0007A01D62F8C0181E698E89093BC0B8093CE
:10420000BB0B8091460C91E0980F9093460C8093E5
:10421000BD0B8091470C9091480C9093BF0B8093FD
:10422000BE0BF093C30BE093C20B1093C50B00932E
:10423000C40BF093C70BE093C60BC8010E94B024D7
:10424000C63029F41093C10B0093C00B08C08091B5
:104250004B0C90914C0C9093C10B8093C00BC0936E
:10426000C80BF70129EC3BE0D9018A2F821B8D177F
:1042700018F481918D93F9CF8091C00B9091C10B6F
:104280002091490C30914A0C82179307A1F00196B6
:1042900091F0D25FD093BA0BC650C23018F087E0CD
:1042A00090E002C080E090E069ED70E20E94CD25D0
:1042B00081E08093530CDF91CF911F910F91FF907C
:1042C000EF90089521E00C94DF208091460B8F77CA
:1042D000833029F128F4813041F08230D1F0089503
:1042E000843019F1863019F008950C9426028091DB
:1042F000470B9091480B4091400B5091410B2091FE
:104300004B0C30914C0C42175307A9F499270C948D
:10431000A8208091440B9091450B0C94C60180918C
:10432000440B9091450B0C94CA018091470B9091DE
:10433000480B0C948C2008950F931F93CF93DF9319
:10434000CDB7DEB760970FB6F894DEBF0FBECDBF16
:1043500081E698E89A8389830CE31CE0F801828562
:1043600091E0980F92878B83838594859D838C83BE
:1043700085859685998788879D878C878091650636
:10438000909166069B878A87809163068E870E943C
:10439000A21B8F870E94AB1B888BF80187859089B1
:1043A0009F838E83BE016F5F7F4F80E10E94971DC8
:1043B00060960FB6F894DEBF0FBECDBFDF91CF91F0
:1043C0001F910F9108952091490C30914A0C62176A
:1043D000730791F09091440C992371F070936606E5
:1043E0006093650690E090936406809363060E9454
:1043F0009C2181E08093530C08952091550C90915D
:10440000560C81E0291301C080E00895CF93DF931B
:10441000EC014091550C242F30E0E091560CC9017D
:1044200001966EE170E00E94DB2D6E2F70E0861722
:104430009707A9F0F901EE0FFF1F2E0F3F1FF9019B
:10444000EB5AF34F88819981AA8182839383A48355
:1044500081E0840F8E3108F080E08093550CDF916D
:10446000CF910895CF93DF931F92CDB7DEB78091A0
:10447000560C8983898190E09C01220F331F820FA3
:10448000931F895A934F29812F5F298329812E31C8
:1044900008F0198229812093560C0F90DF91CF915B
:1044A0000895CF93C1E00E94FD21882309F481C0C3
:1044B0000E943222DC01EC914E2F50E0FA017097FD
:1044C000EA30F10580F7ED52FF4F0C94112E8091E8
:1044D000440C8111E8CF0E94DB24E5CFDC0111966A
:1044E000ED91FC9112970995DECF8091440C8823C1
:1044F000D1F289E39BE00E94A9202091420B3091E8
:10450000430B8091490C90914A0C2817390719F4F4
:104510000E946521C8CF0E945724C5CF8091440CCA
:10452000882309F26EEA70E281E090E00E94CD25D6
:10453000BACF8091440C882309F4B5CF0E94B623EA
:10454000B2CF80913A0B8C38D9F48091390B8336F5
:10455000B9F4C093440C8091460B9091470B909313
:104560004C0C80934B0C8091490B90914A0B90938B
:104570004A0C8093490C0E94DA1D0E94DD1F93CFE4
:104580008091440C882309F48ECF0E9427238BCF7F
:104590008091440C882309F486CF0E94DB2283CFCC
:1045A0000E94E00180CF0E94E1017DCF0E94D201F4
:1045B0007ACFCF9108958091380B92E8E8E3FBE041
:1045C000AAEBBBE001900D929A95E1F79091440C13
:1045D0009923E1F18C508695E82FF0E0EE0FFF1F54
:1045E000ED53F44F2081318130934E0C20934D0CCC
:1045F000823060F1815023E638E83093BC0B209381
:10460000BB0B9091460C21E0290F2093460C909310
:10461000BD0B90E0FC01EE0FFF1FEB53F44F208128
:1046200031813093C10B2093C00B2091490C309104
:104630004A0C3093C30B2093C20B9BEB9093C40B9B
:104640008B5F6BEB7BE0880F0C94971D0895809136
:10465000440C882309F489C02091430B3091440B0A
:104660008091490C90914A0C2817390709F04BC0EA
:1046700083E69CE89093BB0B8093BA0B8091460C29
:1046800091E0980F9093460C8093BC0B8091470C5F
:104690009091480C9093BE0B8093BD0B8091450B7D
:1046A0008093BF0B8091460B8093C00B8091470B8A
:1046B0008093C10B8091480B8093C20B8091490B72
:1046C0008093C30B80914A0B8093C40B80914B0B5A
:1046D0008093C50B80914C0B8093C60B3093C80B15
:1046E0002093C70B82E08093C90B80914D0B909172
:1046F0004E0B9093CB0B8093CA0B0E944B206AEB1E
:104700007BE082E130C022E8E8E3FBE0AAEBBBE01B
:1047100001900D922A95E1F72091460C31E0320F7D
:104720003093460C2093BD0B20914D0C30914E0CD4
:104730003093C10B2093C00B9093C30B8093C20B9B
:104740008091C50B9091C60B0E943920882341F0BF
:104750008091C50B9091C60B9093C10B8093C00BB9
:104760006BEB7BE086E10C94971D0895CF93DF936C
:10477000CDB7DEB765970FB6F894DEBF0FBECDBFDD
:10478000A0913A0B8091460CE091470CF091480CB7
:1047900060914B0C70914C0C4091490C50914A0C1B
:1047A0003091450B2091460B9091470BA83C81F529
:1047B000A3E6B8E8BA83A983A1E0A80FA093460CAA
:1047C0008B83FD83EC837F836E835987488781E0E9
:1047D0008A874091490B50914A0B5C874B878091A7
:1047E000400B8D878091410B8E878091420B8F8784
:1047F0008091430B888B8091440B898B3A8B2B8B58
:104800009C8B80914B0B8D8BBE016F5F7F4F43C0A4
:10481000A3E6B8E8B093BB0BA093BA0BA1E0A80F36
:10482000A093460C8093BC0BF093BE0BE093BD0BA2
:104830007093C00B6093BF0B5093C20B4093C10B9E
:1048400081E08093C30B4091430B5091440B5093F4
:10485000C50B4093C40B3093C60B2093C70B9093AA
:10486000C80B8091480B8093C90B8091490B8093B2
:10487000CA0B80914A0B8093CB0B80914B0B80939A
:10488000CC0B80914C0B8093CD0B80914D0B809382
:10489000CE0B6AEB7BE085E10E94971D65960FB613
:1048A000F894DEBF0FBECDBFDF91CF91089582E8AF
:1048B000E8E3FBE0AAEBBBE001900D928A95E1F7FB
:1048C000A09A6DE971E08AE090E00E94CD25809188
:1048D000C40B9091C50B0E9439209091460C2091F9
:1048E000490C30914A0C882359F081E0890F80935C
:1048F000460C9093BD0B8091C40B9091C50B15C0D5
:1049000040914B0C50914C0C6091C20B7091C30BB9
:1049100081E0890F8093460C9093BD0B6417750757
:1049200049F480914D0C90914E0C9093C10B809363
:10493000C00B04C05093C10B4093C00B3093C30B0A
:104940002093C20B8091C00B9091C10B019639F05E
:104950008091BA0B6BEB7BE082500C94971D08950D
:1049600080E00895CF93DF93E8E3FBE02091B80B5C
:10497000C1EBDCE08181928184E0989F812D9927B1
:1049800011248883848195819A8389838681978184
:104990009C838B83838589878091500C81508D8384
:1049A0001E822A870E94A21B8B87DF91CF910895D8
:1049B000809167060895CF938091B80B4091400B8A
:1049C0005091410B90916706992361F19091420BB0
:1049D000963041F52091B80C3091B90C5093B90C38
:1049E0004093B80C9091B90C97FF05C03093B90C67
:1049F0002093B80C17C09091BB0C981718F4CF9166
:104A00000C94B22498130EC09091BA0C8091430B71
:104A10008917A8F3981306C0C091BC0C0E94A21B72
:104A2000C81768F3CF910895CF93C1E08091B60C79
:104A30008F3F11F4C0E01BC08091B20C9091B30C79
:104A40009093480C8093470C2091B40C3091B50C96
:104A500030934C0C20934B0C0E94D51D8091B60CCA
:104A60000E94D91F9091BA0C9F5F90934F0C8C2F8E
:104A7000CF910C9460028091500C8F3FB1F491E083
:104A80009093670696E1E1EBFCE0DF011D929A95B9
:104A9000E9F78093B60C8BE08093500C80911E0256
:104AA0008038A9F08093500C12C08B3148F490E00C
:104AB00020911E0230E02F5F3F4F8217930739F499
:104AC000109267068FEF8093500C0C941425809100
:104AD000500C0E94D91F83E098E09093BC0B809308
:104AE000BB0B8091450C91E0980F9093450C8093FF
:104AF000BD0B8FEF9FEF9093BF0B8093BE0B9093F6
:104B0000C10B8093C00B87E08093C20B6BEB7BE003
:104B100088E00E94971D8091500C8F5F8093500C0D
:104B20006BE375E284E190E00C94CD2508958091CB
:104B300068068F5F09F481E020E030E091E0F90140
:104B4000E053F94F4281481301C090E02B5F3F4F83
:104B500024363105A1F720E030E0F901E459F94F9E
:104B60004281481301C090E02B5F3F4F243631054E
:104B7000A1F79923F1F280936806089580916B065E
:104B800081110AC0109295001092940082E08093E7
:104B9000710081E080936B0608950F931F93CF936C
:104BA000DF931F92CDB7DEB7009719F4FB0109958B
:104BB00012C02FB72983F894A0EDB6E020E030E0D2
:104BC0004D915C911197452B41F02F5F3F4F15960A
:104BD00024313105A9F780E023C045E0429FD00190
:104BE000439FB00D1124A053B94F009711F481E0F9
:104BF00090E08D939C9385E0829F8001839F100DB0
:104C000011240053194FF801748363830E94972580
:104C1000F80182830E94BE2589818FBFF8018281BD
:104C20000F90DF91CF911F910F9108950F931F93D4
:104C3000CF93DF931F92CDB7DEB7009719F4FB0136
:104C400009950FC0ACE6B6E020E030E04D915C91F4
:104C50001197452B41F02F5F3F4F159624313105B9
:104C6000A9F780E01AC045E0429F8001439F100DE4
:104C700011240459194FF80191838083748363834D
:104C80000E949725F80182838FB78983F8940E9448
:104C9000BE2589818FBFF80182810F90DF91CF916E
:104CA0001F910F910895E2EDF6E020E030E0908151
:104CB000981309C085E0829FF001839FF00D1124B5
:104CC000E053F94F15C02F5F3F4F35962431310522
:104CD00071F7EEE6F6E020E030E0908198130CC02A
:104CE00085E0829FF001839FF00D1124E459F94F74
:104CF00011821082128208952F5F3F4F3596243122
:104D0000310559F70895E1E9F0E080818A608083F8
:104D100080ED97E0909399008093980080919400A3
:104D2000909195000C94B42F1F920F920FB60F9292
:104D300011240BB60F92FF920F931F932F933F9363
:104D40004F935F936F937F938F939F93AF93BF9393
:104D5000EF93FF93CF93DF9300D01F92CDB7DEB7D1
:104D60008091690690916A06019690936A068093F5
:104D7000690680911F0290912002019749F090935B
:104D8000200280931F0200ED16E096E1F92E24C068
:104D900084EF91E09093200280931F020CE616E0CE
:104DA00086E1F82EF80180819181009771F00197DA
:104DB00091838083892B49F4F982838194819B8339
:104DC0008A83CE0101960E9406220B5F1F4FF6E0F8
:104DD000003D1F0739F7D7CFF801808191810097F7
:104DE00071F0019791838083892B49F4F982838143
:104DF00094819B838A83CE0101960E9406220B5FD9
:104E00001F4FF7E004331F0739F70F900F900F90F3
:104E1000DF91CF91FF91EF91BF91AF919F918F91D2
:104E20007F916F915F914F913F912F911F910F91C2
:104E3000FF900F900BBE0F900FBE0F901F90189514
:104E40001F920F920FB60F9211248F9382E08093DE
:104E500035078F910F900FBE0F901F9018951F92DE
:104E60000F920FB60F9211248F9381E08093340735
:104E70008F910F900FBE0F901F901895FC0191819C
:104E8000DF01A90FB11D12962C918081981731F086
:104E90009F5F97FD90E09183822F08958FEF089593
:104EA000EAE3F7E0118210820895EAE3F7E0118265
:104EB0001082ECEBF7E01182108228E92093C90000
:104EC00026E02093CA001092CD0027E62093CC0064
:104ED0009093390780933807089590913607911180
:104EE0002AC078949091BC079F5F97FD90E0309125
:104EF00037072091BD07921303C03323D1F308C0B5
:104F0000E091BC07F0E0E454F84F82839093BC0733
:104F10008091C90085FD0FC08091C80085FFFCCF3E
:104F20008CEB97E00E943E278093CE008091C900D1
:104F300080628093C900089580913A0790E02091A3
:104F40003B07821B910997FF02C080589F4F08952D
:104F500080913A0790E020913B07821B910997FFCF
:104F600002C080589F4F882399F38AE397E00C94FE
:104F70003E271F920F920FB60F9211240BB60F927D
:104F80002F933F934F935F936F937F938F939F9351
:104F9000AF93BF93EF93FF938091CE0091E09093F6
:104FA000370790913A079F5F97FD90E020913B076C
:104FB000921741F0E0913A07F0E0E65CF84F828307
:104FC00090933A0710923707E0913807F09139072C
:104FD000309709F00995FF91EF91BF91AF919F91A3
:104FE0008F917F916F915F914F913F912F910F9092
:104FF0000BBE0F900FBE0F901F9018951F920F922F
:105000000FB60F9211240BB60F922F933F934F932D
:105010005F936F937F938F939F93AF93BF93EF9320
:10502000FF939091BC078091BD07981739F08CEBE6
:1050300097E00E943E278093CE0005C08091C90072
:105040008F7D8093C900FF91EF91BF91AF919F91A8
:105050008F917F916F915F914F913F912F910F9021
:105060000BBE0F900FBE0F901F901895982F80EDDC
:10507000890F8A3070F08FEB890F863010F489EC3D
:1050800005C08FE9890F863018F489EA890F0895E1
:1050900080E008959F92AF92BF92CF92DF92EF92FD
:1050A000FF920F931F93CF93DF937C016B01FC0161
:1050B00001900020E9F73197EF01C81BD90B0C2FA5
:1050C00010E01017A8F45701A10EB11CF501808162
:1050D0000E943628982EF50181810E943628F0E141
:1050E0009F9E800D1124F60181936F011E5FE9CF11
:1050F0008C2F8695DF91CF911F910F91FF90EF90AC
:10510000DF90CF90BF90AF909F9008952F923F92E5
:105110004F925F926F927F928F929F92AF92BF92C7
:10512000CF92DF92EF92FF920F931F93CF93DF9373
:10513000CDB7DEB763970FB6F894DEBF0FBECDBF15
:105140006C014B012A01FC0117821682838181FFC9
:1051500043C3AE014F5F5F4F3A01F6019381F40103
:1051600093FD859193FF81914F01882309F430C30A
:10517000853239F493FD859193FF81914F018532FA
:1051800039F4B60190E00E94943252012501E5CF36
:1051900010E0F12C20E02032A0F48B3269F030F4E2
:1051A000803259F0833269F420612CC08D3239F09D
:1051B000803339F4216026C02260246023C0286037
:1051C00021C027FD27C030ED380F3A3078F426FF94
:1051D00006C0FAE01F9F300D1124132F13C04AE0C0
:1051E000F49E300D1124F32E20620CC08E3221F477
:1051F00026FDEEC2206406C08C3611F4206802C081
:10520000883641F4F40193FD859193FF81914F011C
:105210008111C1CF9BEB980F933018F42061805E11
:1052200006C09BE9980F933008F071C12F7E26FFCE
:1052300016E02F73322E853619F42064322E08C002
:10524000863621F4F22FF0683F2E02C01111115062
:1052500037FE07C01C3350F4EE24E394E10E27E040
:105260000BC0183038F027E017E005C027E04CE30A
:10527000E42E02C0212FE12C520144E0A40EB11C07
:10528000F20160817181828193810E2DA3010E94C0
:1052900019312C01098100FF02C003FF07C031FC56
:1052A00008C032FE09C030E2232E07C02DE2222EB4
:1052B00004C09BE2292E01C0212C802F8C7019F094
:1052C000211068C2A8C237FE0FC0E40C04FF04C05E
:1052D0008A81813309F4EA941E1474F5F8E0FE150E
:1052E00078F588E0E82E2CC036FC2AC0812F90E0AB
:1052F000841595059CF02CEF42162FEF520674F0A2
:10530000432D4068342E0AC0E2E0F0E0EC0FFD1FB0
:10531000E10FF11D8081803319F411501111F4CF88
:1053200037FE0EC0EE24E394E10E812F90E0481684
:1053300059062CF4141904C0EE24E39401C010E0C3
:1053400037FE06C01414150434F4C201019605C0DA
:1053500085E090E002C081E090E0211001961123E9
:1053600031F0212F30E02F5F3F4F820F931F2F2D01
:1053700030E08217930714F4F81A01C0F12C832D42
:10538000897049F4FF2039F0B60180E290E00E9474
:105390009432FA94F7CF222029F0B601822D90E0C2
:1053A0000E94943233FC09C0FF2039F0B60180E33B
:1053B00090E00E949432FA94F7CF37FE5AC0942DB1
:1053C000852D57FE02C090E080E0292E382E20E087
:1053D00030E0A2014E1951095D874C87A2014219A4
:1053E00053095F874E87612F70E044275527461B7E
:1053F000570B598B488B5FEF2516350649F4B601DC
:105400008EE290E02A8B3B8B0E9494323B892A8962
:10541000421453046CF04C855D854215530544F4E9
:10542000EE85FF85E20FF31FE60DF71D818101C0B8
:1054300080E351E0251A31082F5F3F4F4889598991
:10544000241635064CF0B60190E02A8B3B8B0E9467
:1054500094322A893B89CFCF2414350439F49A81B8
:10546000963318F4953311F404FF81E3B60190E00C
:105470004BC08A81813309F00F7EB60190E00E9413
:105480009432111105C034FC18C085E690E017C0B5
:10549000B6018EE290E00E94943282E0EE24E39422
:1054A000E80EF301E80FF11D8081B60190E00E9443
:1054B000943211508E2D91F7E6CF85E490E0B6013D
:1054C0000E94943257FC05C04114510439F404FF82
:1054D00005C05194419451088DE201C08BE2B601A0
:1054E00090E00E94943280E39AE0491651042CF037
:1054F0008F5F5AE0451A5108F7CFB60190E00E943D
:105500009432B601C201C0960E94943257C18336CC
:1055100031F0833779F0833509F058C021C052014A
:10552000E2E0AE0EB11CF2018081898301E010E05F
:10553000230114C05201F2E0AF0EB11CF201408011
:10554000518026FF03C0612F70E002C06FEF7FEF34
:10555000C2012A8B0E9445328C012A892F7715C0FF
:105560005201F2E0AF0EB11CF2014080518026FFE3
:1055700003C0612F70E002C06FEF7FEFC2012A8B82
:105580000E94FA318C012A892068322E23FD1AC02C
:105590008F2D90E008171907A8F4B60180E290E07B
:1055A0000E949432FA94F4CFF20137FC859137FED1
:1055B00081912F01B60190E00E949432F110FA948B
:1055C000015011090115110579F7F8C0843611F061
:1055D000893659F5520127FF09C0F4E0AF0EB11C1E
:1055E000F20160817181828193810AC0F2E0AF0E85
:1055F000B11CF20160817181072E000C880B990BA0
:105600002F76322E97FF09C0909580957095619501
:105610007F4F8F4F9F4F2068322E2AE030E0A3014A
:105620000E94FC32E82EE6183FC0022F853721F495
:105630000F7E2AE030E01DC0097F8F3691F018F40C
:10564000883559F0C5C0803719F0883711F0C0C0CF
:10565000006104FF09C0046007C024FF08C00660A1
:1056600006C028E030E005C020E130E002C020E1C3
:1056700032E0520107FF09C0F4E0AF0EB11CF201A5
:10568000608171818281938108C0F2E0AF0EB11C0C
:10569000F2016081718180E090E0A3010E94FC3200
:1056A000E82EE6180F77302E36FE0BC0332D3E7FE6
:1056B000E11650F434FE0AC032FC08C0332D3E7EA1
:1056C00005C00E2D332D03C00E2D01C0012F34FF58
:1056D0000CC0FE01EE0DF11D8081803311F4397E86
:1056E00008C032FF05C00E5F04C0832F867809F022
:1056F0000F5F33FD13C030FF06C01E2D0F1518F4C9
:105700001F0D101B0F2D0F1568F4B60180E290E0FD
:105710003B8B0E9494320F5F3B89F5CF0F1510F43D
:10572000F01A01C0F12C34FF12C0B60180E390E002
:105730003B8B0E9494323B8932FF17C031FD03C07E
:1057400088E790E002C088E590E0B6010CC0832FA6
:10575000867859F031FF02C08BE201C080E237FD4C
:105760008DE2B60190E00E949432E11638F4B60161
:1057700080E390E00E9494321150F7CFEA94F30155
:10578000EE0DF11D8081B60190E00E949432E1108F
:10579000F5CF14C0F4E0FF1558F584E0F81A33FE95
:1057A0001EC0211026C003FF2AC00AEB11E0F32D12
:1057B000F0713F2EF8018491811124C0FF2009F47B
:1057C000E5CCB60180E290E00E949432FA94F6CFE4
:1057D000F6018681978126C08FEF9FEF23C0B60127
:1057E00080E290E00E949432FA94F110F8CFD9CF81
:1057F000F12CB601822D90E00E949432D4CF0EEBB2
:1058000011E0D5CF31108052B60190E00E94943261
:105810000F5F1F4FCFCF23E02F1510F483E0BECFD3
:10582000F12CC1CF63960FB6F894DEBF0FBECDBF8B
:10583000DF91CF911F910F91FF90EF90DF90CF906C
:10584000BF90AF909F908F907F906F905F904F90A0
:105850003F902F9008955058BB27AA270E94432CB1
:105860000C948D2D0E947F2D38F00E94862D20F003
:1058700039F49F3F19F426F40C947C2D0EF4E09536
:10588000E7FB0C94762DE92F0E949E2D58F3BA1752
:10589000620773078407950720F079F4A6F50C9446
:1058A000C02D0EF4E0950B2EBA2FA02D0B01B901DF
:1058B00090010C01CA01A0011124FF27591B99F086
:1058C000593F50F4503E68F11A16F040A22F232F92
:1058D000342F4427585FF3CF469537952795A795E2
:1058E000F0405395C9F77EF41F16BA0B620B730B89
:1058F000840BBAF09150A1F0FF0FBB1F661F771FFA
:10590000881FC2F70EC0BA0F621F731F841F48F4AE
:10591000879577956795B795F7959E3F08F0B0CF37
:105920009395880F08F09927EE0F9795879508951E
:105930000E94AC2C0C948D2D0E94862D58F00E9454
:105940007F2D40F029F45F3F29F00C94762D511102
:105950000C94C12D0C947C2D0E949E2D68F39923EC
:10596000B1F3552391F3951B550BBB27AA2762175B
:105970007307840738F09F5F5F4F220F331F441F68
:10598000AA1FA9F335D00E2E3AF0E0E832D091509C
:105990005040E695001CCAF72BD0FE2F29D0660F89
:1059A000771F881FBB1F261737074807AB07B0E8CC
:1059B00009F0BB0B802DBF01FF2793585F4F3AF0D2
:1059C0009E3F510578F00C94762D0C94C12D5F3FCD
:1059D000E4F3983ED4F3869577956795B795F79558
:1059E0009F5FC9F7880F911D9695879597F9089540
:1059F000E1E0660F771F881FBB1F621773078407DC
:105A0000BA0720F0621B730B840BBA0BEE1F88F7EA
:105A1000E09508950E94A62D88F09F5798F0B92F21
:105A20009927B751B0F0E1F0660F771F881F991FD3
:105A30001AF0BA95C9F714C0B13091F00E94C02D88
:105A4000B1E008950C94C02D672F782F8827B85F98
:105A500039F0B93FCCF3869577956795B395D9F72B
:105A60003EF490958095709561957F4F8F4F9F4F35
:105A70000895E89409C097FB3EF490958095709541
:105A800061957F4F8F4F9F4F9923A9F0F92F96E98A
:105A9000BB279395F695879577956795B795F111FF
:105AA000F8CFFAF4BB0F11F460FF1BC06F5F7F4F9C
:105AB0008F4F9F4F16C0882311F096E911C07723AE
:105AC00021F09EE8872F762F05C0662371F096E8B7
:105AD000862F70E060E02AF09A95660F771F881F86
